{
	"_format": "sphinx-sol-ct-artifact-1",
	"merkleRoot": "0xc1816d00d44a8a06737fcd4435ec380c8c483210e9010a0280adad77e107ebbd",
	"address": "0xd301a7c098c52479ecd2fdc1e2e2042e03650857",
	"sourceName": "src/JBOmnichainDeployer.sol",
	"contractName": "JBOmnichainDeployer",
	"chainId": "0xaa37dc",
	"abi": [
		{
			"inputs": [
				{
					"internalType": "contract IJBController",
					"name": "controller",
					"type": "address"
				},
				{
					"internalType": "contract IJBSuckerRegistry",
					"name": "suckerRegistry",
					"type": "address"
				},
				{
					"internalType": "contract IJB721TiersHookProjectDeployer",
					"name": "hookProjectDeployer",
					"type": "address"
				},
				{
					"internalType": "address",
					"name": "trustedForwarder",
					"type": "address"
				}
			],
			"stateMutability": "nonpayable",
			"type": "constructor"
		},
		{
			"inputs": [],
			"name": "CONTROLLER",
			"outputs": [
				{
					"internalType": "contract IJBController",
					"name": "",
					"type": "address"
				}
			],
			"stateMutability": "view",
			"type": "function"
		},
		{
			"inputs": [],
			"name": "HOOK_PROJECT_DEPLOYER",
			"outputs": [
				{
					"internalType": "contract IJB721TiersHookProjectDeployer",
					"name": "",
					"type": "address"
				}
			],
			"stateMutability": "view",
			"type": "function"
		},
		{
			"inputs": [],
			"name": "PERMISSIONS",
			"outputs": [
				{
					"internalType": "contract IJBPermissions",
					"name": "",
					"type": "address"
				}
			],
			"stateMutability": "view",
			"type": "function"
		},
		{
			"inputs": [],
			"name": "PROJECTS",
			"outputs": [
				{
					"internalType": "contract IJBProjects",
					"name": "",
					"type": "address"
				}
			],
			"stateMutability": "view",
			"type": "function"
		},
		{
			"inputs": [],
			"name": "SUCKER_REGISTRY",
			"outputs": [
				{
					"internalType": "contract IJBSuckerRegistry",
					"name": "",
					"type": "address"
				}
			],
			"stateMutability": "view",
			"type": "function"
		},
		{
			"inputs": [
				{
					"internalType": "uint256",
					"name": "projectId",
					"type": "uint256"
				},
				{
					"components": [
						{
							"components": [
								{
									"internalType": "contract IJBSuckerDeployer",
									"name": "deployer",
									"type": "address"
								},
								{
									"components": [
										{
											"internalType": "address",
											"name": "localToken",
											"type": "address"
										},
										{
											"internalType": "uint32",
											"name": "minGas",
											"type": "uint32"
										},
										{
											"internalType": "address",
											"name": "remoteToken",
											"type": "address"
										},
										{
											"internalType": "uint256",
											"name": "minBridgeAmount",
											"type": "uint256"
										}
									],
									"internalType": "struct JBTokenMapping[]",
									"name": "mappings",
									"type": "tuple[]"
								}
							],
							"internalType": "struct JBSuckerDeployerConfig[]",
							"name": "deployerConfigurations",
							"type": "tuple[]"
						},
						{
							"internalType": "bytes32",
							"name": "salt",
							"type": "bytes32"
						}
					],
					"internalType": "struct REVSuckerDeploymentConfig",
					"name": "suckerDeploymentConfiguration",
					"type": "tuple"
				}
			],
			"name": "deploySuckersFor",
			"outputs": [
				{
					"internalType": "address[]",
					"name": "suckers",
					"type": "address[]"
				}
			],
			"stateMutability": "nonpayable",
			"type": "function"
		},
		{
			"inputs": [
				{
					"internalType": "address",
					"name": "forwarder",
					"type": "address"
				}
			],
			"name": "isTrustedForwarder",
			"outputs": [
				{
					"internalType": "bool",
					"name": "",
					"type": "bool"
				}
			],
			"stateMutability": "view",
			"type": "function"
		},
		{
			"inputs": [
				{
					"internalType": "address",
					"name": "owner",
					"type": "address"
				},
				{
					"components": [
						{
							"internalType": "string",
							"name": "name",
							"type": "string"
						},
						{
							"internalType": "string",
							"name": "symbol",
							"type": "string"
						},
						{
							"internalType": "string",
							"name": "baseUri",
							"type": "string"
						},
						{
							"internalType": "contract IJB721TokenUriResolver",
							"name": "tokenUriResolver",
							"type": "address"
						},
						{
							"internalType": "string",
							"name": "contractUri",
							"type": "string"
						},
						{
							"components": [
								{
									"components": [
										{
											"internalType": "uint104",
											"name": "price",
											"type": "uint104"
										},
										{
											"internalType": "uint32",
											"name": "initialSupply",
											"type": "uint32"
										},
										{
											"internalType": "uint32",
											"name": "votingUnits",
											"type": "uint32"
										},
										{
											"internalType": "uint16",
											"name": "reserveFrequency",
											"type": "uint16"
										},
										{
											"internalType": "address",
											"name": "reserveBeneficiary",
											"type": "address"
										},
										{
											"internalType": "bytes32",
											"name": "encodedIPFSUri",
											"type": "bytes32"
										},
										{
											"internalType": "uint24",
											"name": "category",
											"type": "uint24"
										},
										{
											"internalType": "uint8",
											"name": "discountPercent",
											"type": "uint8"
										},
										{
											"internalType": "bool",
											"name": "allowOwnerMint",
											"type": "bool"
										},
										{
											"internalType": "bool",
											"name": "useReserveBeneficiaryAsDefault",
											"type": "bool"
										},
										{
											"internalType": "bool",
											"name": "transfersPausable",
											"type": "bool"
										},
										{
											"internalType": "bool",
											"name": "useVotingUnits",
											"type": "bool"
										},
										{
											"internalType": "bool",
											"name": "cannotBeRemoved",
											"type": "bool"
										},
										{
											"internalType": "bool",
											"name": "cannotIncreaseDiscountPercent",
											"type": "bool"
										}
									],
									"internalType": "struct JB721TierConfig[]",
									"name": "tiers",
									"type": "tuple[]"
								},
								{
									"internalType": "uint32",
									"name": "currency",
									"type": "uint32"
								},
								{
									"internalType": "uint8",
									"name": "decimals",
									"type": "uint8"
								},
								{
									"internalType": "contract IJBPrices",
									"name": "prices",
									"type": "address"
								}
							],
							"internalType": "struct JB721InitTiersConfig",
							"name": "tiersConfig",
							"type": "tuple"
						},
						{
							"internalType": "address",
							"name": "reserveBeneficiary",
							"type": "address"
						},
						{
							"components": [
								{
									"internalType": "bool",
									"name": "noNewTiersWithReserves",
									"type": "bool"
								},
								{
									"internalType": "bool",
									"name": "noNewTiersWithVotes",
									"type": "bool"
								},
								{
									"internalType": "bool",
									"name": "noNewTiersWithOwnerMinting",
									"type": "bool"
								},
								{
									"internalType": "bool",
									"name": "preventOverspending",
									"type": "bool"
								}
							],
							"internalType": "struct JB721TiersHookFlags",
							"name": "flags",
							"type": "tuple"
						}
					],
					"internalType": "struct JBDeploy721TiersHookConfig",
					"name": "deployTiersHookConfig",
					"type": "tuple"
				},
				{
					"components": [
						{
							"internalType": "string",
							"name": "projectUri",
							"type": "string"
						},
						{
							"components": [
								{
									"internalType": "uint48",
									"name": "mustStartAtOrAfter",
									"type": "uint48"
								},
								{
									"internalType": "uint32",
									"name": "duration",
									"type": "uint32"
								},
								{
									"internalType": "uint112",
									"name": "weight",
									"type": "uint112"
								},
								{
									"internalType": "uint32",
									"name": "weightCutPercent",
									"type": "uint32"
								},
								{
									"internalType": "contract IJBRulesetApprovalHook",
									"name": "approvalHook",
									"type": "address"
								},
								{
									"components": [
										{
											"internalType": "uint16",
											"name": "reservedPercent",
											"type": "uint16"
										},
										{
											"internalType": "uint16",
											"name": "cashOutTaxRate",
											"type": "uint16"
										},
										{
											"internalType": "uint32",
											"name": "baseCurrency",
											"type": "uint32"
										},
										{
											"internalType": "bool",
											"name": "pausePay",
											"type": "bool"
										},
										{
											"internalType": "bool",
											"name": "pauseCreditTransfers",
											"type": "bool"
										},
										{
											"internalType": "bool",
											"name": "allowOwnerMinting",
											"type": "bool"
										},
										{
											"internalType": "bool",
											"name": "allowTerminalMigration",
											"type": "bool"
										},
										{
											"internalType": "bool",
											"name": "allowSetTerminals",
											"type": "bool"
										},
										{
											"internalType": "bool",
											"name": "allowSetController",
											"type": "bool"
										},
										{
											"internalType": "bool",
											"name": "allowAddAccountingContext",
											"type": "bool"
										},
										{
											"internalType": "bool",
											"name": "allowAddPriceFeed",
											"type": "bool"
										},
										{
											"internalType": "bool",
											"name": "ownerMustSendPayouts",
											"type": "bool"
										},
										{
											"internalType": "bool",
											"name": "holdFees",
											"type": "bool"
										},
										{
											"internalType": "bool",
											"name": "useTotalSurplusForCashOuts",
											"type": "bool"
										},
										{
											"internalType": "bool",
											"name": "useDataHookForCashOut",
											"type": "bool"
										},
										{
											"internalType": "uint16",
											"name": "metadata",
											"type": "uint16"
										}
									],
									"internalType": "struct JBPayDataHookRulesetMetadata",
									"name": "metadata",
									"type": "tuple"
								},
								{
									"components": [
										{
											"internalType": "uint256",
											"name": "groupId",
											"type": "uint256"
										},
										{
											"components": [
												{
													"internalType": "uint32",
													"name": "percent",
													"type": "uint32"
												},
												{
													"internalType": "uint64",
													"name": "projectId",
													"type": "uint64"
												},
												{
													"internalType": "address payable",
													"name": "beneficiary",
													"type": "address"
												},
												{
													"internalType": "bool",
													"name": "preferAddToBalance",
													"type": "bool"
												},
												{
													"internalType": "uint48",
													"name": "lockedUntil",
													"type": "uint48"
												},
												{
													"internalType": "contract IJBSplitHook",
													"name": "hook",
													"type": "address"
												}
											],
											"internalType": "struct JBSplit[]",
											"name": "splits",
											"type": "tuple[]"
										}
									],
									"internalType": "struct JBSplitGroup[]",
									"name": "splitGroups",
									"type": "tuple[]"
								},
								{
									"components": [
										{
											"internalType": "address",
											"name": "terminal",
											"type": "address"
										},
										{
											"internalType": "address",
											"name": "token",
											"type": "address"
										},
										{
											"components": [
												{
													"internalType": "uint224",
													"name": "amount",
													"type": "uint224"
												},
												{
													"internalType": "uint32",
													"name": "currency",
													"type": "uint32"
												}
											],
											"internalType": "struct JBCurrencyAmount[]",
											"name": "payoutLimits",
											"type": "tuple[]"
										},
										{
											"components": [
												{
													"internalType": "uint224",
													"name": "amount",
													"type": "uint224"
												},
												{
													"internalType": "uint32",
													"name": "currency",
													"type": "uint32"
												}
											],
											"internalType": "struct JBCurrencyAmount[]",
											"name": "surplusAllowances",
											"type": "tuple[]"
										}
									],
									"internalType": "struct JBFundAccessLimitGroup[]",
									"name": "fundAccessLimitGroups",
									"type": "tuple[]"
								}
							],
							"internalType": "struct JBPayDataHookRulesetConfig[]",
							"name": "rulesetConfigurations",
							"type": "tuple[]"
						},
						{
							"components": [
								{
									"internalType": "contract IJBTerminal",
									"name": "terminal",
									"type": "address"
								},
								{
									"components": [
										{
											"internalType": "address",
											"name": "token",
											"type": "address"
										},
										{
											"internalType": "uint8",
											"name": "decimals",
											"type": "uint8"
										},
										{
											"internalType": "uint32",
											"name": "currency",
											"type": "uint32"
										}
									],
									"internalType": "struct JBAccountingContext[]",
									"name": "accountingContextsToAccept",
									"type": "tuple[]"
								}
							],
							"internalType": "struct JBTerminalConfig[]",
							"name": "terminalConfigurations",
							"type": "tuple[]"
						},
						{
							"internalType": "string",
							"name": "memo",
							"type": "string"
						}
					],
					"internalType": "struct JBLaunchProjectConfig",
					"name": "launchProjectConfig",
					"type": "tuple"
				},
				{
					"internalType": "bytes32",
					"name": "salt",
					"type": "bytes32"
				},
				{
					"components": [
						{
							"components": [
								{
									"internalType": "contract IJBSuckerDeployer",
									"name": "deployer",
									"type": "address"
								},
								{
									"components": [
										{
											"internalType": "address",
											"name": "localToken",
											"type": "address"
										},
										{
											"internalType": "uint32",
											"name": "minGas",
											"type": "uint32"
										},
										{
											"internalType": "address",
											"name": "remoteToken",
											"type": "address"
										},
										{
											"internalType": "uint256",
											"name": "minBridgeAmount",
											"type": "uint256"
										}
									],
									"internalType": "struct JBTokenMapping[]",
									"name": "mappings",
									"type": "tuple[]"
								}
							],
							"internalType": "struct JBSuckerDeployerConfig[]",
							"name": "deployerConfigurations",
							"type": "tuple[]"
						},
						{
							"internalType": "bytes32",
							"name": "salt",
							"type": "bytes32"
						}
					],
					"internalType": "struct REVSuckerDeploymentConfig",
					"name": "suckerDeploymentConfiguration",
					"type": "tuple"
				}
			],
			"name": "launch721ProjectFor",
			"outputs": [
				{
					"internalType": "uint256",
					"name": "projectId",
					"type": "uint256"
				},
				{
					"internalType": "contract IJB721TiersHook",
					"name": "hook",
					"type": "address"
				},
				{
					"internalType": "address[]",
					"name": "suckers",
					"type": "address[]"
				}
			],
			"stateMutability": "nonpayable",
			"type": "function"
		},
		{
			"inputs": [
				{
					"internalType": "address",
					"name": "owner",
					"type": "address"
				},
				{
					"internalType": "string",
					"name": "projectUri",
					"type": "string"
				},
				{
					"components": [
						{
							"internalType": "uint48",
							"name": "mustStartAtOrAfter",
							"type": "uint48"
						},
						{
							"internalType": "uint32",
							"name": "duration",
							"type": "uint32"
						},
						{
							"internalType": "uint112",
							"name": "weight",
							"type": "uint112"
						},
						{
							"internalType": "uint32",
							"name": "weightCutPercent",
							"type": "uint32"
						},
						{
							"internalType": "contract IJBRulesetApprovalHook",
							"name": "approvalHook",
							"type": "address"
						},
						{
							"components": [
								{
									"internalType": "uint16",
									"name": "reservedPercent",
									"type": "uint16"
								},
								{
									"internalType": "uint16",
									"name": "cashOutTaxRate",
									"type": "uint16"
								},
								{
									"internalType": "uint32",
									"name": "baseCurrency",
									"type": "uint32"
								},
								{
									"internalType": "bool",
									"name": "pausePay",
									"type": "bool"
								},
								{
									"internalType": "bool",
									"name": "pauseCreditTransfers",
									"type": "bool"
								},
								{
									"internalType": "bool",
									"name": "allowOwnerMinting",
									"type": "bool"
								},
								{
									"internalType": "bool",
									"name": "allowSetCustomToken",
									"type": "bool"
								},
								{
									"internalType": "bool",
									"name": "allowTerminalMigration",
									"type": "bool"
								},
								{
									"internalType": "bool",
									"name": "allowSetTerminals",
									"type": "bool"
								},
								{
									"internalType": "bool",
									"name": "allowSetController",
									"type": "bool"
								},
								{
									"internalType": "bool",
									"name": "allowAddAccountingContext",
									"type": "bool"
								},
								{
									"internalType": "bool",
									"name": "allowAddPriceFeed",
									"type": "bool"
								},
								{
									"internalType": "bool",
									"name": "ownerMustSendPayouts",
									"type": "bool"
								},
								{
									"internalType": "bool",
									"name": "holdFees",
									"type": "bool"
								},
								{
									"internalType": "bool",
									"name": "useTotalSurplusForCashOuts",
									"type": "bool"
								},
								{
									"internalType": "bool",
									"name": "useDataHookForPay",
									"type": "bool"
								},
								{
									"internalType": "bool",
									"name": "useDataHookForCashOut",
									"type": "bool"
								},
								{
									"internalType": "address",
									"name": "dataHook",
									"type": "address"
								},
								{
									"internalType": "uint16",
									"name": "metadata",
									"type": "uint16"
								}
							],
							"internalType": "struct JBRulesetMetadata",
							"name": "metadata",
							"type": "tuple"
						},
						{
							"components": [
								{
									"internalType": "uint256",
									"name": "groupId",
									"type": "uint256"
								},
								{
									"components": [
										{
											"internalType": "uint32",
											"name": "percent",
											"type": "uint32"
										},
										{
											"internalType": "uint64",
											"name": "projectId",
											"type": "uint64"
										},
										{
											"internalType": "address payable",
											"name": "beneficiary",
											"type": "address"
										},
										{
											"internalType": "bool",
											"name": "preferAddToBalance",
											"type": "bool"
										},
										{
											"internalType": "uint48",
											"name": "lockedUntil",
											"type": "uint48"
										},
										{
											"internalType": "contract IJBSplitHook",
											"name": "hook",
											"type": "address"
										}
									],
									"internalType": "struct JBSplit[]",
									"name": "splits",
									"type": "tuple[]"
								}
							],
							"internalType": "struct JBSplitGroup[]",
							"name": "splitGroups",
							"type": "tuple[]"
						},
						{
							"components": [
								{
									"internalType": "address",
									"name": "terminal",
									"type": "address"
								},
								{
									"internalType": "address",
									"name": "token",
									"type": "address"
								},
								{
									"components": [
										{
											"internalType": "uint224",
											"name": "amount",
											"type": "uint224"
										},
										{
											"internalType": "uint32",
											"name": "currency",
											"type": "uint32"
										}
									],
									"internalType": "struct JBCurrencyAmount[]",
									"name": "payoutLimits",
									"type": "tuple[]"
								},
								{
									"components": [
										{
											"internalType": "uint224",
											"name": "amount",
											"type": "uint224"
										},
										{
											"internalType": "uint32",
											"name": "currency",
											"type": "uint32"
										}
									],
									"internalType": "struct JBCurrencyAmount[]",
									"name": "surplusAllowances",
									"type": "tuple[]"
								}
							],
							"internalType": "struct JBFundAccessLimitGroup[]",
							"name": "fundAccessLimitGroups",
							"type": "tuple[]"
						}
					],
					"internalType": "struct JBRulesetConfig[]",
					"name": "rulesetConfigurations",
					"type": "tuple[]"
				},
				{
					"components": [
						{
							"internalType": "contract IJBTerminal",
							"name": "terminal",
							"type": "address"
						},
						{
							"components": [
								{
									"internalType": "address",
									"name": "token",
									"type": "address"
								},
								{
									"internalType": "uint8",
									"name": "decimals",
									"type": "uint8"
								},
								{
									"internalType": "uint32",
									"name": "currency",
									"type": "uint32"
								}
							],
							"internalType": "struct JBAccountingContext[]",
							"name": "accountingContextsToAccept",
							"type": "tuple[]"
						}
					],
					"internalType": "struct JBTerminalConfig[]",
					"name": "terminalConfigurations",
					"type": "tuple[]"
				},
				{
					"internalType": "string",
					"name": "memo",
					"type": "string"
				},
				{
					"components": [
						{
							"components": [
								{
									"internalType": "contract IJBSuckerDeployer",
									"name": "deployer",
									"type": "address"
								},
								{
									"components": [
										{
											"internalType": "address",
											"name": "localToken",
											"type": "address"
										},
										{
											"internalType": "uint32",
											"name": "minGas",
											"type": "uint32"
										},
										{
											"internalType": "address",
											"name": "remoteToken",
											"type": "address"
										},
										{
											"internalType": "uint256",
											"name": "minBridgeAmount",
											"type": "uint256"
										}
									],
									"internalType": "struct JBTokenMapping[]",
									"name": "mappings",
									"type": "tuple[]"
								}
							],
							"internalType": "struct JBSuckerDeployerConfig[]",
							"name": "deployerConfigurations",
							"type": "tuple[]"
						},
						{
							"internalType": "bytes32",
							"name": "salt",
							"type": "bytes32"
						}
					],
					"internalType": "struct REVSuckerDeploymentConfig",
					"name": "suckerDeploymentConfiguration",
					"type": "tuple"
				}
			],
			"name": "launchProjectFor",
			"outputs": [
				{
					"internalType": "uint256",
					"name": "projectId",
					"type": "uint256"
				},
				{
					"internalType": "address[]",
					"name": "suckers",
					"type": "address[]"
				}
			],
			"stateMutability": "nonpayable",
			"type": "function"
		},
		{
			"inputs": [],
			"name": "trustedForwarder",
			"outputs": [
				{
					"internalType": "address",
					"name": "",
					"type": "address"
				}
			],
			"stateMutability": "view",
			"type": "function"
		},
		{
			"inputs": [
				{
					"internalType": "address",
					"name": "account",
					"type": "address"
				},
				{
					"internalType": "address",
					"name": "sender",
					"type": "address"
				},
				{
					"internalType": "uint256",
					"name": "projectId",
					"type": "uint256"
				},
				{
					"internalType": "uint256",
					"name": "permissionId",
					"type": "uint256"
				}
			],
			"name": "JBPermissioned_Unauthorized",
			"type": "error"
		}
	],
	"args": [],
	"solcInputHash": "ba12c9244b511e4e44fdd336304090d5",
	"bytecode": "0x61014060405234801562000011575f80fd5b506040516200227b3803806200227b83398101604081905262000034916200014c565b836001600160a01b031663f434c9146040518163ffffffff1660e01b8152600401602060405180830381865afa15801562000071573d5f803e3d5ffd5b505050506040513d601f19601f82011682018060405250810190620000979190620001b1565b6001600160a01b0380831660805290811660a052841660c08190526040805163293c499960e01b8152905163293c4999916004808201926020929091908290030181865afa158015620000ec573d5f803e3d5ffd5b505050506040513d601f19601f82011682018060405250810190620001129190620001b1565b6001600160a01b0390811660e0529283166101205250166101005250620001d6565b6001600160a01b038116811462000149575f80fd5b50565b5f805f806080858703121562000160575f80fd5b84516200016d8162000134565b6020860151909450620001808162000134565b6040860151909350620001938162000134565b6060860151909250620001a68162000134565b939692955090935050565b5f60208284031215620001c2575f80fd5b8151620001cf8162000134565b9392505050565b60805160a05160c05160e051610100516101205161200b620002705f395f81816101a6015281816103050152818161051301526106fc01525f818160e8015261060101525f818160a401528181610415015281816104a0015261080c01525f818161020f0152818161025d015261063301525f818161023601526108e701525f818161011a0152818161017d01526109aa015261200b5ff3fe608060405234801561000f575f80fd5b506004361061009b575f3560e01c8063b5d2553311610063578063b5d25533146101a1578063b78edb66146101c8578063beecbcbb146101e8578063ee0fc1211461020a578063f434c91414610231575f80fd5b8063293c49991461009f57806336f8937e146100e3578063572b6c051461010a57806365f4aad01461015a5780637da0a8771461017b575b5f80fd5b6100c67f000000000000000000000000000000000000000000000000000000000000000081565b6040516001600160a01b0390911681526020015b60405180910390f35b6100c67f000000000000000000000000000000000000000000000000000000000000000081565b61014a610118366004610a35565b7f00000000000000000000000000000000000000000000000000000000000000006001600160a01b0390811691161490565b60405190151581526020016100da565b61016d610168366004610aec565b610258565b6040516100da929190610c1c565b7f00000000000000000000000000000000000000000000000000000000000000006100c6565b6100c67f000000000000000000000000000000000000000000000000000000000000000081565b6101db6101d6366004610c3c565b61047b565b6040516100da9190610c80565b6101fb6101f6366004610c92565b6105fb565b6040516100da93929190610d3f565b6100c67f000000000000000000000000000000000000000000000000000000000000000081565b6100c67f000000000000000000000000000000000000000000000000000000000000000081565b5f60607f00000000000000000000000000000000000000000000000000000000000000006001600160a01b0316635c7465e5308d8d8d8d8d8d8d8d6040518a63ffffffff1660e01b81526004016102b7999897969594939291906113ef565b6020604051808303815f875af11580156102d3573d5f803e3d5ffd5b505050506040513d601f19601f820116820180604052508101906102f7919061157d565b91506020830135156103e9577f00000000000000000000000000000000000000000000000000000000000000006001600160a01b0316632f3f50e083856020013561034061086e565b6040516020016103639291909182526001600160a01b0316602082015260400190565b60408051601f1981840301815291905280516020909101206103858780611594565b6040518563ffffffff1660e01b81526004016103a494939291906115da565b5f604051808303815f875af11580156103bf573d5f803e3d5ffd5b505050506040513d5f823e601f3d908101601f191682016040526103e69190810190611738565b90505b6040516323b872dd60e01b81523060048201526001600160a01b038d81166024830152604482018490527f000000000000000000000000000000000000000000000000000000000000000016906323b872dd906064015f604051808303815f87803b158015610456575f80fd5b505af1158015610468573d5f803e3d5ffd5b505050509a509a98505050505050505050565b6040516331a9108f60e11b815260048101839052606090610511906001600160a01b037f00000000000000000000000000000000000000000000000000000000000000001690636352211e90602401602060405180830381865afa1580156104e5573d5f803e3d5ffd5b505050506040513d601f19601f8201168201806040525081019061050991906117f8565b84601d61087c565b7f00000000000000000000000000000000000000000000000000000000000000006001600160a01b0316632f3f50e084846020013561054e61086e565b6040516020016105719291909182526001600160a01b0316602082015260400190565b60408051601f1981840301815291905280516020909101206105938680611594565b6040518563ffffffff1660e01b81526004016105b294939291906115da565b5f604051808303815f875af11580156105cd573d5f803e3d5ffd5b505050506040513d5f823e601f3d908101601f191682016040526105f49190810190611738565b9392505050565b5f8060607f00000000000000000000000000000000000000000000000000000000000000006001600160a01b031663ea38480b3089897f000000000000000000000000000000000000000000000000000000000000000061065a61086e565b604080516001600160a01b03909216602083015281018c9052606001604051602081830303815290604052805190602001206040518663ffffffff1660e01b81526004016106ac959493929190611dae565b60408051808303815f875af11580156106c7573d5f803e3d5ffd5b505050506040513d601f19601f820116820180604052508101906106eb9190611f0b565b90935091506020840135156107e0577f00000000000000000000000000000000000000000000000000000000000000006001600160a01b0316632f3f50e084866020013561073761086e565b60405160200161075a9291909182526001600160a01b0316602082015260400190565b60408051601f19818403018152919052805160209091012061077c8880611594565b6040518563ffffffff1660e01b815260040161079b94939291906115da565b5f604051808303815f875af11580156107b6573d5f803e3d5ffd5b505050506040513d5f823e601f3d908101601f191682016040526107dd9190810190611738565b90505b6040516323b872dd60e01b81523060048201526001600160a01b038981166024830152604482018590527f000000000000000000000000000000000000000000000000000000000000000016906323b872dd906064015f604051808303815f87803b15801561084d575f80fd5b505af115801561085f573d5f803e3d5ffd5b50505050955095509592505050565b5f61087761099b565b905090565b5f61088561086e565b9050836001600160a01b0316816001600160a01b0316141580156109525750604051631a45b42760e11b81526001600160a01b0382811660048301528581166024830152604482018590526064820184905260016084830181905260a48301527f0000000000000000000000000000000000000000000000000000000000000000169063348b684e9060c401602060405180830381865afa15801561092c573d5f803e3d5ffd5b505050506040513d601f19601f820116820180604052508101906109509190611f39565b155b1561099557604051631326f75560e11b81526001600160a01b03808616600483015282166024820152604481018490526064810183905260840160405180910390fd5b50505050565b5f366014336001600160a01b037f0000000000000000000000000000000000000000000000000000000000000000161480156109d75750808210155b15610a06575f366109e88385611f54565b6109f3928290611f79565b6109fc91611fa0565b60601c9250505090565b339250505090565b6001600160a01b0381168114610a22575f80fd5b50565b8035610a3081610a0e565b919050565b5f60208284031215610a45575f80fd5b81356105f481610a0e565b5f8083601f840112610a60575f80fd5b50813567ffffffffffffffff811115610a77575f80fd5b602083019150836020828501011115610a8e575f80fd5b9250929050565b5f8083601f840112610aa5575f80fd5b50813567ffffffffffffffff811115610abc575f80fd5b6020830191508360208260051b8501011115610a8e575f80fd5b5f60408284031215610ae6575f80fd5b50919050565b5f805f805f805f805f8060c08b8d031215610b05575f80fd5b610b0e8b610a25565b995060208b013567ffffffffffffffff80821115610b2a575f80fd5b610b368e838f01610a50565b909b50995060408d0135915080821115610b4e575f80fd5b610b5a8e838f01610a95565b909950975060608d0135915080821115610b72575f80fd5b610b7e8e838f01610a95565b909750955060808d0135915080821115610b96575f80fd5b610ba28e838f01610a50565b909550935060a08d0135915080821115610bba575f80fd5b50610bc78d828e01610ad6565b9150509295989b9194979a5092959850565b5f815180845260208085019450602084015f5b83811015610c115781516001600160a01b031687529582019590820190600101610bec565b509495945050505050565b828152604060208201525f610c346040830184610bd9565b949350505050565b5f8060408385031215610c4d575f80fd5b82359150602083013567ffffffffffffffff811115610c6a575f80fd5b610c7685828601610ad6565b9150509250929050565b602081525f6105f46020830184610bd9565b5f805f805f60a08688031215610ca6575f80fd5b8535610cb181610a0e565b9450602086013567ffffffffffffffff80821115610ccd575f80fd5b90870190610160828a031215610ce1575f80fd5b90945060408701359080821115610cf6575f80fd5b908701906080828a031215610d09575f80fd5b9093506060870135925060808701359080821115610d25575f80fd5b50610d3288828901610ad6565b9150509295509295909350565b8381526001600160a01b0383166020820152606060408201525f610d666060830184610bd9565b95945050505050565b81835281816020850137505f828201602090810191909152601f909101601f19169091010190565b803565ffffffffffff81168114610a30575f80fd5b803563ffffffff81168114610a30575f80fd5b80356dffffffffffffffffffffffffffff81168114610a30575f80fd5b803561ffff81168114610a30575f80fd5b8015158114610a22575f80fd5b8035610a3081610ded565b610e1a82610e1283610ddc565b61ffff169052565b610e2660208201610ddc565b61ffff166020830152610e3b60408201610dac565b63ffffffff166040830152610e5260608201610dfa565b15156060830152610e6560808201610dfa565b15156080830152610e7860a08201610dfa565b151560a0830152610e8b60c08201610dfa565b151560c0830152610e9e60e08201610dfa565b151560e0830152610100610eb3828201610dfa565b151590830152610120610ec7828201610dfa565b151590830152610140610edb828201610dfa565b151590830152610160610eef828201610dfa565b151590830152610180610f03828201610dfa565b1515908301526101a0610f17828201610dfa565b1515908301526101c0610f2b828201610dfa565b1515908301526101e0610f3f828201610dfa565b151590830152610200610f53828201610dfa565b151590830152610220610f67828201610a25565b6001600160a01b031690830152610240610f82828201610ddc565b61ffff811684830152610995565b5f808335601e19843603018112610fa5575f80fd5b830160208101925035905067ffffffffffffffff811115610fc4575f80fd5b8060051b3603821315610a8e575f80fd5b5f8235603e19833603018112610fe9575f80fd5b90910192915050565b5f8383855260208086019550808560051b830101845f5b8781101561113f57848303601f190189526110248288610fd5565b60408085018235865286830135601e19843603018112611042575f80fd5b90920186810192903567ffffffffffffffff80821115611060575f80fd5b60c08083023603861315611072575f80fd5b888a01859052928290526060928389015f5b848110156111225763ffffffff61109a89610dac565b1682528b8801358481168082146110af575f80fd5b838e015250878701356110c181610a0e565b6001600160a01b0316828801526110d9888701610dfa565b15158683015260806110ec898201610d97565b65ffffffffffff169083015260a0611105898201610a25565b6001600160a01b0316908301529682019690820190600101611084565b509e8a019e98505050948701945050506001919091019050611009565b5090979650505050505050565b5f808335601e19843603018112611161575f80fd5b830160208101925035905067ffffffffffffffff811115611180575f80fd5b8060061b3603821315610a8e575f80fd5b8183525f60208085019450825f5b85811015610c115781357bffffffffffffffffffffffffffffffffffffffffffffffffffffffff81168082146111d3575f80fd5b88525063ffffffff6111e6838501610dac565b1687840152604096870196919091019060010161119f565b5f8235607e19833603018112610fe9575f80fd5b5f8383855260208086019550808560051b830101845f5b8781101561113f57848303601f1901895261124482886111fe565b6080813561125181610a0e565b6001600160a01b039081168652828701359061126c82610a0e565b1685870152604061127f8382018461114c565b83838901526112918489018284611191565b935050505060606112a48184018461114c565b9350868303828801526112b8838583611191565b9c88019c96505050928501925050600101611229565b803560ff81168114610a30575f80fd5b5f8383855260208086019550808560051b830101845f5b8781101561113f57848303601f190189526113108288610fd5565b6040808501823561132081610a0e565b6001600160a01b039081168752838801359036859003601e19018212611344575f80fd5b93018781019390359067ffffffffffffffff821115611361575f80fd5b60608083023603861315611373575f80fd5b888a01859052928290525f928089015b838510156113d357863561139681610a0e565b8316815260ff6113a7888d016112ce565b168b82015263ffffffff6113bc878901610dac565b168187015295810195600194909401938101611383565b9e8a019e985050509487019450505060019190910190506112f5565b6001600160a01b038a1681525f602060a08184015261141260a084018b8d610d6f565b838103604085015288815281810160058a901b820183018b5f5b8c81101561154057848303601f190184528135368f900361033e19018112611452575f80fd5b8e0161034065ffffffffffff61146783610d97565b168552611475888301610dac565b63ffffffff168886015261148b60408301610dbf565b6dffffffffffffffffffffffffffff16604086015260606114ad838201610dac565b63ffffffff169086015260806114c4838201610a25565b6001600160a01b0316908601526114e160a0808701908401610e05565b6103006114f081840184610f90565b83838901526115028489018284610ff2565b935050505061032061151681840184610f90565b93508683038288015261152a838583611212565b978a01979650505092870192505060010161142c565b50508581036060870152611555818a8c6112de565b9350505050828103608084015261156d818587610d6f565b9c9b505050505050505050505050565b5f6020828403121561158d575f80fd5b5051919050565b5f808335601e198436030181126115a9575f80fd5b83018035915067ffffffffffffffff8211156115c3575f80fd5b6020019150600581901b3603821315610a8e575f80fd5b5f606080830187845260208781860152604060606040870152828784526080935060808701905060808860051b880101895f5b8a81101561170757898303607f19018452611628828d610fd5565b858401813561163681610a0e565b6001600160a01b039081168652828901359036849003601e1901821261165a575f80fd5b92018881019290359067ffffffffffffffff821115611677575f80fd5b8160071b3603841315611688575f80fd5b868a01899052918190525f918b87015b828410156116f15784356116ab81610a0e565b8216815263ffffffff6116bf868d01610dac565b168b820152898501356116d181610a0e565b8216818b0152848d01358d820152938b0193600193909301928b01611698565b978a01979650505092870192505060010161160d565b50909c9b505050505050505050505050565b634e487b7160e01b5f52604160045260245ffd5b8051610a3081610a0e565b5f6020808385031215611749575f80fd5b825167ffffffffffffffff80821115611760575f80fd5b818501915085601f830112611773575f80fd5b81518181111561178557611785611719565b8060051b604051601f19603f830116810181811085821117156117aa576117aa611719565b6040529182528482019250838101850191888311156117c7575f80fd5b938501935b828510156117ec576117dd8561172d565b845293850193928501926117cc565b98975050505050505050565b5f60208284031215611808575f80fd5b81516105f481610a0e565b5f808335601e19843603018112611828575f80fd5b830160208101925035905067ffffffffffffffff811115611847575f80fd5b803603821315610a8e575f80fd5b80356cffffffffffffffffffffffffff81168114610a30575f80fd5b803562ffffff81168114610a30575f80fd5b5f60808084018335601e1985360301811261189c575f80fd5b8401602081810191359067ffffffffffffffff8211156118ba575f80fd5b6101c080830236038413156118cd575f80fd5b608089529382905260a0938489015f5b84811015611a1857611905826118f288611855565b6cffffffffffffffffffffffffff169052565b611910848701610dac565b63ffffffff16848301526040611927878201610dac565b63ffffffff1690830152606061193e878201610ddc565b61ffff1690830152611951868901610a25565b6001600160a01b031688830152858701358783015260c0611973818801611871565b62ffffff169083015260e06119898782016112ce565b60ff169083015261010061199e878201610dfa565b1515908301526101206119b2878201610dfa565b1515908301526101406119c6878201610dfa565b1515908301526101606119da878201610dfa565b1515908301526101806119ee878201610dfa565b1515908301526101a0611a02878201610dfa565b15159083015294820194908201906001016118dd565b50611a2560208a01610dac565b63ffffffff811660208c01529650611a3f60408a016112ce565b60ff811660408c01529650611a5660608a01610a25565b6001600160a01b03811660608c015296509998505050505050505050565b8035611a7f81610ded565b151582526020810135611a9181610ded565b151560208301526040810135611aa681610ded565b151560408301526060810135611abb81610ded565b8015156060840152505050565b611ad582610e1283610ddc565b611ae160208201610ddc565b61ffff166020830152611af660408201610dac565b63ffffffff166040830152611b0d60608201610dfa565b15156060830152611b2060808201610dfa565b15156080830152611b3360a08201610dfa565b151560a0830152611b4660c08201610dfa565b151560c0830152611b5960e08201610dfa565b151560e0830152610100611b6e828201610dfa565b151590830152610120611b82828201610dfa565b151590830152610140611b96828201610dfa565b151590830152610160611baa828201610dfa565b151590830152610180611bbe828201610dfa565b1515908301526101a0611bd2828201610dfa565b1515908301526101c0611be6828201610dfa565b1515908301526101e0610f82828201610ddc565b5f6080611c078384611813565b60808652611c19608087018284610d6f565b9150506020611c2a81860186610f90565b87840383890152808452828401600582901b85018401835f5b84811015611d5657878303601f190184528135368790036102de19018112611c69575f80fd5b86016102e065ffffffffffff611c7e83610d97565b168552611c8c898301610dac565b63ffffffff16898601526040611ca3838201610dbf565b6dffffffffffffffffffffffffffff16908601526060611cc4838201610dac565b63ffffffff1690860152611cd9828c01610a25565b6001600160a01b03168b86015260a0611cf6818701848301611ac8565b506102a0611d0681840184610f90565b8383890152611d188489018284610ff2565b93505050506102c0611d2c81840184610f90565b935086830382880152611d40838583611212565b978b019796505050928801925050600101611c43565b5050611d6560408a018a610f90565b9750955089810360408b0152611d7c8188886112de565b9650505050505050611d916060840184611813565b8583036060870152611da4838284610d6f565b9695505050505050565b6001600160a01b038616815260a060208201525f611dcc8687611813565b6101608060a0860152611de461020086018385610d6f565b9250611df360208a018a611813565b9250609f19808786030160c0880152611e0d858584610d6f565b9450611e1c60408c018c611813565b94509150808786030160e0880152611e35858584610d6f565b9450611e4360608c01610a25565b6001600160a01b0381166101008901529350611e6260808c018c611813565b945091508087860301610120880152611e7c858584610d6f565b9450611e8b60a08c018c6111fe565b935080878603016101408801525050611ea48383611883565b9250611eb260c08a01610a25565b6001600160a01b03169085015250611ed1610180840160e08901611a74565b8281036040840152611ee38187611bfa565b915050611efb60608301856001600160a01b03169052565b8260808301529695505050505050565b5f8060408385031215611f1c575f80fd5b825191506020830151611f2e81610a0e565b809150509250929050565b5f60208284031215611f49575f80fd5b81516105f481610ded565b81810381811115611f7357634e487b7160e01b5f52601160045260245ffd5b92915050565b5f8085851115611f87575f80fd5b83861115611f93575f80fd5b5050820193919092039150565b6bffffffffffffffffffffffff198135818116916014851015611fcd5780818660140360031b1b83161692505b50509291505056fea2646970667358221220e713f0e10fba391f5e488a8809833d9c1dbb01e8276193e4292ba50d987a007464736f6c63430008170033",
	"deployedBytecode": "0x",
	"gitCommit": "51cdc7805c1eb529cb5607259609b5ae967e94be"
}