{
	"format": "sphinx-sol-ct-artifact-1",
	"merkleRoot": "0xcebbf0c806caff463a3ef611e6278923f36a0d5ed9e2a49b2c6a2e5fc76c2e45",
	"address": "0x29f83557ca30d4283c1eb8b6118d1b4808eaa190",
	"sourceName": "src/JBOmnichainDeployer.sol",
	"contractName": "JBOmnichainDeployer",
	"chainId": "0x2105",
	"abi": [
		{
			"inputs": [
				{
					"internalType": "contract IJBController",
					"name": "controller",
					"type": "address"
				},
				{
					"internalType": "contract IJBSuckerRegistry",
					"name": "suckerRegistry",
					"type": "address"
				},
				{
					"internalType": "contract IJB721TiersHookDeployer",
					"name": "hookDeployer",
					"type": "address"
				},
				{
					"internalType": "address",
					"name": "trustedForwarder",
					"type": "address"
				}
			],
			"stateMutability": "nonpayable",
			"type": "constructor"
		},
		{
			"inputs": [],
			"name": "CONTROLLER",
			"outputs": [
				{
					"internalType": "contract IJBController",
					"name": "",
					"type": "address"
				}
			],
			"stateMutability": "view",
			"type": "function"
		},
		{
			"inputs": [],
			"name": "HOOK_DEPLOYER",
			"outputs": [
				{
					"internalType": "contract IJB721TiersHookDeployer",
					"name": "",
					"type": "address"
				}
			],
			"stateMutability": "view",
			"type": "function"
		},
		{
			"inputs": [],
			"name": "PERMISSIONS",
			"outputs": [
				{
					"internalType": "contract IJBPermissions",
					"name": "",
					"type": "address"
				}
			],
			"stateMutability": "view",
			"type": "function"
		},
		{
			"inputs": [],
			"name": "PROJECTS",
			"outputs": [
				{
					"internalType": "contract IJBProjects",
					"name": "",
					"type": "address"
				}
			],
			"stateMutability": "view",
			"type": "function"
		},
		{
			"inputs": [],
			"name": "SUCKER_REGISTRY",
			"outputs": [
				{
					"internalType": "contract IJBSuckerRegistry",
					"name": "",
					"type": "address"
				}
			],
			"stateMutability": "view",
			"type": "function"
		},
		{
			"inputs": [
				{
					"components": [
						{
							"internalType": "address",
							"name": "terminal",
							"type": "address"
						},
						{
							"internalType": "address",
							"name": "holder",
							"type": "address"
						},
						{
							"internalType": "uint256",
							"name": "projectId",
							"type": "uint256"
						},
						{
							"internalType": "uint256",
							"name": "rulesetId",
							"type": "uint256"
						},
						{
							"internalType": "uint256",
							"name": "cashOutCount",
							"type": "uint256"
						},
						{
							"internalType": "uint256",
							"name": "totalSupply",
							"type": "uint256"
						},
						{
							"components": [
								{
									"internalType": "address",
									"name": "token",
									"type": "address"
								},
								{
									"internalType": "uint8",
									"name": "decimals",
									"type": "uint8"
								},
								{
									"internalType": "uint32",
									"name": "currency",
									"type": "uint32"
								},
								{
									"internalType": "uint256",
									"name": "value",
									"type": "uint256"
								}
							],
							"internalType": "struct JBTokenAmount",
							"name": "surplus",
							"type": "tuple"
						},
						{
							"internalType": "bool",
							"name": "useTotalSurplus",
							"type": "bool"
						},
						{
							"internalType": "uint256",
							"name": "cashOutTaxRate",
							"type": "uint256"
						},
						{
							"internalType": "bytes",
							"name": "metadata",
							"type": "bytes"
						}
					],
					"internalType": "struct JBBeforeCashOutRecordedContext",
					"name": "context",
					"type": "tuple"
				}
			],
			"name": "beforeCashOutRecordedWith",
			"outputs": [
				{
					"internalType": "uint256",
					"name": "cashOutTaxRate",
					"type": "uint256"
				},
				{
					"internalType": "uint256",
					"name": "cashOutCount",
					"type": "uint256"
				},
				{
					"internalType": "uint256",
					"name": "totalSupply",
					"type": "uint256"
				},
				{
					"components": [
						{
							"internalType": "contract IJBCashOutHook",
							"name": "hook",
							"type": "address"
						},
						{
							"internalType": "uint256",
							"name": "amount",
							"type": "uint256"
						},
						{
							"internalType": "bytes",
							"name": "metadata",
							"type": "bytes"
						}
					],
					"internalType": "struct JBCashOutHookSpecification[]",
					"name": "hookSpecifications",
					"type": "tuple[]"
				}
			],
			"stateMutability": "view",
			"type": "function"
		},
		{
			"inputs": [
				{
					"components": [
						{
							"internalType": "address",
							"name": "terminal",
							"type": "address"
						},
						{
							"internalType": "address",
							"name": "payer",
							"type": "address"
						},
						{
							"components": [
								{
									"internalType": "address",
									"name": "token",
									"type": "address"
								},
								{
									"internalType": "uint8",
									"name": "decimals",
									"type": "uint8"
								},
								{
									"internalType": "uint32",
									"name": "currency",
									"type": "uint32"
								},
								{
									"internalType": "uint256",
									"name": "value",
									"type": "uint256"
								}
							],
							"internalType": "struct JBTokenAmount",
							"name": "amount",
							"type": "tuple"
						},
						{
							"internalType": "uint256",
							"name": "projectId",
							"type": "uint256"
						},
						{
							"internalType": "uint256",
							"name": "rulesetId",
							"type": "uint256"
						},
						{
							"internalType": "address",
							"name": "beneficiary",
							"type": "address"
						},
						{
							"internalType": "uint256",
							"name": "weight",
							"type": "uint256"
						},
						{
							"internalType": "uint256",
							"name": "reservedPercent",
							"type": "uint256"
						},
						{
							"internalType": "bytes",
							"name": "metadata",
							"type": "bytes"
						}
					],
					"internalType": "struct JBBeforePayRecordedContext",
					"name": "context",
					"type": "tuple"
				}
			],
			"name": "beforePayRecordedWith",
			"outputs": [
				{
					"internalType": "uint256",
					"name": "weight",
					"type": "uint256"
				},
				{
					"components": [
						{
							"internalType": "contract IJBPayHook",
							"name": "hook",
							"type": "address"
						},
						{
							"internalType": "uint256",
							"name": "amount",
							"type": "uint256"
						},
						{
							"internalType": "bytes",
							"name": "metadata",
							"type": "bytes"
						}
					],
					"internalType": "struct JBPayHookSpecification[]",
					"name": "hookSpecifications",
					"type": "tuple[]"
				}
			],
			"stateMutability": "view",
			"type": "function"
		},
		{
			"inputs": [
				{
					"internalType": "uint256",
					"name": "projectId",
					"type": "uint256"
				},
				{
					"internalType": "uint256",
					"name": "rulesetId",
					"type": "uint256"
				}
			],
			"name": "dataHookOf",
			"outputs": [
				{
					"internalType": "bool",
					"name": "useDataHookForPay",
					"type": "bool"
				},
				{
					"internalType": "bool",
					"name": "useDataHookForCashOut",
					"type": "bool"
				},
				{
					"internalType": "contract IJBRulesetDataHook",
					"name": "dataHook",
					"type": "address"
				}
			],
			"stateMutability": "view",
			"type": "function"
		},
		{
			"inputs": [
				{
					"internalType": "uint256",
					"name": "projectId",
					"type": "uint256"
				},
				{
					"components": [
						{
							"components": [
								{
									"internalType": "contract IJBSuckerDeployer",
									"name": "deployer",
									"type": "address"
								},
								{
									"components": [
										{
											"internalType": "address",
											"name": "localToken",
											"type": "address"
										},
										{
											"internalType": "uint32",
											"name": "minGas",
											"type": "uint32"
										},
										{
											"internalType": "address",
											"name": "remoteToken",
											"type": "address"
										},
										{
											"internalType": "uint256",
											"name": "minBridgeAmount",
											"type": "uint256"
										}
									],
									"internalType": "struct JBTokenMapping[]",
									"name": "mappings",
									"type": "tuple[]"
								}
							],
							"internalType": "struct JBSuckerDeployerConfig[]",
							"name": "deployerConfigurations",
							"type": "tuple[]"
						},
						{
							"internalType": "bytes32",
							"name": "salt",
							"type": "bytes32"
						}
					],
					"internalType": "struct REVSuckerDeploymentConfig",
					"name": "suckerDeploymentConfiguration",
					"type": "tuple"
				}
			],
			"name": "deploySuckersFor",
			"outputs": [
				{
					"internalType": "address[]",
					"name": "suckers",
					"type": "address[]"
				}
			],
			"stateMutability": "nonpayable",
			"type": "function"
		},
		{
			"inputs": [
				{
					"internalType": "uint256",
					"name": "projectId",
					"type": "uint256"
				},
				{
					"internalType": "address",
					"name": "addr",
					"type": "address"
				}
			],
			"name": "hasMintPermissionFor",
			"outputs": [
				{
					"internalType": "bool",
					"name": "flag",
					"type": "bool"
				}
			],
			"stateMutability": "view",
			"type": "function"
		},
		{
			"inputs": [
				{
					"internalType": "address",
					"name": "forwarder",
					"type": "address"
				}
			],
			"name": "isTrustedForwarder",
			"outputs": [
				{
					"internalType": "bool",
					"name": "",
					"type": "bool"
				}
			],
			"stateMutability": "view",
			"type": "function"
		},
		{
			"inputs": [
				{
					"internalType": "address",
					"name": "owner",
					"type": "address"
				},
				{
					"components": [
						{
							"internalType": "string",
							"name": "name",
							"type": "string"
						},
						{
							"internalType": "string",
							"name": "symbol",
							"type": "string"
						},
						{
							"internalType": "string",
							"name": "baseUri",
							"type": "string"
						},
						{
							"internalType": "contract IJB721TokenUriResolver",
							"name": "tokenUriResolver",
							"type": "address"
						},
						{
							"internalType": "string",
							"name": "contractUri",
							"type": "string"
						},
						{
							"components": [
								{
									"components": [
										{
											"internalType": "uint104",
											"name": "price",
											"type": "uint104"
										},
										{
											"internalType": "uint32",
											"name": "initialSupply",
											"type": "uint32"
										},
										{
											"internalType": "uint32",
											"name": "votingUnits",
											"type": "uint32"
										},
										{
											"internalType": "uint16",
											"name": "reserveFrequency",
											"type": "uint16"
										},
										{
											"internalType": "address",
											"name": "reserveBeneficiary",
											"type": "address"
										},
										{
											"internalType": "bytes32",
											"name": "encodedIPFSUri",
											"type": "bytes32"
										},
										{
											"internalType": "uint24",
											"name": "category",
											"type": "uint24"
										},
										{
											"internalType": "uint8",
											"name": "discountPercent",
											"type": "uint8"
										},
										{
											"internalType": "bool",
											"name": "allowOwnerMint",
											"type": "bool"
										},
										{
											"internalType": "bool",
											"name": "useReserveBeneficiaryAsDefault",
											"type": "bool"
										},
										{
											"internalType": "bool",
											"name": "transfersPausable",
											"type": "bool"
										},
										{
											"internalType": "bool",
											"name": "useVotingUnits",
											"type": "bool"
										},
										{
											"internalType": "bool",
											"name": "cannotBeRemoved",
											"type": "bool"
										},
										{
											"internalType": "bool",
											"name": "cannotIncreaseDiscountPercent",
											"type": "bool"
										}
									],
									"internalType": "struct JB721TierConfig[]",
									"name": "tiers",
									"type": "tuple[]"
								},
								{
									"internalType": "uint32",
									"name": "currency",
									"type": "uint32"
								},
								{
									"internalType": "uint8",
									"name": "decimals",
									"type": "uint8"
								},
								{
									"internalType": "contract IJBPrices",
									"name": "prices",
									"type": "address"
								}
							],
							"internalType": "struct JB721InitTiersConfig",
							"name": "tiersConfig",
							"type": "tuple"
						},
						{
							"internalType": "address",
							"name": "reserveBeneficiary",
							"type": "address"
						},
						{
							"components": [
								{
									"internalType": "bool",
									"name": "noNewTiersWithReserves",
									"type": "bool"
								},
								{
									"internalType": "bool",
									"name": "noNewTiersWithVotes",
									"type": "bool"
								},
								{
									"internalType": "bool",
									"name": "noNewTiersWithOwnerMinting",
									"type": "bool"
								},
								{
									"internalType": "bool",
									"name": "preventOverspending",
									"type": "bool"
								}
							],
							"internalType": "struct JB721TiersHookFlags",
							"name": "flags",
							"type": "tuple"
						}
					],
					"internalType": "struct JBDeploy721TiersHookConfig",
					"name": "deployTiersHookConfig",
					"type": "tuple"
				},
				{
					"components": [
						{
							"internalType": "string",
							"name": "projectUri",
							"type": "string"
						},
						{
							"components": [
								{
									"internalType": "uint48",
									"name": "mustStartAtOrAfter",
									"type": "uint48"
								},
								{
									"internalType": "uint32",
									"name": "duration",
									"type": "uint32"
								},
								{
									"internalType": "uint112",
									"name": "weight",
									"type": "uint112"
								},
								{
									"internalType": "uint32",
									"name": "weightCutPercent",
									"type": "uint32"
								},
								{
									"internalType": "contract IJBRulesetApprovalHook",
									"name": "approvalHook",
									"type": "address"
								},
								{
									"components": [
										{
											"internalType": "uint16",
											"name": "reservedPercent",
											"type": "uint16"
										},
										{
											"internalType": "uint16",
											"name": "cashOutTaxRate",
											"type": "uint16"
										},
										{
											"internalType": "uint32",
											"name": "baseCurrency",
											"type": "uint32"
										},
										{
											"internalType": "bool",
											"name": "pausePay",
											"type": "bool"
										},
										{
											"internalType": "bool",
											"name": "pauseCreditTransfers",
											"type": "bool"
										},
										{
											"internalType": "bool",
											"name": "allowOwnerMinting",
											"type": "bool"
										},
										{
											"internalType": "bool",
											"name": "allowTerminalMigration",
											"type": "bool"
										},
										{
											"internalType": "bool",
											"name": "allowSetTerminals",
											"type": "bool"
										},
										{
											"internalType": "bool",
											"name": "allowSetController",
											"type": "bool"
										},
										{
											"internalType": "bool",
											"name": "allowAddAccountingContext",
											"type": "bool"
										},
										{
											"internalType": "bool",
											"name": "allowAddPriceFeed",
											"type": "bool"
										},
										{
											"internalType": "bool",
											"name": "ownerMustSendPayouts",
											"type": "bool"
										},
										{
											"internalType": "bool",
											"name": "holdFees",
											"type": "bool"
										},
										{
											"internalType": "bool",
											"name": "useTotalSurplusForCashOuts",
											"type": "bool"
										},
										{
											"internalType": "bool",
											"name": "useDataHookForCashOut",
											"type": "bool"
										},
										{
											"internalType": "uint16",
											"name": "metadata",
											"type": "uint16"
										}
									],
									"internalType": "struct JBPayDataHookRulesetMetadata",
									"name": "metadata",
									"type": "tuple"
								},
								{
									"components": [
										{
											"internalType": "uint256",
											"name": "groupId",
											"type": "uint256"
										},
										{
											"components": [
												{
													"internalType": "uint32",
													"name": "percent",
													"type": "uint32"
												},
												{
													"internalType": "uint64",
													"name": "projectId",
													"type": "uint64"
												},
												{
													"internalType": "address payable",
													"name": "beneficiary",
													"type": "address"
												},
												{
													"internalType": "bool",
													"name": "preferAddToBalance",
													"type": "bool"
												},
												{
													"internalType": "uint48",
													"name": "lockedUntil",
													"type": "uint48"
												},
												{
													"internalType": "contract IJBSplitHook",
													"name": "hook",
													"type": "address"
												}
											],
											"internalType": "struct JBSplit[]",
											"name": "splits",
											"type": "tuple[]"
										}
									],
									"internalType": "struct JBSplitGroup[]",
									"name": "splitGroups",
									"type": "tuple[]"
								},
								{
									"components": [
										{
											"internalType": "address",
											"name": "terminal",
											"type": "address"
										},
										{
											"internalType": "address",
											"name": "token",
											"type": "address"
										},
										{
											"components": [
												{
													"internalType": "uint224",
													"name": "amount",
													"type": "uint224"
												},
												{
													"internalType": "uint32",
													"name": "currency",
													"type": "uint32"
												}
											],
											"internalType": "struct JBCurrencyAmount[]",
											"name": "payoutLimits",
											"type": "tuple[]"
										},
										{
											"components": [
												{
													"internalType": "uint224",
													"name": "amount",
													"type": "uint224"
												},
												{
													"internalType": "uint32",
													"name": "currency",
													"type": "uint32"
												}
											],
											"internalType": "struct JBCurrencyAmount[]",
											"name": "surplusAllowances",
											"type": "tuple[]"
										}
									],
									"internalType": "struct JBFundAccessLimitGroup[]",
									"name": "fundAccessLimitGroups",
									"type": "tuple[]"
								}
							],
							"internalType": "struct JBPayDataHookRulesetConfig[]",
							"name": "rulesetConfigurations",
							"type": "tuple[]"
						},
						{
							"components": [
								{
									"internalType": "contract IJBTerminal",
									"name": "terminal",
									"type": "address"
								},
								{
									"components": [
										{
											"internalType": "address",
											"name": "token",
											"type": "address"
										},
										{
											"internalType": "uint8",
											"name": "decimals",
											"type": "uint8"
										},
										{
											"internalType": "uint32",
											"name": "currency",
											"type": "uint32"
										}
									],
									"internalType": "struct JBAccountingContext[]",
									"name": "accountingContextsToAccept",
									"type": "tuple[]"
								}
							],
							"internalType": "struct JBTerminalConfig[]",
							"name": "terminalConfigurations",
							"type": "tuple[]"
						},
						{
							"internalType": "string",
							"name": "memo",
							"type": "string"
						}
					],
					"internalType": "struct JBLaunchProjectConfig",
					"name": "launchProjectConfig",
					"type": "tuple"
				},
				{
					"internalType": "bytes32",
					"name": "salt",
					"type": "bytes32"
				},
				{
					"components": [
						{
							"components": [
								{
									"internalType": "contract IJBSuckerDeployer",
									"name": "deployer",
									"type": "address"
								},
								{
									"components": [
										{
											"internalType": "address",
											"name": "localToken",
											"type": "address"
										},
										{
											"internalType": "uint32",
											"name": "minGas",
											"type": "uint32"
										},
										{
											"internalType": "address",
											"name": "remoteToken",
											"type": "address"
										},
										{
											"internalType": "uint256",
											"name": "minBridgeAmount",
											"type": "uint256"
										}
									],
									"internalType": "struct JBTokenMapping[]",
									"name": "mappings",
									"type": "tuple[]"
								}
							],
							"internalType": "struct JBSuckerDeployerConfig[]",
							"name": "deployerConfigurations",
							"type": "tuple[]"
						},
						{
							"internalType": "bytes32",
							"name": "salt",
							"type": "bytes32"
						}
					],
					"internalType": "struct REVSuckerDeploymentConfig",
					"name": "suckerDeploymentConfiguration",
					"type": "tuple"
				}
			],
			"name": "launch721ProjectFor",
			"outputs": [
				{
					"internalType": "uint256",
					"name": "projectId",
					"type": "uint256"
				},
				{
					"internalType": "contract IJB721TiersHook",
					"name": "hook",
					"type": "address"
				},
				{
					"internalType": "address[]",
					"name": "suckers",
					"type": "address[]"
				}
			],
			"stateMutability": "nonpayable",
			"type": "function"
		},
		{
			"inputs": [
				{
					"internalType": "uint256",
					"name": "projectId",
					"type": "uint256"
				},
				{
					"components": [
						{
							"internalType": "string",
							"name": "name",
							"type": "string"
						},
						{
							"internalType": "string",
							"name": "symbol",
							"type": "string"
						},
						{
							"internalType": "string",
							"name": "baseUri",
							"type": "string"
						},
						{
							"internalType": "contract IJB721TokenUriResolver",
							"name": "tokenUriResolver",
							"type": "address"
						},
						{
							"internalType": "string",
							"name": "contractUri",
							"type": "string"
						},
						{
							"components": [
								{
									"components": [
										{
											"internalType": "uint104",
											"name": "price",
											"type": "uint104"
										},
										{
											"internalType": "uint32",
											"name": "initialSupply",
											"type": "uint32"
										},
										{
											"internalType": "uint32",
											"name": "votingUnits",
											"type": "uint32"
										},
										{
											"internalType": "uint16",
											"name": "reserveFrequency",
											"type": "uint16"
										},
										{
											"internalType": "address",
											"name": "reserveBeneficiary",
											"type": "address"
										},
										{
											"internalType": "bytes32",
											"name": "encodedIPFSUri",
											"type": "bytes32"
										},
										{
											"internalType": "uint24",
											"name": "category",
											"type": "uint24"
										},
										{
											"internalType": "uint8",
											"name": "discountPercent",
											"type": "uint8"
										},
										{
											"internalType": "bool",
											"name": "allowOwnerMint",
											"type": "bool"
										},
										{
											"internalType": "bool",
											"name": "useReserveBeneficiaryAsDefault",
											"type": "bool"
										},
										{
											"internalType": "bool",
											"name": "transfersPausable",
											"type": "bool"
										},
										{
											"internalType": "bool",
											"name": "useVotingUnits",
											"type": "bool"
										},
										{
											"internalType": "bool",
											"name": "cannotBeRemoved",
											"type": "bool"
										},
										{
											"internalType": "bool",
											"name": "cannotIncreaseDiscountPercent",
											"type": "bool"
										}
									],
									"internalType": "struct JB721TierConfig[]",
									"name": "tiers",
									"type": "tuple[]"
								},
								{
									"internalType": "uint32",
									"name": "currency",
									"type": "uint32"
								},
								{
									"internalType": "uint8",
									"name": "decimals",
									"type": "uint8"
								},
								{
									"internalType": "contract IJBPrices",
									"name": "prices",
									"type": "address"
								}
							],
							"internalType": "struct JB721InitTiersConfig",
							"name": "tiersConfig",
							"type": "tuple"
						},
						{
							"internalType": "address",
							"name": "reserveBeneficiary",
							"type": "address"
						},
						{
							"components": [
								{
									"internalType": "bool",
									"name": "noNewTiersWithReserves",
									"type": "bool"
								},
								{
									"internalType": "bool",
									"name": "noNewTiersWithVotes",
									"type": "bool"
								},
								{
									"internalType": "bool",
									"name": "noNewTiersWithOwnerMinting",
									"type": "bool"
								},
								{
									"internalType": "bool",
									"name": "preventOverspending",
									"type": "bool"
								}
							],
							"internalType": "struct JB721TiersHookFlags",
							"name": "flags",
							"type": "tuple"
						}
					],
					"internalType": "struct JBDeploy721TiersHookConfig",
					"name": "deployTiersHookConfig",
					"type": "tuple"
				},
				{
					"components": [
						{
							"internalType": "uint56",
							"name": "projectId",
							"type": "uint56"
						},
						{
							"components": [
								{
									"internalType": "uint48",
									"name": "mustStartAtOrAfter",
									"type": "uint48"
								},
								{
									"internalType": "uint32",
									"name": "duration",
									"type": "uint32"
								},
								{
									"internalType": "uint112",
									"name": "weight",
									"type": "uint112"
								},
								{
									"internalType": "uint32",
									"name": "weightCutPercent",
									"type": "uint32"
								},
								{
									"internalType": "contract IJBRulesetApprovalHook",
									"name": "approvalHook",
									"type": "address"
								},
								{
									"components": [
										{
											"internalType": "uint16",
											"name": "reservedPercent",
											"type": "uint16"
										},
										{
											"internalType": "uint16",
											"name": "cashOutTaxRate",
											"type": "uint16"
										},
										{
											"internalType": "uint32",
											"name": "baseCurrency",
											"type": "uint32"
										},
										{
											"internalType": "bool",
											"name": "pausePay",
											"type": "bool"
										},
										{
											"internalType": "bool",
											"name": "pauseCreditTransfers",
											"type": "bool"
										},
										{
											"internalType": "bool",
											"name": "allowOwnerMinting",
											"type": "bool"
										},
										{
											"internalType": "bool",
											"name": "allowTerminalMigration",
											"type": "bool"
										},
										{
											"internalType": "bool",
											"name": "allowSetTerminals",
											"type": "bool"
										},
										{
											"internalType": "bool",
											"name": "allowSetController",
											"type": "bool"
										},
										{
											"internalType": "bool",
											"name": "allowAddAccountingContext",
											"type": "bool"
										},
										{
											"internalType": "bool",
											"name": "allowAddPriceFeed",
											"type": "bool"
										},
										{
											"internalType": "bool",
											"name": "ownerMustSendPayouts",
											"type": "bool"
										},
										{
											"internalType": "bool",
											"name": "holdFees",
											"type": "bool"
										},
										{
											"internalType": "bool",
											"name": "useTotalSurplusForCashOuts",
											"type": "bool"
										},
										{
											"internalType": "bool",
											"name": "useDataHookForCashOut",
											"type": "bool"
										},
										{
											"internalType": "uint16",
											"name": "metadata",
											"type": "uint16"
										}
									],
									"internalType": "struct JBPayDataHookRulesetMetadata",
									"name": "metadata",
									"type": "tuple"
								},
								{
									"components": [
										{
											"internalType": "uint256",
											"name": "groupId",
											"type": "uint256"
										},
										{
											"components": [
												{
													"internalType": "uint32",
													"name": "percent",
													"type": "uint32"
												},
												{
													"internalType": "uint64",
													"name": "projectId",
													"type": "uint64"
												},
												{
													"internalType": "address payable",
													"name": "beneficiary",
													"type": "address"
												},
												{
													"internalType": "bool",
													"name": "preferAddToBalance",
													"type": "bool"
												},
												{
													"internalType": "uint48",
													"name": "lockedUntil",
													"type": "uint48"
												},
												{
													"internalType": "contract IJBSplitHook",
													"name": "hook",
													"type": "address"
												}
											],
											"internalType": "struct JBSplit[]",
											"name": "splits",
											"type": "tuple[]"
										}
									],
									"internalType": "struct JBSplitGroup[]",
									"name": "splitGroups",
									"type": "tuple[]"
								},
								{
									"components": [
										{
											"internalType": "address",
											"name": "terminal",
											"type": "address"
										},
										{
											"internalType": "address",
											"name": "token",
											"type": "address"
										},
										{
											"components": [
												{
													"internalType": "uint224",
													"name": "amount",
													"type": "uint224"
												},
												{
													"internalType": "uint32",
													"name": "currency",
													"type": "uint32"
												}
											],
											"internalType": "struct JBCurrencyAmount[]",
											"name": "payoutLimits",
											"type": "tuple[]"
										},
										{
											"components": [
												{
													"internalType": "uint224",
													"name": "amount",
													"type": "uint224"
												},
												{
													"internalType": "uint32",
													"name": "currency",
													"type": "uint32"
												}
											],
											"internalType": "struct JBCurrencyAmount[]",
											"name": "surplusAllowances",
											"type": "tuple[]"
										}
									],
									"internalType": "struct JBFundAccessLimitGroup[]",
									"name": "fundAccessLimitGroups",
									"type": "tuple[]"
								}
							],
							"internalType": "struct JBPayDataHookRulesetConfig[]",
							"name": "rulesetConfigurations",
							"type": "tuple[]"
						},
						{
							"components": [
								{
									"internalType": "contract IJBTerminal",
									"name": "terminal",
									"type": "address"
								},
								{
									"components": [
										{
											"internalType": "address",
											"name": "token",
											"type": "address"
										},
										{
											"internalType": "uint8",
											"name": "decimals",
											"type": "uint8"
										},
										{
											"internalType": "uint32",
											"name": "currency",
											"type": "uint32"
										}
									],
									"internalType": "struct JBAccountingContext[]",
									"name": "accountingContextsToAccept",
									"type": "tuple[]"
								}
							],
							"internalType": "struct JBTerminalConfig[]",
							"name": "terminalConfigurations",
							"type": "tuple[]"
						},
						{
							"internalType": "string",
							"name": "memo",
							"type": "string"
						}
					],
					"internalType": "struct JBLaunchRulesetsConfig",
					"name": "launchRulesetsConfig",
					"type": "tuple"
				},
				{
					"internalType": "contract IJBController",
					"name": "controller",
					"type": "address"
				},
				{
					"internalType": "bytes32",
					"name": "salt",
					"type": "bytes32"
				}
			],
			"name": "launch721RulesetsFor",
			"outputs": [
				{
					"internalType": "uint256",
					"name": "rulesetId",
					"type": "uint256"
				},
				{
					"internalType": "contract IJB721TiersHook",
					"name": "hook",
					"type": "address"
				}
			],
			"stateMutability": "nonpayable",
			"type": "function"
		},
		{
			"inputs": [
				{
					"internalType": "address",
					"name": "owner",
					"type": "address"
				},
				{
					"internalType": "string",
					"name": "projectUri",
					"type": "string"
				},
				{
					"components": [
						{
							"internalType": "uint48",
							"name": "mustStartAtOrAfter",
							"type": "uint48"
						},
						{
							"internalType": "uint32",
							"name": "duration",
							"type": "uint32"
						},
						{
							"internalType": "uint112",
							"name": "weight",
							"type": "uint112"
						},
						{
							"internalType": "uint32",
							"name": "weightCutPercent",
							"type": "uint32"
						},
						{
							"internalType": "contract IJBRulesetApprovalHook",
							"name": "approvalHook",
							"type": "address"
						},
						{
							"components": [
								{
									"internalType": "uint16",
									"name": "reservedPercent",
									"type": "uint16"
								},
								{
									"internalType": "uint16",
									"name": "cashOutTaxRate",
									"type": "uint16"
								},
								{
									"internalType": "uint32",
									"name": "baseCurrency",
									"type": "uint32"
								},
								{
									"internalType": "bool",
									"name": "pausePay",
									"type": "bool"
								},
								{
									"internalType": "bool",
									"name": "pauseCreditTransfers",
									"type": "bool"
								},
								{
									"internalType": "bool",
									"name": "allowOwnerMinting",
									"type": "bool"
								},
								{
									"internalType": "bool",
									"name": "allowSetCustomToken",
									"type": "bool"
								},
								{
									"internalType": "bool",
									"name": "allowTerminalMigration",
									"type": "bool"
								},
								{
									"internalType": "bool",
									"name": "allowSetTerminals",
									"type": "bool"
								},
								{
									"internalType": "bool",
									"name": "allowSetController",
									"type": "bool"
								},
								{
									"internalType": "bool",
									"name": "allowAddAccountingContext",
									"type": "bool"
								},
								{
									"internalType": "bool",
									"name": "allowAddPriceFeed",
									"type": "bool"
								},
								{
									"internalType": "bool",
									"name": "ownerMustSendPayouts",
									"type": "bool"
								},
								{
									"internalType": "bool",
									"name": "holdFees",
									"type": "bool"
								},
								{
									"internalType": "bool",
									"name": "useTotalSurplusForCashOuts",
									"type": "bool"
								},
								{
									"internalType": "bool",
									"name": "useDataHookForPay",
									"type": "bool"
								},
								{
									"internalType": "bool",
									"name": "useDataHookForCashOut",
									"type": "bool"
								},
								{
									"internalType": "address",
									"name": "dataHook",
									"type": "address"
								},
								{
									"internalType": "uint16",
									"name": "metadata",
									"type": "uint16"
								}
							],
							"internalType": "struct JBRulesetMetadata",
							"name": "metadata",
							"type": "tuple"
						},
						{
							"components": [
								{
									"internalType": "uint256",
									"name": "groupId",
									"type": "uint256"
								},
								{
									"components": [
										{
											"internalType": "uint32",
											"name": "percent",
											"type": "uint32"
										},
										{
											"internalType": "uint64",
											"name": "projectId",
											"type": "uint64"
										},
										{
											"internalType": "address payable",
											"name": "beneficiary",
											"type": "address"
										},
										{
											"internalType": "bool",
											"name": "preferAddToBalance",
											"type": "bool"
										},
										{
											"internalType": "uint48",
											"name": "lockedUntil",
											"type": "uint48"
										},
										{
											"internalType": "contract IJBSplitHook",
											"name": "hook",
											"type": "address"
										}
									],
									"internalType": "struct JBSplit[]",
									"name": "splits",
									"type": "tuple[]"
								}
							],
							"internalType": "struct JBSplitGroup[]",
							"name": "splitGroups",
							"type": "tuple[]"
						},
						{
							"components": [
								{
									"internalType": "address",
									"name": "terminal",
									"type": "address"
								},
								{
									"internalType": "address",
									"name": "token",
									"type": "address"
								},
								{
									"components": [
										{
											"internalType": "uint224",
											"name": "amount",
											"type": "uint224"
										},
										{
											"internalType": "uint32",
											"name": "currency",
											"type": "uint32"
										}
									],
									"internalType": "struct JBCurrencyAmount[]",
									"name": "payoutLimits",
									"type": "tuple[]"
								},
								{
									"components": [
										{
											"internalType": "uint224",
											"name": "amount",
											"type": "uint224"
										},
										{
											"internalType": "uint32",
											"name": "currency",
											"type": "uint32"
										}
									],
									"internalType": "struct JBCurrencyAmount[]",
									"name": "surplusAllowances",
									"type": "tuple[]"
								}
							],
							"internalType": "struct JBFundAccessLimitGroup[]",
							"name": "fundAccessLimitGroups",
							"type": "tuple[]"
						}
					],
					"internalType": "struct JBRulesetConfig[]",
					"name": "rulesetConfigurations",
					"type": "tuple[]"
				},
				{
					"components": [
						{
							"internalType": "contract IJBTerminal",
							"name": "terminal",
							"type": "address"
						},
						{
							"components": [
								{
									"internalType": "address",
									"name": "token",
									"type": "address"
								},
								{
									"internalType": "uint8",
									"name": "decimals",
									"type": "uint8"
								},
								{
									"internalType": "uint32",
									"name": "currency",
									"type": "uint32"
								}
							],
							"internalType": "struct JBAccountingContext[]",
							"name": "accountingContextsToAccept",
							"type": "tuple[]"
						}
					],
					"internalType": "struct JBTerminalConfig[]",
					"name": "terminalConfigurations",
					"type": "tuple[]"
				},
				{
					"internalType": "string",
					"name": "memo",
					"type": "string"
				},
				{
					"components": [
						{
							"components": [
								{
									"internalType": "contract IJBSuckerDeployer",
									"name": "deployer",
									"type": "address"
								},
								{
									"components": [
										{
											"internalType": "address",
											"name": "localToken",
											"type": "address"
										},
										{
											"internalType": "uint32",
											"name": "minGas",
											"type": "uint32"
										},
										{
											"internalType": "address",
											"name": "remoteToken",
											"type": "address"
										},
										{
											"internalType": "uint256",
											"name": "minBridgeAmount",
											"type": "uint256"
										}
									],
									"internalType": "struct JBTokenMapping[]",
									"name": "mappings",
									"type": "tuple[]"
								}
							],
							"internalType": "struct JBSuckerDeployerConfig[]",
							"name": "deployerConfigurations",
							"type": "tuple[]"
						},
						{
							"internalType": "bytes32",
							"name": "salt",
							"type": "bytes32"
						}
					],
					"internalType": "struct REVSuckerDeploymentConfig",
					"name": "suckerDeploymentConfiguration",
					"type": "tuple"
				}
			],
			"name": "launchProjectFor",
			"outputs": [
				{
					"internalType": "uint256",
					"name": "projectId",
					"type": "uint256"
				},
				{
					"internalType": "address[]",
					"name": "suckers",
					"type": "address[]"
				}
			],
			"stateMutability": "nonpayable",
			"type": "function"
		},
		{
			"inputs": [
				{
					"internalType": "uint256",
					"name": "projectId",
					"type": "uint256"
				},
				{
					"components": [
						{
							"internalType": "uint48",
							"name": "mustStartAtOrAfter",
							"type": "uint48"
						},
						{
							"internalType": "uint32",
							"name": "duration",
							"type": "uint32"
						},
						{
							"internalType": "uint112",
							"name": "weight",
							"type": "uint112"
						},
						{
							"internalType": "uint32",
							"name": "weightCutPercent",
							"type": "uint32"
						},
						{
							"internalType": "contract IJBRulesetApprovalHook",
							"name": "approvalHook",
							"type": "address"
						},
						{
							"components": [
								{
									"internalType": "uint16",
									"name": "reservedPercent",
									"type": "uint16"
								},
								{
									"internalType": "uint16",
									"name": "cashOutTaxRate",
									"type": "uint16"
								},
								{
									"internalType": "uint32",
									"name": "baseCurrency",
									"type": "uint32"
								},
								{
									"internalType": "bool",
									"name": "pausePay",
									"type": "bool"
								},
								{
									"internalType": "bool",
									"name": "pauseCreditTransfers",
									"type": "bool"
								},
								{
									"internalType": "bool",
									"name": "allowOwnerMinting",
									"type": "bool"
								},
								{
									"internalType": "bool",
									"name": "allowSetCustomToken",
									"type": "bool"
								},
								{
									"internalType": "bool",
									"name": "allowTerminalMigration",
									"type": "bool"
								},
								{
									"internalType": "bool",
									"name": "allowSetTerminals",
									"type": "bool"
								},
								{
									"internalType": "bool",
									"name": "allowSetController",
									"type": "bool"
								},
								{
									"internalType": "bool",
									"name": "allowAddAccountingContext",
									"type": "bool"
								},
								{
									"internalType": "bool",
									"name": "allowAddPriceFeed",
									"type": "bool"
								},
								{
									"internalType": "bool",
									"name": "ownerMustSendPayouts",
									"type": "bool"
								},
								{
									"internalType": "bool",
									"name": "holdFees",
									"type": "bool"
								},
								{
									"internalType": "bool",
									"name": "useTotalSurplusForCashOuts",
									"type": "bool"
								},
								{
									"internalType": "bool",
									"name": "useDataHookForPay",
									"type": "bool"
								},
								{
									"internalType": "bool",
									"name": "useDataHookForCashOut",
									"type": "bool"
								},
								{
									"internalType": "address",
									"name": "dataHook",
									"type": "address"
								},
								{
									"internalType": "uint16",
									"name": "metadata",
									"type": "uint16"
								}
							],
							"internalType": "struct JBRulesetMetadata",
							"name": "metadata",
							"type": "tuple"
						},
						{
							"components": [
								{
									"internalType": "uint256",
									"name": "groupId",
									"type": "uint256"
								},
								{
									"components": [
										{
											"internalType": "uint32",
											"name": "percent",
											"type": "uint32"
										},
										{
											"internalType": "uint64",
											"name": "projectId",
											"type": "uint64"
										},
										{
											"internalType": "address payable",
											"name": "beneficiary",
											"type": "address"
										},
										{
											"internalType": "bool",
											"name": "preferAddToBalance",
											"type": "bool"
										},
										{
											"internalType": "uint48",
											"name": "lockedUntil",
											"type": "uint48"
										},
										{
											"internalType": "contract IJBSplitHook",
											"name": "hook",
											"type": "address"
										}
									],
									"internalType": "struct JBSplit[]",
									"name": "splits",
									"type": "tuple[]"
								}
							],
							"internalType": "struct JBSplitGroup[]",
							"name": "splitGroups",
							"type": "tuple[]"
						},
						{
							"components": [
								{
									"internalType": "address",
									"name": "terminal",
									"type": "address"
								},
								{
									"internalType": "address",
									"name": "token",
									"type": "address"
								},
								{
									"components": [
										{
											"internalType": "uint224",
											"name": "amount",
											"type": "uint224"
										},
										{
											"internalType": "uint32",
											"name": "currency",
											"type": "uint32"
										}
									],
									"internalType": "struct JBCurrencyAmount[]",
									"name": "payoutLimits",
									"type": "tuple[]"
								},
								{
									"components": [
										{
											"internalType": "uint224",
											"name": "amount",
											"type": "uint224"
										},
										{
											"internalType": "uint32",
											"name": "currency",
											"type": "uint32"
										}
									],
									"internalType": "struct JBCurrencyAmount[]",
									"name": "surplusAllowances",
									"type": "tuple[]"
								}
							],
							"internalType": "struct JBFundAccessLimitGroup[]",
							"name": "fundAccessLimitGroups",
							"type": "tuple[]"
						}
					],
					"internalType": "struct JBRulesetConfig[]",
					"name": "rulesetConfigurations",
					"type": "tuple[]"
				},
				{
					"components": [
						{
							"internalType": "contract IJBTerminal",
							"name": "terminal",
							"type": "address"
						},
						{
							"components": [
								{
									"internalType": "address",
									"name": "token",
									"type": "address"
								},
								{
									"internalType": "uint8",
									"name": "decimals",
									"type": "uint8"
								},
								{
									"internalType": "uint32",
									"name": "currency",
									"type": "uint32"
								}
							],
							"internalType": "struct JBAccountingContext[]",
							"name": "accountingContextsToAccept",
							"type": "tuple[]"
						}
					],
					"internalType": "struct JBTerminalConfig[]",
					"name": "terminalConfigurations",
					"type": "tuple[]"
				},
				{
					"internalType": "string",
					"name": "memo",
					"type": "string"
				}
			],
			"name": "launchRulesetsFor",
			"outputs": [
				{
					"internalType": "uint256",
					"name": "",
					"type": "uint256"
				}
			],
			"stateMutability": "nonpayable",
			"type": "function"
		},
		{
			"inputs": [
				{
					"internalType": "address",
					"name": "",
					"type": "address"
				},
				{
					"internalType": "address",
					"name": "",
					"type": "address"
				},
				{
					"internalType": "uint256",
					"name": "",
					"type": "uint256"
				},
				{
					"internalType": "bytes",
					"name": "",
					"type": "bytes"
				}
			],
			"name": "onERC721Received",
			"outputs": [
				{
					"internalType": "bytes4",
					"name": "",
					"type": "bytes4"
				}
			],
			"stateMutability": "view",
			"type": "function"
		},
		{
			"inputs": [
				{
					"internalType": "uint256",
					"name": "projectId",
					"type": "uint256"
				},
				{
					"components": [
						{
							"internalType": "string",
							"name": "name",
							"type": "string"
						},
						{
							"internalType": "string",
							"name": "symbol",
							"type": "string"
						},
						{
							"internalType": "string",
							"name": "baseUri",
							"type": "string"
						},
						{
							"internalType": "contract IJB721TokenUriResolver",
							"name": "tokenUriResolver",
							"type": "address"
						},
						{
							"internalType": "string",
							"name": "contractUri",
							"type": "string"
						},
						{
							"components": [
								{
									"components": [
										{
											"internalType": "uint104",
											"name": "price",
											"type": "uint104"
										},
										{
											"internalType": "uint32",
											"name": "initialSupply",
											"type": "uint32"
										},
										{
											"internalType": "uint32",
											"name": "votingUnits",
											"type": "uint32"
										},
										{
											"internalType": "uint16",
											"name": "reserveFrequency",
											"type": "uint16"
										},
										{
											"internalType": "address",
											"name": "reserveBeneficiary",
											"type": "address"
										},
										{
											"internalType": "bytes32",
											"name": "encodedIPFSUri",
											"type": "bytes32"
										},
										{
											"internalType": "uint24",
											"name": "category",
											"type": "uint24"
										},
										{
											"internalType": "uint8",
											"name": "discountPercent",
											"type": "uint8"
										},
										{
											"internalType": "bool",
											"name": "allowOwnerMint",
											"type": "bool"
										},
										{
											"internalType": "bool",
											"name": "useReserveBeneficiaryAsDefault",
											"type": "bool"
										},
										{
											"internalType": "bool",
											"name": "transfersPausable",
											"type": "bool"
										},
										{
											"internalType": "bool",
											"name": "useVotingUnits",
											"type": "bool"
										},
										{
											"internalType": "bool",
											"name": "cannotBeRemoved",
											"type": "bool"
										},
										{
											"internalType": "bool",
											"name": "cannotIncreaseDiscountPercent",
											"type": "bool"
										}
									],
									"internalType": "struct JB721TierConfig[]",
									"name": "tiers",
									"type": "tuple[]"
								},
								{
									"internalType": "uint32",
									"name": "currency",
									"type": "uint32"
								},
								{
									"internalType": "uint8",
									"name": "decimals",
									"type": "uint8"
								},
								{
									"internalType": "contract IJBPrices",
									"name": "prices",
									"type": "address"
								}
							],
							"internalType": "struct JB721InitTiersConfig",
							"name": "tiersConfig",
							"type": "tuple"
						},
						{
							"internalType": "address",
							"name": "reserveBeneficiary",
							"type": "address"
						},
						{
							"components": [
								{
									"internalType": "bool",
									"name": "noNewTiersWithReserves",
									"type": "bool"
								},
								{
									"internalType": "bool",
									"name": "noNewTiersWithVotes",
									"type": "bool"
								},
								{
									"internalType": "bool",
									"name": "noNewTiersWithOwnerMinting",
									"type": "bool"
								},
								{
									"internalType": "bool",
									"name": "preventOverspending",
									"type": "bool"
								}
							],
							"internalType": "struct JB721TiersHookFlags",
							"name": "flags",
							"type": "tuple"
						}
					],
					"internalType": "struct JBDeploy721TiersHookConfig",
					"name": "deployTiersHookConfig",
					"type": "tuple"
				},
				{
					"components": [
						{
							"internalType": "uint56",
							"name": "projectId",
							"type": "uint56"
						},
						{
							"components": [
								{
									"internalType": "uint48",
									"name": "mustStartAtOrAfter",
									"type": "uint48"
								},
								{
									"internalType": "uint32",
									"name": "duration",
									"type": "uint32"
								},
								{
									"internalType": "uint112",
									"name": "weight",
									"type": "uint112"
								},
								{
									"internalType": "uint32",
									"name": "weightCutPercent",
									"type": "uint32"
								},
								{
									"internalType": "contract IJBRulesetApprovalHook",
									"name": "approvalHook",
									"type": "address"
								},
								{
									"components": [
										{
											"internalType": "uint16",
											"name": "reservedPercent",
											"type": "uint16"
										},
										{
											"internalType": "uint16",
											"name": "cashOutTaxRate",
											"type": "uint16"
										},
										{
											"internalType": "uint32",
											"name": "baseCurrency",
											"type": "uint32"
										},
										{
											"internalType": "bool",
											"name": "pausePay",
											"type": "bool"
										},
										{
											"internalType": "bool",
											"name": "pauseCreditTransfers",
											"type": "bool"
										},
										{
											"internalType": "bool",
											"name": "allowOwnerMinting",
											"type": "bool"
										},
										{
											"internalType": "bool",
											"name": "allowTerminalMigration",
											"type": "bool"
										},
										{
											"internalType": "bool",
											"name": "allowSetTerminals",
											"type": "bool"
										},
										{
											"internalType": "bool",
											"name": "allowSetController",
											"type": "bool"
										},
										{
											"internalType": "bool",
											"name": "allowAddAccountingContext",
											"type": "bool"
										},
										{
											"internalType": "bool",
											"name": "allowAddPriceFeed",
											"type": "bool"
										},
										{
											"internalType": "bool",
											"name": "ownerMustSendPayouts",
											"type": "bool"
										},
										{
											"internalType": "bool",
											"name": "holdFees",
											"type": "bool"
										},
										{
											"internalType": "bool",
											"name": "useTotalSurplusForCashOuts",
											"type": "bool"
										},
										{
											"internalType": "bool",
											"name": "useDataHookForCashOut",
											"type": "bool"
										},
										{
											"internalType": "uint16",
											"name": "metadata",
											"type": "uint16"
										}
									],
									"internalType": "struct JBPayDataHookRulesetMetadata",
									"name": "metadata",
									"type": "tuple"
								},
								{
									"components": [
										{
											"internalType": "uint256",
											"name": "groupId",
											"type": "uint256"
										},
										{
											"components": [
												{
													"internalType": "uint32",
													"name": "percent",
													"type": "uint32"
												},
												{
													"internalType": "uint64",
													"name": "projectId",
													"type": "uint64"
												},
												{
													"internalType": "address payable",
													"name": "beneficiary",
													"type": "address"
												},
												{
													"internalType": "bool",
													"name": "preferAddToBalance",
													"type": "bool"
												},
												{
													"internalType": "uint48",
													"name": "lockedUntil",
													"type": "uint48"
												},
												{
													"internalType": "contract IJBSplitHook",
													"name": "hook",
													"type": "address"
												}
											],
											"internalType": "struct JBSplit[]",
											"name": "splits",
											"type": "tuple[]"
										}
									],
									"internalType": "struct JBSplitGroup[]",
									"name": "splitGroups",
									"type": "tuple[]"
								},
								{
									"components": [
										{
											"internalType": "address",
											"name": "terminal",
											"type": "address"
										},
										{
											"internalType": "address",
											"name": "token",
											"type": "address"
										},
										{
											"components": [
												{
													"internalType": "uint224",
													"name": "amount",
													"type": "uint224"
												},
												{
													"internalType": "uint32",
													"name": "currency",
													"type": "uint32"
												}
											],
											"internalType": "struct JBCurrencyAmount[]",
											"name": "payoutLimits",
											"type": "tuple[]"
										},
										{
											"components": [
												{
													"internalType": "uint224",
													"name": "amount",
													"type": "uint224"
												},
												{
													"internalType": "uint32",
													"name": "currency",
													"type": "uint32"
												}
											],
											"internalType": "struct JBCurrencyAmount[]",
											"name": "surplusAllowances",
											"type": "tuple[]"
										}
									],
									"internalType": "struct JBFundAccessLimitGroup[]",
									"name": "fundAccessLimitGroups",
									"type": "tuple[]"
								}
							],
							"internalType": "struct JBPayDataHookRulesetConfig[]",
							"name": "rulesetConfigurations",
							"type": "tuple[]"
						},
						{
							"internalType": "string",
							"name": "memo",
							"type": "string"
						}
					],
					"internalType": "struct JBQueueRulesetsConfig",
					"name": "queueRulesetsConfig",
					"type": "tuple"
				},
				{
					"internalType": "contract IJBController",
					"name": "controller",
					"type": "address"
				},
				{
					"internalType": "bytes32",
					"name": "salt",
					"type": "bytes32"
				}
			],
			"name": "queue721RulesetsOf",
			"outputs": [
				{
					"internalType": "uint256",
					"name": "rulesetId",
					"type": "uint256"
				},
				{
					"internalType": "contract IJB721TiersHook",
					"name": "hook",
					"type": "address"
				}
			],
			"stateMutability": "nonpayable",
			"type": "function"
		},
		{
			"inputs": [
				{
					"internalType": "uint256",
					"name": "projectId",
					"type": "uint256"
				},
				{
					"components": [
						{
							"internalType": "uint48",
							"name": "mustStartAtOrAfter",
							"type": "uint48"
						},
						{
							"internalType": "uint32",
							"name": "duration",
							"type": "uint32"
						},
						{
							"internalType": "uint112",
							"name": "weight",
							"type": "uint112"
						},
						{
							"internalType": "uint32",
							"name": "weightCutPercent",
							"type": "uint32"
						},
						{
							"internalType": "contract IJBRulesetApprovalHook",
							"name": "approvalHook",
							"type": "address"
						},
						{
							"components": [
								{
									"internalType": "uint16",
									"name": "reservedPercent",
									"type": "uint16"
								},
								{
									"internalType": "uint16",
									"name": "cashOutTaxRate",
									"type": "uint16"
								},
								{
									"internalType": "uint32",
									"name": "baseCurrency",
									"type": "uint32"
								},
								{
									"internalType": "bool",
									"name": "pausePay",
									"type": "bool"
								},
								{
									"internalType": "bool",
									"name": "pauseCreditTransfers",
									"type": "bool"
								},
								{
									"internalType": "bool",
									"name": "allowOwnerMinting",
									"type": "bool"
								},
								{
									"internalType": "bool",
									"name": "allowSetCustomToken",
									"type": "bool"
								},
								{
									"internalType": "bool",
									"name": "allowTerminalMigration",
									"type": "bool"
								},
								{
									"internalType": "bool",
									"name": "allowSetTerminals",
									"type": "bool"
								},
								{
									"internalType": "bool",
									"name": "allowSetController",
									"type": "bool"
								},
								{
									"internalType": "bool",
									"name": "allowAddAccountingContext",
									"type": "bool"
								},
								{
									"internalType": "bool",
									"name": "allowAddPriceFeed",
									"type": "bool"
								},
								{
									"internalType": "bool",
									"name": "ownerMustSendPayouts",
									"type": "bool"
								},
								{
									"internalType": "bool",
									"name": "holdFees",
									"type": "bool"
								},
								{
									"internalType": "bool",
									"name": "useTotalSurplusForCashOuts",
									"type": "bool"
								},
								{
									"internalType": "bool",
									"name": "useDataHookForPay",
									"type": "bool"
								},
								{
									"internalType": "bool",
									"name": "useDataHookForCashOut",
									"type": "bool"
								},
								{
									"internalType": "address",
									"name": "dataHook",
									"type": "address"
								},
								{
									"internalType": "uint16",
									"name": "metadata",
									"type": "uint16"
								}
							],
							"internalType": "struct JBRulesetMetadata",
							"name": "metadata",
							"type": "tuple"
						},
						{
							"components": [
								{
									"internalType": "uint256",
									"name": "groupId",
									"type": "uint256"
								},
								{
									"components": [
										{
											"internalType": "uint32",
											"name": "percent",
											"type": "uint32"
										},
										{
											"internalType": "uint64",
											"name": "projectId",
											"type": "uint64"
										},
										{
											"internalType": "address payable",
											"name": "beneficiary",
											"type": "address"
										},
										{
											"internalType": "bool",
											"name": "preferAddToBalance",
											"type": "bool"
										},
										{
											"internalType": "uint48",
											"name": "lockedUntil",
											"type": "uint48"
										},
										{
											"internalType": "contract IJBSplitHook",
											"name": "hook",
											"type": "address"
										}
									],
									"internalType": "struct JBSplit[]",
									"name": "splits",
									"type": "tuple[]"
								}
							],
							"internalType": "struct JBSplitGroup[]",
							"name": "splitGroups",
							"type": "tuple[]"
						},
						{
							"components": [
								{
									"internalType": "address",
									"name": "terminal",
									"type": "address"
								},
								{
									"internalType": "address",
									"name": "token",
									"type": "address"
								},
								{
									"components": [
										{
											"internalType": "uint224",
											"name": "amount",
											"type": "uint224"
										},
										{
											"internalType": "uint32",
											"name": "currency",
											"type": "uint32"
										}
									],
									"internalType": "struct JBCurrencyAmount[]",
									"name": "payoutLimits",
									"type": "tuple[]"
								},
								{
									"components": [
										{
											"internalType": "uint224",
											"name": "amount",
											"type": "uint224"
										},
										{
											"internalType": "uint32",
											"name": "currency",
											"type": "uint32"
										}
									],
									"internalType": "struct JBCurrencyAmount[]",
									"name": "surplusAllowances",
									"type": "tuple[]"
								}
							],
							"internalType": "struct JBFundAccessLimitGroup[]",
							"name": "fundAccessLimitGroups",
							"type": "tuple[]"
						}
					],
					"internalType": "struct JBRulesetConfig[]",
					"name": "rulesetConfigurations",
					"type": "tuple[]"
				},
				{
					"internalType": "string",
					"name": "memo",
					"type": "string"
				}
			],
			"name": "queueRulesetsOf",
			"outputs": [
				{
					"internalType": "uint256",
					"name": "",
					"type": "uint256"
				}
			],
			"stateMutability": "nonpayable",
			"type": "function"
		},
		{
			"inputs": [
				{
					"internalType": "bytes4",
					"name": "interfaceId",
					"type": "bytes4"
				}
			],
			"name": "supportsInterface",
			"outputs": [
				{
					"internalType": "bool",
					"name": "",
					"type": "bool"
				}
			],
			"stateMutability": "view",
			"type": "function"
		},
		{
			"inputs": [],
			"name": "trustedForwarder",
			"outputs": [
				{
					"internalType": "address",
					"name": "",
					"type": "address"
				}
			],
			"stateMutability": "view",
			"type": "function"
		},
		{
			"inputs": [
				{
					"internalType": "address",
					"name": "account",
					"type": "address"
				},
				{
					"internalType": "address",
					"name": "sender",
					"type": "address"
				},
				{
					"internalType": "uint256",
					"name": "projectId",
					"type": "uint256"
				},
				{
					"internalType": "uint256",
					"name": "permissionId",
					"type": "uint256"
				}
			],
			"name": "JBPermissioned_Unauthorized",
			"type": "error"
		}
	],
	"args": [],
	"solcInputHash": "229426fd409f3434410cc17e580bbc42",
	"bytecode": "0x61014060405234801562000011575f80fd5b5060405162005d5c38038062005d5c833981016040819052620000349162000231565b836001600160a01b031663f434c9146040518163ffffffff1660e01b8152600401602060405180830381865afa15801562000071573d5f803e3d5ffd5b505050506040513d601f19601f8201168201806040525081019062000097919062000296565b6001600160a01b0380831660805290811660a052841660c08190526040805163293c499960e01b8152905163293c4999916004808201926020929091908290030181865afa158015620000ec573d5f803e3d5ffd5b505050506040513d601f19601f8201168201806040525081019062000112919062000296565b6001600160a01b0390811660e052838116610120528216610100526040805160018082528183019092525f9160208281019080368337019050509050601c815f81518110620001655762000165620002bb565b602002602001019060ff16908160ff16815250505f6040518060600160405280610120516001600160a01b031681526020015f6001600160401b0316815260200183815250905060a0516001600160a01b031663449f24a430836040518363ffffffff1660e01b8152600401620001de929190620002cf565b5f604051808303815f87803b158015620001f6575f80fd5b505af115801562000209573d5f803e3d5ffd5b505050505050505050506200035a565b6001600160a01b03811681146200022e575f80fd5b50565b5f805f806080858703121562000245575f80fd5b8451620002528162000219565b6020860151909450620002658162000219565b6040860151909350620002788162000219565b60608601519092506200028b8162000219565b939692955090935050565b5f60208284031215620002a7575f80fd5b8151620002b48162000219565b9392505050565b634e487b7160e01b5f52603260045260245ffd5b6001600160a01b03838116825260406020808401829052845190921681840152838201516001600160401b0316606080850191909152908401516080840191909152805160a084018190525f929182019190839060c08601905b808310156200034e57845160ff16825293830193600192909201919083019062000329565b50979650505050505050565b60805160a05160c05160e05161010051610120516158f6620004665f395f818161041c01528181610db901528181610ff80152818161171f01528181611b630152611d6e01525f81816103f5015281816106930152818161136d015261191201525f8181610215015281816105dc01528181610840015281816108de01528181610a4f01528181610af301528181610c3a01528181610f4501528181611244015281816112d0015281816116ac015281816118630152611cef01525f81816104850152818161096601528181610b9001528181610d1c015281816110a10152611a1d01525f81816104ac015261203e01525f81816102a001528181610326015261289501526158f65ff3fe608060405234801561000f575f80fd5b5060043610610163575f3560e01c80637da0a877116100c7578063b78edb661161007d578063ee0fc12111610063578063ee0fc12114610480578063f434c914146104a7578063fb82b1b0146104ce575f80fd5b8063b78edb661461043e578063beecbcbb1461045e575f80fd5b806393547ad8116100ad57806393547ad81461036b578063abf8c5c8146103f0578063b5d2553314610417575f80fd5b80637da0a877146103245780638cc358461461034a575f80fd5b806339284f351161011c57806365f4aad01161010257806365f4aad0146102dd578063677ce088146102fe5780637034775514610311575f80fd5b806339284f351461027d578063572b6c0514610290575f80fd5b8063150b7a021161014c578063150b7a02146101cc578063293c4999146102105780633141db701461025c575f80fd5b806301ffc9a7146101675780631258fa901461018f575b5f80fd5b61017a6101753660046128f9565b6104f1565b60405190151581526020015b60405180910390f35b6101a261019d366004612f7b565b6105d5565b6040805192835273ffffffffffffffffffffffffffffffffffffffff909116602083015201610186565b6101df6101da366004613046565b610827565b6040517fffffffff000000000000000000000000000000000000000000000000000000009091168152602001610186565b6102377f000000000000000000000000000000000000000000000000000000000000000081565b60405173ffffffffffffffffffffffffffffffffffffffff9091168152602001610186565b61026f61026a3660046130f5565b610894565b604051908152602001610186565b61026f61028b366004613158565b610a05565b61017a61029e3660046131f4565b7f000000000000000000000000000000000000000000000000000000000000000073ffffffffffffffffffffffffffffffffffffffff90811691161490565b6102f06102eb366004613857565b610c35565b60405161018692919061398e565b61017a61030c3660046139ae565b610faa565b6101a261031f3660046139ec565b61123d565b7f0000000000000000000000000000000000000000000000000000000000000000610237565b61035d610358366004613a5d565b611537565b604051610186929190613b00565b6103bd610379366004613bba565b5f60208181529281526040808220909352908152205460ff8082169161010081049091169062010000900473ffffffffffffffffffffffffffffffffffffffff1683565b604080519315158452911515602084015273ffffffffffffffffffffffffffffffffffffffff1690820152606001610186565b6102377f000000000000000000000000000000000000000000000000000000000000000081565b6102377f000000000000000000000000000000000000000000000000000000000000000081565b61045161044c366004613bda565b611661565b6040516101869190613c1e565b61047161046c366004613c30565b61185d565b60405161018693929190613cd6565b6102377f000000000000000000000000000000000000000000000000000000000000000081565b6102377f000000000000000000000000000000000000000000000000000000000000000081565b6104e16104dc366004613d0a565b611d52565b6040516101869493929190613d42565b5f7fffffffff0000000000000000000000000000000000000000000000000000000082167f527d026600000000000000000000000000000000000000000000000000000000148061058357507fffffffff0000000000000000000000000000000000000000000000000000000082167f103d097e00000000000000000000000000000000000000000000000000000000145b806105cf57507fffffffff0000000000000000000000000000000000000000000000000000000082167f150b7a0200000000000000000000000000000000000000000000000000000000145b92915050565b5f8061067c7f000000000000000000000000000000000000000000000000000000000000000073ffffffffffffffffffffffffffffffffffffffff16636352211e896040518263ffffffff1660e01b815260040161063591815260200190565b602060405180830381865afa158015610650573d5f803e3d5ffd5b505050506040513d601f19601f820116820180604052508101906106749190613e16565b886002611f93565b73ffffffffffffffffffffffffffffffffffffffff7f00000000000000000000000000000000000000000000000000000000000000001663ea74b8af8888861561070c576106c8612118565b6040805173ffffffffffffffffffffffffffffffffffffffff909216602083015281018890526060016040516020818303038152906040528051906020012061070e565b5f5b6040518463ffffffff1660e01b815260040161072c93929190613f85565b6020604051808303815f875af1158015610748573d5f803e3d5ffd5b505050506040513d601f19601f8201168201806040525081019061076c9190613e16565b90505f61078e8861078961078360208a018a6140da565b86612126565b612661565b905073ffffffffffffffffffffffffffffffffffffffff8516633141db7089836107bb60408b018b61413e565b6040518563ffffffff1660e01b81526004016107da949392919061466a565b6020604051808303815f875af11580156107f6573d5f803e3d5ffd5b505050506040513d601f19601f8201168201806040525081019061081a91906146a0565b9250509550959350505050565b5f3373ffffffffffffffffffffffffffffffffffffffff7f00000000000000000000000000000000000000000000000000000000000000001614610869575f80fd5b507f150b7a020000000000000000000000000000000000000000000000000000000095945050505050565b6040517f6352211e000000000000000000000000000000000000000000000000000000008152600481018690525f9061094f9073ffffffffffffffffffffffffffffffffffffffff7f00000000000000000000000000000000000000000000000000000000000000001690636352211e90602401602060405180830381865afa158015610923573d5f803e3d5ffd5b505050506040513d601f19601f820116820180604052508101906109479190613e16565b876002611f93565b73ffffffffffffffffffffffffffffffffffffffff7f000000000000000000000000000000000000000000000000000000000000000016633141db708761099a81610789898b6146b7565b86866040518563ffffffff1660e01b81526004016109bb949392919061466a565b6020604051808303815f875af11580156109d7573d5f803e3d5ffd5b505050506040513d601f19601f820116820180604052508101906109fb91906146a0565b9695505050505050565b6040517f6352211e000000000000000000000000000000000000000000000000000000008152600481018890525f90610ac09073ffffffffffffffffffffffffffffffffffffffff7f00000000000000000000000000000000000000000000000000000000000000001690636352211e90602401602060405180830381865afa158015610a94573d5f803e3d5ffd5b505050506040513d601f19601f82011682018060405250810190610ab89190613e16565b896002611f93565b6040517f6352211e00000000000000000000000000000000000000000000000000000000815260048101899052610b79907f000000000000000000000000000000000000000000000000000000000000000073ffffffffffffffffffffffffffffffffffffffff1690636352211e90602401602060405180830381865afa158015610b4d573d5f803e3d5ffd5b505050506040513d601f19601f82011682018060405250810190610b719190613e16565b89600e611f93565b73ffffffffffffffffffffffffffffffffffffffff7f0000000000000000000000000000000000000000000000000000000000000000166339284f3589610bc4816107898b8d6146b7565b888888886040518763ffffffff1660e01b8152600401610be99695949392919061485a565b6020604051808303815f875af1158015610c05573d5f803e3d5ffd5b505050506040513d601f19601f82011682018060405250810190610c2991906146a0565b98975050505050505050565b5f60607f000000000000000000000000000000000000000000000000000000000000000073ffffffffffffffffffffffffffffffffffffffff166306661abd6040518163ffffffff1660e01b8152600401602060405180830381865afa158015610ca1573d5f803e3d5ffd5b505050506040513d601f19601f82011682018060405250810190610cc591906146a0565b610cd09060016148d4565b9150610cdc8289612661565b6040517f5c7465e500000000000000000000000000000000000000000000000000000000815290985073ffffffffffffffffffffffffffffffffffffffff7f00000000000000000000000000000000000000000000000000000000000000001690635c7465e590610d5f9030908e908e908e908e908e908e908e906004016148e7565b6020604051808303815f875af1158015610d7b573d5f803e3d5ffd5b505050506040513d601f19601f82011682018060405250810190610d9f91906146a0565b8214610dad57610dad614961565b602083013515610ef3577f000000000000000000000000000000000000000000000000000000000000000073ffffffffffffffffffffffffffffffffffffffff16632f3f50e0838560200135610e01612118565b604051602001610e3192919091825273ffffffffffffffffffffffffffffffffffffffff16602082015260400190565b604080517fffffffffffffffffffffffffffffffffffffffffffffffffffffffffffffffe08184030181529190528051602090910120610e7187806140da565b6040518563ffffffff1660e01b8152600401610e90949392919061498e565b5f604051808303815f875af1158015610eab573d5f803e3d5ffd5b505050506040513d5f823e601f3d9081017fffffffffffffffffffffffffffffffffffffffffffffffffffffffffffffffe0168201604052610ef09190810190614b18565b90505b6040517f23b872dd00000000000000000000000000000000000000000000000000000000815230600482015273ffffffffffffffffffffffffffffffffffffffff8c81166024830152604482018490527f000000000000000000000000000000000000000000000000000000000000000016906323b872dd906064015f604051808303815f87803b158015610f86575f80fd5b505af1158015610f98573d5f803e3d5ffd5b50505050995099975050505050505050565b6040517f83db9d010000000000000000000000000000000000000000000000000000000081526004810183905273ffffffffffffffffffffffffffffffffffffffff82811660248301525f917f0000000000000000000000000000000000000000000000000000000000000000909116906383db9d0190604401602060405180830381865afa15801561103f573d5f803e3d5ffd5b505050506040513d601f19601f820116820180604052508101906110639190614bad565b15611070575060016105cf565b6040517f41929626000000000000000000000000000000000000000000000000000000008152600481018490525f907f000000000000000000000000000000000000000000000000000000000000000073ffffffffffffffffffffffffffffffffffffffff169063419296269060240161038060405180830381865afa1580156110fc573d5f803e3d5ffd5b505050506040513d601f19601f820116820180604052508101906111209190614d53565b505f858152602081815260408083208483015165ffffffffffff1684528252918290208251606081018452905460ff808216151583526101008204161515928201929092526201000090910473ffffffffffffffffffffffffffffffffffffffff16918101829052919250611199575f925050506105cf565b60408082015190517f677ce0880000000000000000000000000000000000000000000000000000000081526004810187905273ffffffffffffffffffffffffffffffffffffffff86811660248301529091169063677ce08890604401602060405180830381865afa158015611210573d5f803e3d5ffd5b505050506040513d601f19601f820116820180604052508101906112349190614bad565b95945050505050565b5f8061129d7f000000000000000000000000000000000000000000000000000000000000000073ffffffffffffffffffffffffffffffffffffffff16636352211e896040518263ffffffff1660e01b815260040161063591815260200190565b6040517f6352211e00000000000000000000000000000000000000000000000000000000815260048101889052611356907f000000000000000000000000000000000000000000000000000000000000000073ffffffffffffffffffffffffffffffffffffffff1690636352211e90602401602060405180830381865afa15801561132a573d5f803e3d5ffd5b505050506040513d601f19601f8201168201806040525081019061134e9190613e16565b88600e611f93565b73ffffffffffffffffffffffffffffffffffffffff7f00000000000000000000000000000000000000000000000000000000000000001663ea74b8af888886156113e6576113a2612118565b6040805173ffffffffffffffffffffffffffffffffffffffff90921660208301528101889052606001604051602081830303815290604052805190602001206113e8565b5f5b6040518463ffffffff1660e01b815260040161140693929190613f85565b6020604051808303815f875af1158015611422573d5f803e3d5ffd5b505050506040513d601f19601f820116820180604052508101906114469190613e16565b6040517fa220d6960000000000000000000000000000000000000000000000000000000081526004810189905290915073ffffffffffffffffffffffffffffffffffffffff82169063a220d696906024015f604051808303815f87803b1580156114ae575f80fd5b505af11580156114c0573d5f803e3d5ffd5b505050505f6114dc8861078988806020019061078391906140da565b905073ffffffffffffffffffffffffffffffffffffffff85166339284f35898361150960408b018b6140da565b61151660608d018d61413e565b6040518763ffffffff1660e01b81526004016107da9695949392919061485a565b60c08101355f9081526020818152604080832060e085013584528252808320815160608082018452915460ff808216151583526101008204161515948201949094526201000090930473ffffffffffffffffffffffffffffffffffffffff16918301829052919015806115a957508051155b156115bb575061012090920135929050565b806040015173ffffffffffffffffffffffffffffffffffffffff16638cc35846856040518263ffffffff1660e01b81526004016115f89190614ee2565b5f60405180830381865afa158015611612573d5f803e3d5ffd5b505050506040513d5f823e601f3d9081017fffffffffffffffffffffffffffffffffffffffffffffffffffffffffffffffe01682016040526116579190810190615012565b9250925050915091565b6040517f6352211e0000000000000000000000000000000000000000000000000000000081526004810183905260609061171d9073ffffffffffffffffffffffffffffffffffffffff7f00000000000000000000000000000000000000000000000000000000000000001690636352211e90602401602060405180830381865afa1580156116f1573d5f803e3d5ffd5b505050506040513d601f19601f820116820180604052508101906117159190613e16565b84601d611f93565b7f000000000000000000000000000000000000000000000000000000000000000073ffffffffffffffffffffffffffffffffffffffff16632f3f50e0848460200135611767612118565b60405160200161179792919091825273ffffffffffffffffffffffffffffffffffffffff16602082015260400190565b604080517fffffffffffffffffffffffffffffffffffffffffffffffffffffffffffffffe081840301815291905280516020909101206117d786806140da565b6040518563ffffffff1660e01b81526004016117f6949392919061498e565b5f604051808303815f875af1158015611811573d5f803e3d5ffd5b505050506040513d5f823e601f3d9081017fffffffffffffffffffffffffffffffffffffffffffffffffffffffffffffffe01682016040526118569190810190614b18565b9392505050565b5f8060607f000000000000000000000000000000000000000000000000000000000000000073ffffffffffffffffffffffffffffffffffffffff166306661abd6040518163ffffffff1660e01b8152600401602060405180830381865afa1580156118ca573d5f803e3d5ffd5b505050506040513d601f19601f820116820180604052508101906118ee91906146a0565b6118f99060016148d4565b925073ffffffffffffffffffffffffffffffffffffffff7f00000000000000000000000000000000000000000000000000000000000000001663ea74b8af8489881561198b57611947612118565b6040805173ffffffffffffffffffffffffffffffffffffffff909216602083015281018a90526060016040516020818303038152906040528051906020012061198d565b5f5b6040518463ffffffff1660e01b81526004016119ab939291906153da565b6020604051808303815f875af11580156119c7573d5f803e3d5ffd5b505050506040513d601f19601f820116820180604052508101906119eb9190613e16565b91505f611a046119fe60208901896140da565b85612126565b905073ffffffffffffffffffffffffffffffffffffffff7f000000000000000000000000000000000000000000000000000000000000000016635c7465e530611a4d8a8061413e565b85611a5b60408e018e6140da565b8e8060600190611a6b919061413e565b6040518963ffffffff1660e01b8152600401611a8e9897969594939291906148e7565b6020604051808303815f875af1158015611aaa573d5f803e3d5ffd5b505050506040513d601f19601f82011682018060405250810190611ace91906146a0565b8414611adc57611adc614961565b6040517fa220d6960000000000000000000000000000000000000000000000000000000081526004810185905273ffffffffffffffffffffffffffffffffffffffff84169063a220d696906024015f604051808303815f87803b158015611b41575f80fd5b505af1158015611b53573d5f803e3d5ffd5b50505050602085013515611c9d577f000000000000000000000000000000000000000000000000000000000000000073ffffffffffffffffffffffffffffffffffffffff16632f3f50e0858760200135611bab612118565b604051602001611bdb92919091825273ffffffffffffffffffffffffffffffffffffffff16602082015260400190565b604080517fffffffffffffffffffffffffffffffffffffffffffffffffffffffffffffffe08184030181529190528051602090910120611c1b89806140da565b6040518563ffffffff1660e01b8152600401611c3a949392919061498e565b5f604051808303815f875af1158015611c55573d5f803e3d5ffd5b505050506040513d5f823e601f3d9081017fffffffffffffffffffffffffffffffffffffffffffffffffffffffffffffffe0168201604052611c9a9190810190614b18565b91505b6040517f23b872dd00000000000000000000000000000000000000000000000000000000815230600482015273ffffffffffffffffffffffffffffffffffffffff8a81166024830152604482018690527f000000000000000000000000000000000000000000000000000000000000000016906323b872dd906064015f604051808303815f87803b158015611d30575f80fd5b505af1158015611d42573d5f803e3d5ffd5b5050505050955095509592505050565b5f8080606073ffffffffffffffffffffffffffffffffffffffff7f0000000000000000000000000000000000000000000000000000000000000000166383db9d0160408701803590611da79060208a016131f4565b6040517fffffffff0000000000000000000000000000000000000000000000000000000060e085901b168152600481019290925273ffffffffffffffffffffffffffffffffffffffff166024820152604401602060405180830381865afa158015611e14573d5f803e3d5ffd5b505050506040513d601f19601f82011682018060405250810190611e389190614bad565b15611e53575f85608001358660a00135935093509350611f8c565b6040858101355f90815260208181528282206060808a0135845290825291839020835192830184525460ff8082161515845261010082041615159183019190915262010000900473ffffffffffffffffffffffffffffffffffffffff16918101829052901580611ec557508060200151155b15611ee65785610160013586608001358760a0013594509450945050611f8c565b806040015173ffffffffffffffffffffffffffffffffffffffff1663fb82b1b0876040518263ffffffff1660e01b8152600401611f23919061553b565b5f60405180830381865afa158015611f3d573d5f803e3d5ffd5b505050506040513d5f823e601f3d9081017fffffffffffffffffffffffffffffffffffffffffffffffffffffffffffffffe0168201604052611f829190810190615600565b9450945094509450505b9193509193565b5f611f9c612118565b90508373ffffffffffffffffffffffffffffffffffffffff168173ffffffffffffffffffffffffffffffffffffffff16141580156120a957506040517f348b684e00000000000000000000000000000000000000000000000000000000815273ffffffffffffffffffffffffffffffffffffffff82811660048301528581166024830152604482018590526064820184905260016084830181905260a48301527f0000000000000000000000000000000000000000000000000000000000000000169063348b684e9060c401602060405180830381865afa158015612083573d5f803e3d5ffd5b505050506040513d601f19601f820116820180604052508101906120a79190614bad565b155b15612112576040517f264deeaa00000000000000000000000000000000000000000000000000000000815273ffffffffffffffffffffffffffffffffffffffff808616600483015282166024820152604481018490526064810183905260840160405180910390fd5b50505050565b5f612121612879565b905090565b60608267ffffffffffffffff81111561214157612141612938565b60405190808252806020026020018201604052801561224a57816020015b6122376040805161010080820183525f808352602080840182905283850182905260608085018390526080808601849052865161026081018852848152928301849052958201839052810182905293840181905260a084810182905260c0850182905260e0850182905291840181905261012084018190526101408401819052610160840181905261018084018190526101a084018190526101c084018190526101e0840181905261020084018190526102208401819052610240840152909190820190815260200160608152602001606081525090565b81526020019060019003908161215f5790505b5090505f5b83811015612659573685858381811061226a5761226a615736565b905060200281019061227c9190615763565b60a00190505f604051806102600160405280835f0160208101906122a0919061579f565b61ffff1681526020018360200160208101906122bc919061579f565b61ffff1681526020016122d560608501604086016157ba565b63ffffffff1681526020016122f060808501606086016157d5565b1515815260200161230760a08501608086016157d5565b1515815260200161231e60c0850160a086016157d5565b151581525f602082015260400161233b60e0850160c086016157d5565b15158152602001612353610100850160e086016157d5565b1515815260200161236c610120850161010086016157d5565b15158152602001612385610140850161012086016157d5565b1515815260200161239e610160850161014086016157d5565b151581526020016123b7610180850161016086016157d5565b151581526020016123d06101a0850161018086016157d5565b151581526020016123e96101c085016101a086016157d5565b15158152600160208201526040016124096101e085016101c086016157d5565b1515815273ffffffffffffffffffffffffffffffffffffffff8716602082015260400161243e61020085016101e0860161579f565b61ffff16815250905060405180610100016040528088888681811061246557612465615736565b90506020028101906124779190615763565b6124859060208101906157f0565b65ffffffffffff1681526020018888868181106124a4576124a4615736565b90506020028101906124b69190615763565b6124c79060408101906020016157ba565b63ffffffff1681526020018888868181106124e4576124e4615736565b90506020028101906124f69190615763565b61250790606081019060400161580b565b6dffffffffffffffffffffffffffff16815260200188888681811061252e5761252e615736565b90506020028101906125409190615763565b6125519060808101906060016157ba565b63ffffffff16815260200188888681811061256e5761256e615736565b90506020028101906125809190615763565b6125919060a08101906080016131f4565b73ffffffffffffffffffffffffffffffffffffffff1681526020018281526020018888868181106125c4576125c4615736565b90506020028101906125d69190615763565b6125e5906102a08101906140da565b6125ee91615826565b815260200188888681811061260557612605615736565b90506020028101906126179190615763565b612626906102c08101906140da565b61262f91615832565b81525084848151811061264457612644615736565b6020908102919091010152505060010161224f565b509392505050565b60605f5b825181101561287157604051806060016040528084838151811061268b5761268b615736565b602002602001015160a001516101e00151151581526020018483815181106126b5576126b5615736565b602002602001015160a001516102000151151581526020018483815181106126df576126df615736565b602002602001015160a00151610220015173ffffffffffffffffffffffffffffffffffffffff168152505f808681526020019081526020015f205f834261272691906148d4565b815260208082019290925260409081015f208351815493850151949092015173ffffffffffffffffffffffffffffffffffffffff1662010000027fffffffffffffffffffff0000000000000000000000000000000000000000ffff941515610100027fffffffffffffffffffffffffffffffffffffffffffffffffffffffffffff00ff931515939093167fffffffffffffffffffffffffffffffffffffffffffffffffffffffffffff0000909416939093179190911792909216179055825130908490839081106127f9576127f9615736565b602002602001015160a00151610220019073ffffffffffffffffffffffffffffffffffffffff16908173ffffffffffffffffffffffffffffffffffffffff1681525050600183828151811061285057612850615736565b602090810291909101015160a0015190151561020090910152600101612665565b509092915050565b5f3660143373ffffffffffffffffffffffffffffffffffffffff7f0000000000000000000000000000000000000000000000000000000000000000161480156128c25750808210155b156128f1575f366128d3838561583e565b6128de928290615851565b6128e791615878565b60601c9250505090565b339250505090565b5f60208284031215612909575f80fd5b81357fffffffff0000000000000000000000000000000000000000000000000000000081168114611856575f80fd5b7f4e487b71000000000000000000000000000000000000000000000000000000005f52604160045260245ffd5b6040516080810167ffffffffffffffff8111828210171561298857612988612938565b60405290565b6040516101c0810167ffffffffffffffff8111828210171561298857612988612938565b604051610100810167ffffffffffffffff8111828210171561298857612988612938565b604051610260810167ffffffffffffffff8111828210171561298857612988612938565b6040805190810167ffffffffffffffff8111828210171561298857612988612938565b60405160c0810167ffffffffffffffff8111828210171561298857612988612938565b604051610120810167ffffffffffffffff8111828210171561298857612988612938565b6040516060810167ffffffffffffffff8111828210171561298857612988612938565b604051601f82017fffffffffffffffffffffffffffffffffffffffffffffffffffffffffffffffe016810167ffffffffffffffff81118282101715612ace57612ace612938565b604052919050565b5f67ffffffffffffffff821115612aef57612aef612938565b50601f017fffffffffffffffffffffffffffffffffffffffffffffffffffffffffffffffe01660200190565b5f82601f830112612b2a575f80fd5b8135612b3d612b3882612ad6565b612a87565b818152846020838601011115612b51575f80fd5b816020850160208301375f918101602001919091529392505050565b73ffffffffffffffffffffffffffffffffffffffff81168114612b8e575f80fd5b50565b8035612b9c81612b6d565b919050565b5f67ffffffffffffffff821115612bba57612bba612938565b5060051b60200190565b80356cffffffffffffffffffffffffff81168114612b9c575f80fd5b63ffffffff81168114612b8e575f80fd5b8035612b9c81612be0565b61ffff81168114612b8e575f80fd5b8035612b9c81612bfc565b803562ffffff81168114612b9c575f80fd5b803560ff81168114612b9c575f80fd5b8015158114612b8e575f80fd5b8035612b9c81612c38565b5f6080808385031215612c61575f80fd5b612c69612965565b9150823567ffffffffffffffff811115612c81575f80fd5b8301601f81018513612c91575f80fd5b80356020612ca1612b3883612ba1565b8281526101c09283028401820192828201919089851115612cc0575f80fd5b948301945b84861015612dd55780868b031215612cdb575f80fd5b612ce361298e565b612cec87612bc4565b8152612cf9858801612bf1565b858201526040612d0a818901612bf1565b908201526060612d1b888201612c0b565b90820152612d2a878901612b91565b8189015260a0878101359082015260c0612d45818901612c16565b9082015260e0612d56888201612c28565b90820152610100612d68888201612c45565b90820152610120612d7a888201612c45565b90820152610140612d8c888201612c45565b90820152610160612d9e888201612c45565b90820152610180612db0888201612c45565b908201526101a0612dc2888201612c45565b9082015283529485019491830191612cc5565b50865250612de4868201612bf1565b8186015250505050612df860408301612c28565b6040820152612e0960608301612b91565b606082015292915050565b5f60808284031215612e24575f80fd5b612e2c612965565b90508135612e3981612c38565b81526020820135612e4981612c38565b60208201526040820135612e5c81612c38565b60408201526060820135612e0981612c38565b5f6101608284031215612e80575f80fd5b612e886129b2565b9050813567ffffffffffffffff80821115612ea1575f80fd5b612ead85838601612b1b565b83526020840135915080821115612ec2575f80fd5b612ece85838601612b1b565b60208401526040840135915080821115612ee6575f80fd5b612ef285838601612b1b565b6040840152612f0360608501612b91565b60608401526080840135915080821115612f1b575f80fd5b612f2785838601612b1b565b608084015260a0840135915080821115612f3f575f80fd5b50612f4c84828501612c50565b60a083015250612f5e60c08301612b91565b60c0820152612f708360e08401612e14565b60e082015292915050565b5f805f805f60a08688031215612f8f575f80fd5b85359450602086013567ffffffffffffffff80821115612fad575f80fd5b612fb989838a01612e6f565b95506040880135915080821115612fce575f80fd5b50860160608189031215612fe0575f80fd5b92506060860135612ff081612b6d565b949793965091946080013592915050565b5f8083601f840112613011575f80fd5b50813567ffffffffffffffff811115613028575f80fd5b60208301915083602082850101111561303f575f80fd5b9250929050565b5f805f805f6080868803121561305a575f80fd5b853561306581612b6d565b9450602086013561307581612b6d565b935060408601359250606086013567ffffffffffffffff811115613097575f80fd5b6130a388828901613001565b969995985093965092949392505050565b5f8083601f8401126130c4575f80fd5b50813567ffffffffffffffff8111156130db575f80fd5b6020830191508360208260051b850101111561303f575f80fd5b5f805f805f60608688031215613109575f80fd5b85359450602086013567ffffffffffffffff80821115613127575f80fd5b61313389838a016130b4565b9096509450604088013591508082111561314b575f80fd5b506130a388828901613001565b5f805f805f805f6080888a03121561316e575f80fd5b87359650602088013567ffffffffffffffff8082111561318c575f80fd5b6131988b838c016130b4565b909850965060408a01359150808211156131b0575f80fd5b6131bc8b838c016130b4565b909650945060608a01359150808211156131d4575f80fd5b506131e18a828b01613001565b989b979a50959850939692959293505050565b5f60208284031215613204575f80fd5b813561185681612b6d565b65ffffffffffff81168114612b8e575f80fd5b8035612b9c8161320f565b6dffffffffffffffffffffffffffff81168114612b8e575f80fd5b8035612b9c8161322d565b5f6102608284031215613264575f80fd5b61326c6129d6565b905061327782612c0b565b815261328560208301612c0b565b602082015261329660408301612bf1565b60408201526132a760608301612c45565b60608201526132b860808301612c45565b60808201526132c960a08301612c45565b60a08201526132da60c08301612c45565b60c08201526132eb60e08301612c45565b60e08201526101006132fe818401612c45565b90820152610120613310838201612c45565b90820152610140613322838201612c45565b90820152610160613334838201612c45565b90820152610180613346838201612c45565b908201526101a0613358838201612c45565b908201526101c061336a838201612c45565b908201526101e061337c838201612c45565b9082015261020061338e838201612c45565b908201526102206133a0838201612b91565b908201526102406133b2838201612c0b565b9082015292915050565b5f6133c9612b3884612ba1565b8381529050602080820190600585901b8401868111156133e7575f80fd5b845b8181101561352957803567ffffffffffffffff80821115613408575f80fd5b908701906040828b03121561341b575f80fd5b6134236129fa565b823581528583013582811115613437575f80fd5b8084019350508a601f84011261344b575f80fd5b8235613459612b3882612ba1565b81815260c09091028401870190878101908d831115613476575f80fd5b948801945b828610156135145760c0868f031215613492575f80fd5b61349a612a1d565b86356134a581612be0565b8152868a013586811681146134b8575f80fd5b818b015260408701356134ca81612b6d565b60408201526134db60608801612c45565b60608201526134ec60808801613222565b60808201526134fd60a08801612b91565b60a0820152825260c095909501949088019061347b565b838901525050865250509282019282016133e9565b505050509392505050565b5f82601f830112613543575f80fd5b611856838335602085016133bc565b5f82601f830112613561575f80fd5b81356020613571612b3883612ba1565b82815260069290921b8401810191818101908684111561358f575f80fd5b8286015b848110156135fe57604081890312156135aa575f80fd5b6135b26129fa565b81357bffffffffffffffffffffffffffffffffffffffffffffffffffffffff811681146135dd575f80fd5b8152818501356135ec81612be0565b81860152835291830191604001613593565b509695505050505050565b5f613616612b3884612ba1565b8381529050602080820190600585901b840186811115613634575f80fd5b845b8181101561352957803567ffffffffffffffff80821115613655575f80fd5b908701906080828b031215613668575f80fd5b613670612965565b823561367b81612b6d565b81528286013561368a81612b6d565b81870152604083810135838111156136a0575f80fd5b6136ac8d828701613552565b828401525050606080840135838111156136c4575f80fd5b6136d08d828701613552565b918301919091525086525050928201928201613636565b5f82601f8301126136f6575f80fd5b61185683833560208501613609565b5f613712612b3884612ba1565b8381529050602080820190600585901b840186811115613730575f80fd5b845b8181101561352957803567ffffffffffffffff80821115613751575f80fd5b90870190610340828b031215613765575f80fd5b61376d6129b2565b61377683613222565b8152613783868401612bf1565b868201526040613794818501613248565b9082015260606137a5848201612bf1565b9082015260806137b6848201612b91565b9082015260a06137c88c858301613253565b90820152610300830135828111156137de575f80fd5b6137ea8c828601613534565b60c08301525061032083013582811115613802575f80fd5b61380e8c8286016136e7565b60e08301525086525050928201928201613732565b5f82601f830112613832575f80fd5b61185683833560208501613705565b5f60408284031215613851575f80fd5b50919050565b5f805f805f805f805f60c08a8c03121561386f575f80fd5b6138788a612b91565b985060208a013567ffffffffffffffff80821115613894575f80fd5b6138a08d838e01613001565b909a50985060408c01359150808211156138b8575f80fd5b6138c48d838e01613823565b975060608c01359150808211156138d9575f80fd5b6138e58d838e016130b4565b909750955060808c01359150808211156138fd575f80fd5b6139098d838e01613001565b909550935060a08c0135915080821115613921575f80fd5b5061392e8c828d01613841565b9150509295985092959850929598565b5f815180845260208085019450602084015f5b8381101561398357815173ffffffffffffffffffffffffffffffffffffffff1687529582019590820190600101613951565b509495945050505050565b828152604060208201525f6139a6604083018461393e565b949350505050565b5f80604083850312156139bf575f80fd5b8235915060208301356139d181612b6d565b809150509250929050565b5f60808284031215613851575f80fd5b5f805f805f60a08688031215613a00575f80fd5b85359450602086013567ffffffffffffffff80821115613a1e575f80fd5b613a2a89838a01612e6f565b95506040880135915080821115613a3f575f80fd5b50613a4c888289016139dc565b9350506060860135612ff081612b6d565b5f60208284031215613a6d575f80fd5b813567ffffffffffffffff811115613a83575f80fd5b82016101808185031215611856575f80fd5b5f5b83811015613aaf578181015183820152602001613a97565b50505f910152565b5f8151808452613ace816020860160208601613a95565b601f017fffffffffffffffffffffffffffffffffffffffffffffffffffffffffffffffe0169290920160200192915050565b5f604080830185845260206040818601528186518084526060935060608701915060608160051b8801018389015f5b83811015613baa578983037fffffffffffffffffffffffffffffffffffffffffffffffffffffffffffffffa00185528151805173ffffffffffffffffffffffffffffffffffffffff1684528681015187850152880151888401889052613b9788850182613ab7565b9587019593505090850190600101613b2f565b50909a9950505050505050505050565b5f8060408385031215613bcb575f80fd5b50508035926020909101359150565b5f8060408385031215613beb575f80fd5b82359150602083013567ffffffffffffffff811115613c08575f80fd5b613c1485828601613841565b9150509250929050565b602081525f611856602083018461393e565b5f805f805f60a08688031215613c44575f80fd5b8535613c4f81612b6d565b9450602086013567ffffffffffffffff80821115613c6b575f80fd5b90870190610160828a031215613c7f575f80fd5b90945060408701359080821115613c94575f80fd5b613ca089838a016139dc565b9450606088013593506080880135915080821115613cbc575f80fd5b50613cc988828901613841565b9150509295509295909350565b83815273ffffffffffffffffffffffffffffffffffffffff83166020820152606060408201525f611234606083018461393e565b5f60208284031215613d1a575f80fd5b813567ffffffffffffffff811115613d30575f80fd5b82016101a08185031215611856575f80fd5b5f6080820186835260208681850152604086604086015260606080606087015283875180865260a08801915060a08160051b89010195508489015f5b82811015613df9578988037fffffffffffffffffffffffffffffffffffffffffffffffffffffffffffffff600184528151805173ffffffffffffffffffffffffffffffffffffffff16895287810151888a0152860151868901869052613de6868a0182613ab7565b9850509286019290860190600101613d7e565b50959c9b505050505050505050505050565b8051612b9c81612b6d565b5f60208284031215613e26575f80fd5b815161185681612b6d565b8051608080845281518482018190525f9260a0916020918201918388019190865b82811015613f3d57845180516cffffffffffffffffffffffffff1685528281015163ffffffff908116848701526040808301519091169086015260608082015161ffff16908601528781015173ffffffffffffffffffffffffffffffffffffffff1688860152868101518786015260c08082015162ffffff169086015260e08082015160ff169086015261010080820151151590860152610120808201511515908601526101408082015115159086015261016080820151151590860152610180808201511515908601526101a090810151151590850152938101936101c090930192600101613e52565b508781015163ffffffff16908901525060408087015160ff169088015260608087015173ffffffffffffffffffffffffffffffffffffffff81169189019190915293506109fb565b838152606060208201525f83516101606060840152613fa86101c0840182613ab7565b905060208501517fffffffffffffffffffffffffffffffffffffffffffffffffffffffffffffffa080858403016080860152613fe48383613ab7565b925060408701519150808584030160a08601526140018383613ab7565b92506060870151915061402c60c086018373ffffffffffffffffffffffffffffffffffffffff169052565b60808701519150808584030160e08601526140478383613ab7565b925060a087015191508085840301610100860152506140668282613e31565b91505060c085015161409161012085018273ffffffffffffffffffffffffffffffffffffffff169052565b5060e0850151805115156101408501526020810151151561016085015260408101511515610180850152606081015115156101a085015250604092909201929092529392505050565b5f8083357fffffffffffffffffffffffffffffffffffffffffffffffffffffffffffffffe184360301811261410d575f80fd5b83018035915067ffffffffffffffff821115614127575f80fd5b6020019150600581901b360382131561303f575f80fd5b5f8083357fffffffffffffffffffffffffffffffffffffffffffffffffffffffffffffffe1843603018112614171575f80fd5b83018035915067ffffffffffffffff82111561418b575f80fd5b60200191503681900382131561303f575f80fd5b805161ffff16825260208101516141bc602084018261ffff169052565b5060408101516141d4604084018263ffffffff169052565b5060608101516141e8606084018215159052565b5060808101516141fc608084018215159052565b5060a081015161421060a084018215159052565b5060c081015161422460c084018215159052565b5060e081015161423860e084018215159052565b5061010081810151151590830152610120808201511515908301526101408082015115159083015261016080820151151590830152610180808201511515908301526101a0808201511515908301526101c0808201511515908301526101e080820151151590830152610200808201511515908301526102208082015173ffffffffffffffffffffffffffffffffffffffff16908301526102408082015161ffff811682850152612112565b5f82825180855260208086019550808260051b8401018186015f5b848110156143ea578583037fffffffffffffffffffffffffffffffffffffffffffffffffffffffffffffffe00189528151805184528401516040858501819052815181860181905291860191606090818701905f5b818110156143d3578551805163ffffffff1684528a81015167ffffffffffffffff168b8501528581015173ffffffffffffffffffffffffffffffffffffffff908116878601528582015115158686015260808083015165ffffffffffff169086015260a09182015116908401529489019460c090920191600101614354565b50509b87019b9550505091840191506001016142ff565b5090979650505050505050565b5f815180845260208085019450602084015f5b8381101561398357815180517bffffffffffffffffffffffffffffffffffffffffffffffffffffffff16885283015163ffffffff16838801526040909601959082019060010161440a565b5f82825180855260208086019550808260051b8401018186015f5b848110156143ea577fffffffffffffffffffffffffffffffffffffffffffffffffffffffffffffffe08684030189528151608073ffffffffffffffffffffffffffffffffffffffff808351168652808784015116878701525060408083015182828801526144e0838801826143f7565b92505050606080830151925085820381870152506144fe81836143f7565b9a86019a9450505090830190600101614470565b5f82825180855260208086019550808260051b8401018186015f5b848110156143ea577fffffffffffffffffffffffffffffffffffffffffffffffffffffffffffffffe08684030189528151805165ffffffffffff1684528481015163ffffffff908116868601526040808301516dffffffffffffffffffffffffffff16908601526060808301519091169085015260808082015173ffffffffffffffffffffffffffffffffffffffff169085015260a08082015161034091906145d88288018261419f565b505060c0820151816103008701526145f2828701826142e4565b91505060e0820151915084810361032086015261460f8183614455565b9a86019a945050509083019060010161452d565b81835281816020850137505f602082840101525f60207fffffffffffffffffffffffffffffffffffffffffffffffffffffffffffffffe0601f840116840101905092915050565b848152606060208201525f6146826060830186614512565b8281036040840152614695818587614623565b979650505050505050565b5f602082840312156146b0575f80fd5b5051919050565b5f611856368484613705565b5f82357fffffffffffffffffffffffffffffffffffffffffffffffffffffffffffffffc18336030181126146f5575f80fd5b90910192915050565b5f8383855260208086019550808560051b830101845f5b878110156143ea577fffffffffffffffffffffffffffffffffffffffffffffffffffffffffffffffe085840301895261474e82886146c3565b6040808501823561475e81612b6d565b73ffffffffffffffffffffffffffffffffffffffff80821688528885013591507fffffffffffffffffffffffffffffffffffffffffffffffffffffffffffffffe18536030182126147ad575f80fd5b93018781019390359067ffffffffffffffff8211156147ca575f80fd5b606080830236038613156147dc575f80fd5b888a01859052928290525f928089015b8385101561483e5786356147ff81612b6d565b8316815260ff614810888d01612c28565b168b8201528587013561482281612be0565b63ffffffff1681870152958101956001949094019381016147ec565b9e8a019e98505050948701945050506001919091019050614715565b868152608060208201525f6148726080830188614512565b82810360408401526148858187896146fe565b9050828103606084015261489a818587614623565b9998505050505050505050565b7f4e487b71000000000000000000000000000000000000000000000000000000005f52601160045260245ffd5b808201808211156105cf576105cf6148a7565b73ffffffffffffffffffffffffffffffffffffffff8916815260a060208201525f61491660a08301898b614623565b82810360408401526149288189614512565b9050828103606084015261493d8187896146fe565b90508281036080840152614952818587614623565b9b9a5050505050505050505050565b7f4e487b71000000000000000000000000000000000000000000000000000000005f52600160045260245ffd5b5f606080830187845260208781860152604060606040870152828784526080935060808701905060808860051b880101895f5b8a811015614b06577fffffffffffffffffffffffffffffffffffffffffffffffffffffffffffffff808a84030184526149fa828d6146c3565b8584018135614a0881612b6d565b73ffffffffffffffffffffffffffffffffffffffff80821687528984013591507fffffffffffffffffffffffffffffffffffffffffffffffffffffffffffffffe1843603018212614a57575f80fd5b92018881019290359067ffffffffffffffff821115614a74575f80fd5b8160071b3603841315614a85575f80fd5b868a01899052918190525f918b87015b82841015614af0578435614aa881612b6d565b82168152848b0135614ab981612be0565b63ffffffff16818c0152848a0135614ad081612b6d565b8216818b0152848d01358d820152938b0193600193909301928b01614a95565b978a0197965050509287019250506001016149c1565b50909c9b505050505050505050505050565b5f6020808385031215614b29575f80fd5b825167ffffffffffffffff811115614b3f575f80fd5b8301601f81018513614b4f575f80fd5b8051614b5d612b3882612ba1565b81815260059190911b82018301908381019087831115614b7b575f80fd5b928401925b82841015614695578351614b9381612b6d565b82529284019290840190614b80565b8051612b9c81612c38565b5f60208284031215614bbd575f80fd5b815161185681612c38565b8051612b9c8161320f565b8051612b9c81612be0565b8051612b9c8161322d565b8051612b9c81612bfc565b5f6102608284031215614c05575f80fd5b614c0d6129d6565b9050614c1882614be9565b8152614c2660208301614be9565b6020820152614c3760408301614bd3565b6040820152614c4860608301614ba2565b6060820152614c5960808301614ba2565b6080820152614c6a60a08301614ba2565b60a0820152614c7b60c08301614ba2565b60c0820152614c8c60e08301614ba2565b60e0820152610100614c9f818401614ba2565b90820152610120614cb1838201614ba2565b90820152610140614cc3838201614ba2565b90820152610160614cd5838201614ba2565b90820152610180614ce7838201614ba2565b908201526101a0614cf9838201614ba2565b908201526101c0614d0b838201614ba2565b908201526101e0614d1d838201614ba2565b90820152610200614d2f838201614ba2565b90820152610220614d41838201613e0b565b908201526102406133b2838201614be9565b5f80828403610380811215614d66575f80fd5b61012080821215614d75575f80fd5b614d7d612a40565b9150614d8885614bc8565b8252614d9660208601614bc8565b6020830152614da760408601614bc8565b6040830152614db860608601614bc8565b6060830152614dc960808601614bd3565b6080830152614dda60a08601614bde565b60a0830152614deb60c08601614bd3565b60c0830152614dfc60e08601613e0b565b60e0830152610100808601518184015250819350614e1c86828701614bf4565b925050509250929050565b8035614e3281612b6d565b73ffffffffffffffffffffffffffffffffffffffff16825260ff614e5860208301612c28565b1660208301526040810135614e6c81612be0565b63ffffffff166040830152606090810135910152565b5f8083357fffffffffffffffffffffffffffffffffffffffffffffffffffffffffffffffe1843603018112614eb5575f80fd5b830160208101925035905067ffffffffffffffff811115614ed4575f80fd5b80360382131561303f575f80fd5b60208152614f1060208201614ef684612b91565b73ffffffffffffffffffffffffffffffffffffffff169052565b5f614f1d60208401612b91565b73ffffffffffffffffffffffffffffffffffffffff8116604084015250614f4a6060830160408501614e27565b60c083013560e083015261010060e084013581840152614f6b818501612b91565b9050610120614f918185018373ffffffffffffffffffffffffffffffffffffffff169052565b61014091508085013582850152506101608185013581850152614fb681860186614e82565b61018086810152925090506112346101a085018383614623565b5f82601f830112614fdf575f80fd5b8151614fed612b3882612ad6565b818152846020838601011115615001575f80fd5b6139a6826020830160208701613a95565b5f8060408385031215615023575f80fd5b8251915060208084015167ffffffffffffffff80821115615042575f80fd5b818601915086601f830112615055575f80fd5b8151615063612b3882612ba1565b81815260059190911b83018401908481019089831115615081575f80fd5b8585015b838110156151225780518581111561509b575f80fd5b86016060818d037fffffffffffffffffffffffffffffffffffffffffffffffffffffffffffffffe0018113156150cf575f80fd5b6150d7612a64565b898301516150e481612b6d565b815260408301518a820152908201519087821115615100575f80fd5b61510e8e8b84860101614fd0565b604082015285525050918601918601615085565b508096505050505050509250929050565b5f82357fffffffffffffffffffffffffffffffffffffffffffffffffffffffffffffff818336030181126146f5575f80fd5b5f608080840183357fffffffffffffffffffffffffffffffffffffffffffffffffffffffffffffffe185360301811261519c575f80fd5b8401602081810191359067ffffffffffffffff8211156151ba575f80fd5b6101c080830236038413156151cd575f80fd5b608089529382905260a0938489015f5b8481101561532557615205826151f288612bc4565b6cffffffffffffffffffffffffff169052565b615210848701612bf1565b63ffffffff16848301526040615227878201612bf1565b63ffffffff1690830152606061523e878201612c0b565b61ffff1690830152615251868901612b91565b73ffffffffffffffffffffffffffffffffffffffff1688830152858701358783015260c0615280818801612c16565b62ffffff169083015260e0615296878201612c28565b60ff16908301526101006152ab878201612c45565b1515908301526101206152bf878201612c45565b1515908301526101406152d3878201612c45565b1515908301526101606152e7878201612c45565b1515908301526101806152fb878201612c45565b1515908301526101a061530f878201612c45565b15159083015294820194908201906001016151dd565b5061533260208a01612bf1565b63ffffffff811660208c0152965061534c60408a01612c28565b60ff811660408c0152965061536360608a01612b91565b73ffffffffffffffffffffffffffffffffffffffff811660608c0152965061489a565b803561539181612c38565b1515825260208101356153a381612c38565b1515602083015260408101356153b881612c38565b1515604083015260608101356153cd81612c38565b8015156060840152505050565b838152606060208201525f6153ef8485614e82565b61016060608501526154066101c085018284614623565b9150506154166020860186614e82565b7fffffffffffffffffffffffffffffffffffffffffffffffffffffffffffffffa08086850301608087015261544c848385614623565b935061545b6040890189614e82565b93509150808685030160a0870152615474848484614623565b935061548260608901612b91565b73ffffffffffffffffffffffffffffffffffffffff811660c088015292506154ad6080890189614e82565b93509150808685030160e08701526154c6848484614623565b93506154d560a0890189615133565b9250808685030161010087015250506154ee8282615165565b9150506154fd60c08601612b91565b73ffffffffffffffffffffffffffffffffffffffff1661012084015261552a610140840160e08701615386565b604092909201929092529392505050565b6020815261554f60208201614ef684612b91565b5f61555c60208401612b91565b73ffffffffffffffffffffffffffffffffffffffff81166040840152506040830135606083015260608301356080830152608083013560a083015260a083013560c08301526155b160e0830160c08501614e27565b6155be6101408401612c45565b6101606155ce8185018315159052565b61018091508085013582850152506155e881850185614e82565b6101a08581015291506112346101c085018383614623565b5f805f8060808587031215615613575f80fd5b845193506020850151925060408501519150606085015167ffffffffffffffff8082111561563f575f80fd5b818701915087601f830112615652575f80fd5b8151615660612b3882612ba1565b8082825260208201915060208360051b86010192508a831115615681575f80fd5b602085015b838110156157265780518581111561569c575f80fd5b86016060818e037fffffffffffffffffffffffffffffffffffffffffffffffffffffffffffffffe00112156156cf575f80fd5b6156d7612a64565b60208201516156e581612b6d565b815260408201516020820152606082015187811115615702575f80fd5b6157118f602083860101614fd0565b60408301525084525060209283019201615686565b50979a9699509497505050505050565b7f4e487b71000000000000000000000000000000000000000000000000000000005f52603260045260245ffd5b5f82357ffffffffffffffffffffffffffffffffffffffffffffffffffffffffffffffd21833603018112615795575f80fd5b9190910192915050565b5f602082840312156157af575f80fd5b813561185681612bfc565b5f602082840312156157ca575f80fd5b813561185681612be0565b5f602082840312156157e5575f80fd5b813561185681612c38565b5f60208284031215615800575f80fd5b81356118568161320f565b5f6020828403121561581b575f80fd5b81356118568161322d565b5f6118563684846133bc565b5f611856368484613609565b818103818111156105cf576105cf6148a7565b5f808585111561585f575f80fd5b8386111561586b575f80fd5b5050820193919092039150565b7fffffffffffffffffffffffffffffffffffffffff00000000000000000000000081358181169160148510156158b85780818660140360031b1b83161692505b50509291505056fea26469706673582212207b41e4172ce3a68659302fb5b1a32b3fdef5e69264969ca6c61d1ced566d392264736f6c63430008170033",
	"deployedBytecode": "0x608060405234801561000f575f80fd5b5060043610610163575f3560e01c80637da0a877116100c7578063b78edb661161007d578063ee0fc12111610063578063ee0fc12114610480578063f434c914146104a7578063fb82b1b0146104ce575f80fd5b8063b78edb661461043e578063beecbcbb1461045e575f80fd5b806393547ad8116100ad57806393547ad81461036b578063abf8c5c8146103f0578063b5d2553314610417575f80fd5b80637da0a877146103245780638cc358461461034a575f80fd5b806339284f351161011c57806365f4aad01161010257806365f4aad0146102dd578063677ce088146102fe5780637034775514610311575f80fd5b806339284f351461027d578063572b6c0514610290575f80fd5b8063150b7a021161014c578063150b7a02146101cc578063293c4999146102105780633141db701461025c575f80fd5b806301ffc9a7146101675780631258fa901461018f575b5f80fd5b61017a6101753660046128f9565b6104f1565b60405190151581526020015b60405180910390f35b6101a261019d366004612f7b565b6105d5565b6040805192835273ffffffffffffffffffffffffffffffffffffffff909116602083015201610186565b6101df6101da366004613046565b610827565b6040517fffffffff000000000000000000000000000000000000000000000000000000009091168152602001610186565b6102377f0000000000000000000000000b538a02610d7d3cc91ce2870f423e0a34d646ad81565b60405173ffffffffffffffffffffffffffffffffffffffff9091168152602001610186565b61026f61026a3660046130f5565b610894565b604051908152602001610186565b61026f61028b366004613158565b610a05565b61017a61029e3660046131f4565b7f0000000000000000000000008a5ba591ed2bed5691a378c65611ed492500f88773ffffffffffffffffffffffffffffffffffffffff90811691161490565b6102f06102eb366004613857565b610c35565b60405161018692919061398e565b61017a61030c3660046139ae565b610faa565b6101a261031f3660046139ec565b61123d565b7f0000000000000000000000008a5ba591ed2bed5691a378c65611ed492500f887610237565b61035d610358366004613a5d565b611537565b604051610186929190613b00565b6103bd610379366004613bba565b5f60208181529281526040808220909352908152205460ff8082169161010081049091169062010000900473ffffffffffffffffffffffffffffffffffffffff1683565b604080519315158452911515602084015273ffffffffffffffffffffffffffffffffffffffff1690820152606001610186565b6102377f000000000000000000000000defb489d101bf74bbf8f60eec6ff2f078c9d520681565b6102377f000000000000000000000000696c7e9b37d28edbefa3fce06e26041b7197c1a581565b61045161044c366004613bda565b611661565b6040516101869190613c1e565b61047161046c366004613c30565b61185d565b60405161018693929190613cd6565b6102377f000000000000000000000000b291844f213047eb9e1621ae555b1eae6700d55381565b6102377f000000000000000000000000f5ca295dc286a176e35ebb7833031fd95550eb1481565b6104e16104dc366004613d0a565b611d52565b6040516101869493929190613d42565b5f7fffffffff0000000000000000000000000000000000000000000000000000000082167f527d026600000000000000000000000000000000000000000000000000000000148061058357507fffffffff0000000000000000000000000000000000000000000000000000000082167f103d097e00000000000000000000000000000000000000000000000000000000145b806105cf57507fffffffff0000000000000000000000000000000000000000000000000000000082167f150b7a0200000000000000000000000000000000000000000000000000000000145b92915050565b5f8061067c7f0000000000000000000000000b538a02610d7d3cc91ce2870f423e0a34d646ad73ffffffffffffffffffffffffffffffffffffffff16636352211e896040518263ffffffff1660e01b815260040161063591815260200190565b602060405180830381865afa158015610650573d5f803e3d5ffd5b505050506040513d601f19601f820116820180604052508101906106749190613e16565b886002611f93565b73ffffffffffffffffffffffffffffffffffffffff7f000000000000000000000000defb489d101bf74bbf8f60eec6ff2f078c9d52061663ea74b8af8888861561070c576106c8612118565b6040805173ffffffffffffffffffffffffffffffffffffffff909216602083015281018890526060016040516020818303038152906040528051906020012061070e565b5f5b6040518463ffffffff1660e01b815260040161072c93929190613f85565b6020604051808303815f875af1158015610748573d5f803e3d5ffd5b505050506040513d601f19601f8201168201806040525081019061076c9190613e16565b90505f61078e8861078961078360208a018a6140da565b86612126565b612661565b905073ffffffffffffffffffffffffffffffffffffffff8516633141db7089836107bb60408b018b61413e565b6040518563ffffffff1660e01b81526004016107da949392919061466a565b6020604051808303815f875af11580156107f6573d5f803e3d5ffd5b505050506040513d601f19601f8201168201806040525081019061081a91906146a0565b9250509550959350505050565b5f3373ffffffffffffffffffffffffffffffffffffffff7f0000000000000000000000000b538a02610d7d3cc91ce2870f423e0a34d646ad1614610869575f80fd5b507f150b7a020000000000000000000000000000000000000000000000000000000095945050505050565b6040517f6352211e000000000000000000000000000000000000000000000000000000008152600481018690525f9061094f9073ffffffffffffffffffffffffffffffffffffffff7f0000000000000000000000000b538a02610d7d3cc91ce2870f423e0a34d646ad1690636352211e90602401602060405180830381865afa158015610923573d5f803e3d5ffd5b505050506040513d601f19601f820116820180604052508101906109479190613e16565b876002611f93565b73ffffffffffffffffffffffffffffffffffffffff7f000000000000000000000000b291844f213047eb9e1621ae555b1eae6700d55316633141db708761099a81610789898b6146b7565b86866040518563ffffffff1660e01b81526004016109bb949392919061466a565b6020604051808303815f875af11580156109d7573d5f803e3d5ffd5b505050506040513d601f19601f820116820180604052508101906109fb91906146a0565b9695505050505050565b6040517f6352211e000000000000000000000000000000000000000000000000000000008152600481018890525f90610ac09073ffffffffffffffffffffffffffffffffffffffff7f0000000000000000000000000b538a02610d7d3cc91ce2870f423e0a34d646ad1690636352211e90602401602060405180830381865afa158015610a94573d5f803e3d5ffd5b505050506040513d601f19601f82011682018060405250810190610ab89190613e16565b896002611f93565b6040517f6352211e00000000000000000000000000000000000000000000000000000000815260048101899052610b79907f0000000000000000000000000b538a02610d7d3cc91ce2870f423e0a34d646ad73ffffffffffffffffffffffffffffffffffffffff1690636352211e90602401602060405180830381865afa158015610b4d573d5f803e3d5ffd5b505050506040513d601f19601f82011682018060405250810190610b719190613e16565b89600e611f93565b73ffffffffffffffffffffffffffffffffffffffff7f000000000000000000000000b291844f213047eb9e1621ae555b1eae6700d553166339284f3589610bc4816107898b8d6146b7565b888888886040518763ffffffff1660e01b8152600401610be99695949392919061485a565b6020604051808303815f875af1158015610c05573d5f803e3d5ffd5b505050506040513d601f19601f82011682018060405250810190610c2991906146a0565b98975050505050505050565b5f60607f0000000000000000000000000b538a02610d7d3cc91ce2870f423e0a34d646ad73ffffffffffffffffffffffffffffffffffffffff166306661abd6040518163ffffffff1660e01b8152600401602060405180830381865afa158015610ca1573d5f803e3d5ffd5b505050506040513d601f19601f82011682018060405250810190610cc591906146a0565b610cd09060016148d4565b9150610cdc8289612661565b6040517f5c7465e500000000000000000000000000000000000000000000000000000000815290985073ffffffffffffffffffffffffffffffffffffffff7f000000000000000000000000b291844f213047eb9e1621ae555b1eae6700d5531690635c7465e590610d5f9030908e908e908e908e908e908e908e906004016148e7565b6020604051808303815f875af1158015610d7b573d5f803e3d5ffd5b505050506040513d601f19601f82011682018060405250810190610d9f91906146a0565b8214610dad57610dad614961565b602083013515610ef3577f000000000000000000000000696c7e9b37d28edbefa3fce06e26041b7197c1a573ffffffffffffffffffffffffffffffffffffffff16632f3f50e0838560200135610e01612118565b604051602001610e3192919091825273ffffffffffffffffffffffffffffffffffffffff16602082015260400190565b604080517fffffffffffffffffffffffffffffffffffffffffffffffffffffffffffffffe08184030181529190528051602090910120610e7187806140da565b6040518563ffffffff1660e01b8152600401610e90949392919061498e565b5f604051808303815f875af1158015610eab573d5f803e3d5ffd5b505050506040513d5f823e601f3d9081017fffffffffffffffffffffffffffffffffffffffffffffffffffffffffffffffe0168201604052610ef09190810190614b18565b90505b6040517f23b872dd00000000000000000000000000000000000000000000000000000000815230600482015273ffffffffffffffffffffffffffffffffffffffff8c81166024830152604482018490527f0000000000000000000000000b538a02610d7d3cc91ce2870f423e0a34d646ad16906323b872dd906064015f604051808303815f87803b158015610f86575f80fd5b505af1158015610f98573d5f803e3d5ffd5b50505050995099975050505050505050565b6040517f83db9d010000000000000000000000000000000000000000000000000000000081526004810183905273ffffffffffffffffffffffffffffffffffffffff82811660248301525f917f000000000000000000000000696c7e9b37d28edbefa3fce06e26041b7197c1a5909116906383db9d0190604401602060405180830381865afa15801561103f573d5f803e3d5ffd5b505050506040513d601f19601f820116820180604052508101906110639190614bad565b15611070575060016105cf565b6040517f41929626000000000000000000000000000000000000000000000000000000008152600481018490525f907f000000000000000000000000b291844f213047eb9e1621ae555b1eae6700d55373ffffffffffffffffffffffffffffffffffffffff169063419296269060240161038060405180830381865afa1580156110fc573d5f803e3d5ffd5b505050506040513d601f19601f820116820180604052508101906111209190614d53565b505f858152602081815260408083208483015165ffffffffffff1684528252918290208251606081018452905460ff808216151583526101008204161515928201929092526201000090910473ffffffffffffffffffffffffffffffffffffffff16918101829052919250611199575f925050506105cf565b60408082015190517f677ce0880000000000000000000000000000000000000000000000000000000081526004810187905273ffffffffffffffffffffffffffffffffffffffff86811660248301529091169063677ce08890604401602060405180830381865afa158015611210573d5f803e3d5ffd5b505050506040513d601f19601f820116820180604052508101906112349190614bad565b95945050505050565b5f8061129d7f0000000000000000000000000b538a02610d7d3cc91ce2870f423e0a34d646ad73ffffffffffffffffffffffffffffffffffffffff16636352211e896040518263ffffffff1660e01b815260040161063591815260200190565b6040517f6352211e00000000000000000000000000000000000000000000000000000000815260048101889052611356907f0000000000000000000000000b538a02610d7d3cc91ce2870f423e0a34d646ad73ffffffffffffffffffffffffffffffffffffffff1690636352211e90602401602060405180830381865afa15801561132a573d5f803e3d5ffd5b505050506040513d601f19601f8201168201806040525081019061134e9190613e16565b88600e611f93565b73ffffffffffffffffffffffffffffffffffffffff7f000000000000000000000000defb489d101bf74bbf8f60eec6ff2f078c9d52061663ea74b8af888886156113e6576113a2612118565b6040805173ffffffffffffffffffffffffffffffffffffffff90921660208301528101889052606001604051602081830303815290604052805190602001206113e8565b5f5b6040518463ffffffff1660e01b815260040161140693929190613f85565b6020604051808303815f875af1158015611422573d5f803e3d5ffd5b505050506040513d601f19601f820116820180604052508101906114469190613e16565b6040517fa220d6960000000000000000000000000000000000000000000000000000000081526004810189905290915073ffffffffffffffffffffffffffffffffffffffff82169063a220d696906024015f604051808303815f87803b1580156114ae575f80fd5b505af11580156114c0573d5f803e3d5ffd5b505050505f6114dc8861078988806020019061078391906140da565b905073ffffffffffffffffffffffffffffffffffffffff85166339284f35898361150960408b018b6140da565b61151660608d018d61413e565b6040518763ffffffff1660e01b81526004016107da9695949392919061485a565b60c08101355f9081526020818152604080832060e085013584528252808320815160608082018452915460ff808216151583526101008204161515948201949094526201000090930473ffffffffffffffffffffffffffffffffffffffff16918301829052919015806115a957508051155b156115bb575061012090920135929050565b806040015173ffffffffffffffffffffffffffffffffffffffff16638cc35846856040518263ffffffff1660e01b81526004016115f89190614ee2565b5f60405180830381865afa158015611612573d5f803e3d5ffd5b505050506040513d5f823e601f3d9081017fffffffffffffffffffffffffffffffffffffffffffffffffffffffffffffffe01682016040526116579190810190615012565b9250925050915091565b6040517f6352211e0000000000000000000000000000000000000000000000000000000081526004810183905260609061171d9073ffffffffffffffffffffffffffffffffffffffff7f0000000000000000000000000b538a02610d7d3cc91ce2870f423e0a34d646ad1690636352211e90602401602060405180830381865afa1580156116f1573d5f803e3d5ffd5b505050506040513d601f19601f820116820180604052508101906117159190613e16565b84601d611f93565b7f000000000000000000000000696c7e9b37d28edbefa3fce06e26041b7197c1a573ffffffffffffffffffffffffffffffffffffffff16632f3f50e0848460200135611767612118565b60405160200161179792919091825273ffffffffffffffffffffffffffffffffffffffff16602082015260400190565b604080517fffffffffffffffffffffffffffffffffffffffffffffffffffffffffffffffe081840301815291905280516020909101206117d786806140da565b6040518563ffffffff1660e01b81526004016117f6949392919061498e565b5f604051808303815f875af1158015611811573d5f803e3d5ffd5b505050506040513d5f823e601f3d9081017fffffffffffffffffffffffffffffffffffffffffffffffffffffffffffffffe01682016040526118569190810190614b18565b9392505050565b5f8060607f0000000000000000000000000b538a02610d7d3cc91ce2870f423e0a34d646ad73ffffffffffffffffffffffffffffffffffffffff166306661abd6040518163ffffffff1660e01b8152600401602060405180830381865afa1580156118ca573d5f803e3d5ffd5b505050506040513d601f19601f820116820180604052508101906118ee91906146a0565b6118f99060016148d4565b925073ffffffffffffffffffffffffffffffffffffffff7f000000000000000000000000defb489d101bf74bbf8f60eec6ff2f078c9d52061663ea74b8af8489881561198b57611947612118565b6040805173ffffffffffffffffffffffffffffffffffffffff909216602083015281018a90526060016040516020818303038152906040528051906020012061198d565b5f5b6040518463ffffffff1660e01b81526004016119ab939291906153da565b6020604051808303815f875af11580156119c7573d5f803e3d5ffd5b505050506040513d601f19601f820116820180604052508101906119eb9190613e16565b91505f611a046119fe60208901896140da565b85612126565b905073ffffffffffffffffffffffffffffffffffffffff7f000000000000000000000000b291844f213047eb9e1621ae555b1eae6700d55316635c7465e530611a4d8a8061413e565b85611a5b60408e018e6140da565b8e8060600190611a6b919061413e565b6040518963ffffffff1660e01b8152600401611a8e9897969594939291906148e7565b6020604051808303815f875af1158015611aaa573d5f803e3d5ffd5b505050506040513d601f19601f82011682018060405250810190611ace91906146a0565b8414611adc57611adc614961565b6040517fa220d6960000000000000000000000000000000000000000000000000000000081526004810185905273ffffffffffffffffffffffffffffffffffffffff84169063a220d696906024015f604051808303815f87803b158015611b41575f80fd5b505af1158015611b53573d5f803e3d5ffd5b50505050602085013515611c9d577f000000000000000000000000696c7e9b37d28edbefa3fce06e26041b7197c1a573ffffffffffffffffffffffffffffffffffffffff16632f3f50e0858760200135611bab612118565b604051602001611bdb92919091825273ffffffffffffffffffffffffffffffffffffffff16602082015260400190565b604080517fffffffffffffffffffffffffffffffffffffffffffffffffffffffffffffffe08184030181529190528051602090910120611c1b89806140da565b6040518563ffffffff1660e01b8152600401611c3a949392919061498e565b5f604051808303815f875af1158015611c55573d5f803e3d5ffd5b505050506040513d5f823e601f3d9081017fffffffffffffffffffffffffffffffffffffffffffffffffffffffffffffffe0168201604052611c9a9190810190614b18565b91505b6040517f23b872dd00000000000000000000000000000000000000000000000000000000815230600482015273ffffffffffffffffffffffffffffffffffffffff8a81166024830152604482018690527f0000000000000000000000000b538a02610d7d3cc91ce2870f423e0a34d646ad16906323b872dd906064015f604051808303815f87803b158015611d30575f80fd5b505af1158015611d42573d5f803e3d5ffd5b5050505050955095509592505050565b5f8080606073ffffffffffffffffffffffffffffffffffffffff7f000000000000000000000000696c7e9b37d28edbefa3fce06e26041b7197c1a5166383db9d0160408701803590611da79060208a016131f4565b6040517fffffffff0000000000000000000000000000000000000000000000000000000060e085901b168152600481019290925273ffffffffffffffffffffffffffffffffffffffff166024820152604401602060405180830381865afa158015611e14573d5f803e3d5ffd5b505050506040513d601f19601f82011682018060405250810190611e389190614bad565b15611e53575f85608001358660a00135935093509350611f8c565b6040858101355f90815260208181528282206060808a0135845290825291839020835192830184525460ff8082161515845261010082041615159183019190915262010000900473ffffffffffffffffffffffffffffffffffffffff16918101829052901580611ec557508060200151155b15611ee65785610160013586608001358760a0013594509450945050611f8c565b806040015173ffffffffffffffffffffffffffffffffffffffff1663fb82b1b0876040518263ffffffff1660e01b8152600401611f23919061553b565b5f60405180830381865afa158015611f3d573d5f803e3d5ffd5b505050506040513d5f823e601f3d9081017fffffffffffffffffffffffffffffffffffffffffffffffffffffffffffffffe0168201604052611f829190810190615600565b9450945094509450505b9193509193565b5f611f9c612118565b90508373ffffffffffffffffffffffffffffffffffffffff168173ffffffffffffffffffffffffffffffffffffffff16141580156120a957506040517f348b684e00000000000000000000000000000000000000000000000000000000815273ffffffffffffffffffffffffffffffffffffffff82811660048301528581166024830152604482018590526064820184905260016084830181905260a48301527f000000000000000000000000f5ca295dc286a176e35ebb7833031fd95550eb14169063348b684e9060c401602060405180830381865afa158015612083573d5f803e3d5ffd5b505050506040513d601f19601f820116820180604052508101906120a79190614bad565b155b15612112576040517f264deeaa00000000000000000000000000000000000000000000000000000000815273ffffffffffffffffffffffffffffffffffffffff808616600483015282166024820152604481018490526064810183905260840160405180910390fd5b50505050565b5f612121612879565b905090565b60608267ffffffffffffffff81111561214157612141612938565b60405190808252806020026020018201604052801561224a57816020015b6122376040805161010080820183525f808352602080840182905283850182905260608085018390526080808601849052865161026081018852848152928301849052958201839052810182905293840181905260a084810182905260c0850182905260e0850182905291840181905261012084018190526101408401819052610160840181905261018084018190526101a084018190526101c084018190526101e0840181905261020084018190526102208401819052610240840152909190820190815260200160608152602001606081525090565b81526020019060019003908161215f5790505b5090505f5b83811015612659573685858381811061226a5761226a615736565b905060200281019061227c9190615763565b60a00190505f604051806102600160405280835f0160208101906122a0919061579f565b61ffff1681526020018360200160208101906122bc919061579f565b61ffff1681526020016122d560608501604086016157ba565b63ffffffff1681526020016122f060808501606086016157d5565b1515815260200161230760a08501608086016157d5565b1515815260200161231e60c0850160a086016157d5565b151581525f602082015260400161233b60e0850160c086016157d5565b15158152602001612353610100850160e086016157d5565b1515815260200161236c610120850161010086016157d5565b15158152602001612385610140850161012086016157d5565b1515815260200161239e610160850161014086016157d5565b151581526020016123b7610180850161016086016157d5565b151581526020016123d06101a0850161018086016157d5565b151581526020016123e96101c085016101a086016157d5565b15158152600160208201526040016124096101e085016101c086016157d5565b1515815273ffffffffffffffffffffffffffffffffffffffff8716602082015260400161243e61020085016101e0860161579f565b61ffff16815250905060405180610100016040528088888681811061246557612465615736565b90506020028101906124779190615763565b6124859060208101906157f0565b65ffffffffffff1681526020018888868181106124a4576124a4615736565b90506020028101906124b69190615763565b6124c79060408101906020016157ba565b63ffffffff1681526020018888868181106124e4576124e4615736565b90506020028101906124f69190615763565b61250790606081019060400161580b565b6dffffffffffffffffffffffffffff16815260200188888681811061252e5761252e615736565b90506020028101906125409190615763565b6125519060808101906060016157ba565b63ffffffff16815260200188888681811061256e5761256e615736565b90506020028101906125809190615763565b6125919060a08101906080016131f4565b73ffffffffffffffffffffffffffffffffffffffff1681526020018281526020018888868181106125c4576125c4615736565b90506020028101906125d69190615763565b6125e5906102a08101906140da565b6125ee91615826565b815260200188888681811061260557612605615736565b90506020028101906126179190615763565b612626906102c08101906140da565b61262f91615832565b81525084848151811061264457612644615736565b6020908102919091010152505060010161224f565b509392505050565b60605f5b825181101561287157604051806060016040528084838151811061268b5761268b615736565b602002602001015160a001516101e00151151581526020018483815181106126b5576126b5615736565b602002602001015160a001516102000151151581526020018483815181106126df576126df615736565b602002602001015160a00151610220015173ffffffffffffffffffffffffffffffffffffffff168152505f808681526020019081526020015f205f834261272691906148d4565b815260208082019290925260409081015f208351815493850151949092015173ffffffffffffffffffffffffffffffffffffffff1662010000027fffffffffffffffffffff0000000000000000000000000000000000000000ffff941515610100027fffffffffffffffffffffffffffffffffffffffffffffffffffffffffffff00ff931515939093167fffffffffffffffffffffffffffffffffffffffffffffffffffffffffffff0000909416939093179190911792909216179055825130908490839081106127f9576127f9615736565b602002602001015160a00151610220019073ffffffffffffffffffffffffffffffffffffffff16908173ffffffffffffffffffffffffffffffffffffffff1681525050600183828151811061285057612850615736565b602090810291909101015160a0015190151561020090910152600101612665565b509092915050565b5f3660143373ffffffffffffffffffffffffffffffffffffffff7f0000000000000000000000008a5ba591ed2bed5691a378c65611ed492500f887161480156128c25750808210155b156128f1575f366128d3838561583e565b6128de928290615851565b6128e791615878565b60601c9250505090565b339250505090565b5f60208284031215612909575f80fd5b81357fffffffff0000000000000000000000000000000000000000000000000000000081168114611856575f80fd5b7f4e487b71000000000000000000000000000000000000000000000000000000005f52604160045260245ffd5b6040516080810167ffffffffffffffff8111828210171561298857612988612938565b60405290565b6040516101c0810167ffffffffffffffff8111828210171561298857612988612938565b604051610100810167ffffffffffffffff8111828210171561298857612988612938565b604051610260810167ffffffffffffffff8111828210171561298857612988612938565b6040805190810167ffffffffffffffff8111828210171561298857612988612938565b60405160c0810167ffffffffffffffff8111828210171561298857612988612938565b604051610120810167ffffffffffffffff8111828210171561298857612988612938565b6040516060810167ffffffffffffffff8111828210171561298857612988612938565b604051601f82017fffffffffffffffffffffffffffffffffffffffffffffffffffffffffffffffe016810167ffffffffffffffff81118282101715612ace57612ace612938565b604052919050565b5f67ffffffffffffffff821115612aef57612aef612938565b50601f017fffffffffffffffffffffffffffffffffffffffffffffffffffffffffffffffe01660200190565b5f82601f830112612b2a575f80fd5b8135612b3d612b3882612ad6565b612a87565b818152846020838601011115612b51575f80fd5b816020850160208301375f918101602001919091529392505050565b73ffffffffffffffffffffffffffffffffffffffff81168114612b8e575f80fd5b50565b8035612b9c81612b6d565b919050565b5f67ffffffffffffffff821115612bba57612bba612938565b5060051b60200190565b80356cffffffffffffffffffffffffff81168114612b9c575f80fd5b63ffffffff81168114612b8e575f80fd5b8035612b9c81612be0565b61ffff81168114612b8e575f80fd5b8035612b9c81612bfc565b803562ffffff81168114612b9c575f80fd5b803560ff81168114612b9c575f80fd5b8015158114612b8e575f80fd5b8035612b9c81612c38565b5f6080808385031215612c61575f80fd5b612c69612965565b9150823567ffffffffffffffff811115612c81575f80fd5b8301601f81018513612c91575f80fd5b80356020612ca1612b3883612ba1565b8281526101c09283028401820192828201919089851115612cc0575f80fd5b948301945b84861015612dd55780868b031215612cdb575f80fd5b612ce361298e565b612cec87612bc4565b8152612cf9858801612bf1565b858201526040612d0a818901612bf1565b908201526060612d1b888201612c0b565b90820152612d2a878901612b91565b8189015260a0878101359082015260c0612d45818901612c16565b9082015260e0612d56888201612c28565b90820152610100612d68888201612c45565b90820152610120612d7a888201612c45565b90820152610140612d8c888201612c45565b90820152610160612d9e888201612c45565b90820152610180612db0888201612c45565b908201526101a0612dc2888201612c45565b9082015283529485019491830191612cc5565b50865250612de4868201612bf1565b8186015250505050612df860408301612c28565b6040820152612e0960608301612b91565b606082015292915050565b5f60808284031215612e24575f80fd5b612e2c612965565b90508135612e3981612c38565b81526020820135612e4981612c38565b60208201526040820135612e5c81612c38565b60408201526060820135612e0981612c38565b5f6101608284031215612e80575f80fd5b612e886129b2565b9050813567ffffffffffffffff80821115612ea1575f80fd5b612ead85838601612b1b565b83526020840135915080821115612ec2575f80fd5b612ece85838601612b1b565b60208401526040840135915080821115612ee6575f80fd5b612ef285838601612b1b565b6040840152612f0360608501612b91565b60608401526080840135915080821115612f1b575f80fd5b612f2785838601612b1b565b608084015260a0840135915080821115612f3f575f80fd5b50612f4c84828501612c50565b60a083015250612f5e60c08301612b91565b60c0820152612f708360e08401612e14565b60e082015292915050565b5f805f805f60a08688031215612f8f575f80fd5b85359450602086013567ffffffffffffffff80821115612fad575f80fd5b612fb989838a01612e6f565b95506040880135915080821115612fce575f80fd5b50860160608189031215612fe0575f80fd5b92506060860135612ff081612b6d565b949793965091946080013592915050565b5f8083601f840112613011575f80fd5b50813567ffffffffffffffff811115613028575f80fd5b60208301915083602082850101111561303f575f80fd5b9250929050565b5f805f805f6080868803121561305a575f80fd5b853561306581612b6d565b9450602086013561307581612b6d565b935060408601359250606086013567ffffffffffffffff811115613097575f80fd5b6130a388828901613001565b969995985093965092949392505050565b5f8083601f8401126130c4575f80fd5b50813567ffffffffffffffff8111156130db575f80fd5b6020830191508360208260051b850101111561303f575f80fd5b5f805f805f60608688031215613109575f80fd5b85359450602086013567ffffffffffffffff80821115613127575f80fd5b61313389838a016130b4565b9096509450604088013591508082111561314b575f80fd5b506130a388828901613001565b5f805f805f805f6080888a03121561316e575f80fd5b87359650602088013567ffffffffffffffff8082111561318c575f80fd5b6131988b838c016130b4565b909850965060408a01359150808211156131b0575f80fd5b6131bc8b838c016130b4565b909650945060608a01359150808211156131d4575f80fd5b506131e18a828b01613001565b989b979a50959850939692959293505050565b5f60208284031215613204575f80fd5b813561185681612b6d565b65ffffffffffff81168114612b8e575f80fd5b8035612b9c8161320f565b6dffffffffffffffffffffffffffff81168114612b8e575f80fd5b8035612b9c8161322d565b5f6102608284031215613264575f80fd5b61326c6129d6565b905061327782612c0b565b815261328560208301612c0b565b602082015261329660408301612bf1565b60408201526132a760608301612c45565b60608201526132b860808301612c45565b60808201526132c960a08301612c45565b60a08201526132da60c08301612c45565b60c08201526132eb60e08301612c45565b60e08201526101006132fe818401612c45565b90820152610120613310838201612c45565b90820152610140613322838201612c45565b90820152610160613334838201612c45565b90820152610180613346838201612c45565b908201526101a0613358838201612c45565b908201526101c061336a838201612c45565b908201526101e061337c838201612c45565b9082015261020061338e838201612c45565b908201526102206133a0838201612b91565b908201526102406133b2838201612c0b565b9082015292915050565b5f6133c9612b3884612ba1565b8381529050602080820190600585901b8401868111156133e7575f80fd5b845b8181101561352957803567ffffffffffffffff80821115613408575f80fd5b908701906040828b03121561341b575f80fd5b6134236129fa565b823581528583013582811115613437575f80fd5b8084019350508a601f84011261344b575f80fd5b8235613459612b3882612ba1565b81815260c09091028401870190878101908d831115613476575f80fd5b948801945b828610156135145760c0868f031215613492575f80fd5b61349a612a1d565b86356134a581612be0565b8152868a013586811681146134b8575f80fd5b818b015260408701356134ca81612b6d565b60408201526134db60608801612c45565b60608201526134ec60808801613222565b60808201526134fd60a08801612b91565b60a0820152825260c095909501949088019061347b565b838901525050865250509282019282016133e9565b505050509392505050565b5f82601f830112613543575f80fd5b611856838335602085016133bc565b5f82601f830112613561575f80fd5b81356020613571612b3883612ba1565b82815260069290921b8401810191818101908684111561358f575f80fd5b8286015b848110156135fe57604081890312156135aa575f80fd5b6135b26129fa565b81357bffffffffffffffffffffffffffffffffffffffffffffffffffffffff811681146135dd575f80fd5b8152818501356135ec81612be0565b81860152835291830191604001613593565b509695505050505050565b5f613616612b3884612ba1565b8381529050602080820190600585901b840186811115613634575f80fd5b845b8181101561352957803567ffffffffffffffff80821115613655575f80fd5b908701906080828b031215613668575f80fd5b613670612965565b823561367b81612b6d565b81528286013561368a81612b6d565b81870152604083810135838111156136a0575f80fd5b6136ac8d828701613552565b828401525050606080840135838111156136c4575f80fd5b6136d08d828701613552565b918301919091525086525050928201928201613636565b5f82601f8301126136f6575f80fd5b61185683833560208501613609565b5f613712612b3884612ba1565b8381529050602080820190600585901b840186811115613730575f80fd5b845b8181101561352957803567ffffffffffffffff80821115613751575f80fd5b90870190610340828b031215613765575f80fd5b61376d6129b2565b61377683613222565b8152613783868401612bf1565b868201526040613794818501613248565b9082015260606137a5848201612bf1565b9082015260806137b6848201612b91565b9082015260a06137c88c858301613253565b90820152610300830135828111156137de575f80fd5b6137ea8c828601613534565b60c08301525061032083013582811115613802575f80fd5b61380e8c8286016136e7565b60e08301525086525050928201928201613732565b5f82601f830112613832575f80fd5b61185683833560208501613705565b5f60408284031215613851575f80fd5b50919050565b5f805f805f805f805f60c08a8c03121561386f575f80fd5b6138788a612b91565b985060208a013567ffffffffffffffff80821115613894575f80fd5b6138a08d838e01613001565b909a50985060408c01359150808211156138b8575f80fd5b6138c48d838e01613823565b975060608c01359150808211156138d9575f80fd5b6138e58d838e016130b4565b909750955060808c01359150808211156138fd575f80fd5b6139098d838e01613001565b909550935060a08c0135915080821115613921575f80fd5b5061392e8c828d01613841565b9150509295985092959850929598565b5f815180845260208085019450602084015f5b8381101561398357815173ffffffffffffffffffffffffffffffffffffffff1687529582019590820190600101613951565b509495945050505050565b828152604060208201525f6139a6604083018461393e565b949350505050565b5f80604083850312156139bf575f80fd5b8235915060208301356139d181612b6d565b809150509250929050565b5f60808284031215613851575f80fd5b5f805f805f60a08688031215613a00575f80fd5b85359450602086013567ffffffffffffffff80821115613a1e575f80fd5b613a2a89838a01612e6f565b95506040880135915080821115613a3f575f80fd5b50613a4c888289016139dc565b9350506060860135612ff081612b6d565b5f60208284031215613a6d575f80fd5b813567ffffffffffffffff811115613a83575f80fd5b82016101808185031215611856575f80fd5b5f5b83811015613aaf578181015183820152602001613a97565b50505f910152565b5f8151808452613ace816020860160208601613a95565b601f017fffffffffffffffffffffffffffffffffffffffffffffffffffffffffffffffe0169290920160200192915050565b5f604080830185845260206040818601528186518084526060935060608701915060608160051b8801018389015f5b83811015613baa578983037fffffffffffffffffffffffffffffffffffffffffffffffffffffffffffffffa00185528151805173ffffffffffffffffffffffffffffffffffffffff1684528681015187850152880151888401889052613b9788850182613ab7565b9587019593505090850190600101613b2f565b50909a9950505050505050505050565b5f8060408385031215613bcb575f80fd5b50508035926020909101359150565b5f8060408385031215613beb575f80fd5b82359150602083013567ffffffffffffffff811115613c08575f80fd5b613c1485828601613841565b9150509250929050565b602081525f611856602083018461393e565b5f805f805f60a08688031215613c44575f80fd5b8535613c4f81612b6d565b9450602086013567ffffffffffffffff80821115613c6b575f80fd5b90870190610160828a031215613c7f575f80fd5b90945060408701359080821115613c94575f80fd5b613ca089838a016139dc565b9450606088013593506080880135915080821115613cbc575f80fd5b50613cc988828901613841565b9150509295509295909350565b83815273ffffffffffffffffffffffffffffffffffffffff83166020820152606060408201525f611234606083018461393e565b5f60208284031215613d1a575f80fd5b813567ffffffffffffffff811115613d30575f80fd5b82016101a08185031215611856575f80fd5b5f6080820186835260208681850152604086604086015260606080606087015283875180865260a08801915060a08160051b89010195508489015f5b82811015613df9578988037fffffffffffffffffffffffffffffffffffffffffffffffffffffffffffffff600184528151805173ffffffffffffffffffffffffffffffffffffffff16895287810151888a0152860151868901869052613de6868a0182613ab7565b9850509286019290860190600101613d7e565b50959c9b505050505050505050505050565b8051612b9c81612b6d565b5f60208284031215613e26575f80fd5b815161185681612b6d565b8051608080845281518482018190525f9260a0916020918201918388019190865b82811015613f3d57845180516cffffffffffffffffffffffffff1685528281015163ffffffff908116848701526040808301519091169086015260608082015161ffff16908601528781015173ffffffffffffffffffffffffffffffffffffffff1688860152868101518786015260c08082015162ffffff169086015260e08082015160ff169086015261010080820151151590860152610120808201511515908601526101408082015115159086015261016080820151151590860152610180808201511515908601526101a090810151151590850152938101936101c090930192600101613e52565b508781015163ffffffff16908901525060408087015160ff169088015260608087015173ffffffffffffffffffffffffffffffffffffffff81169189019190915293506109fb565b838152606060208201525f83516101606060840152613fa86101c0840182613ab7565b905060208501517fffffffffffffffffffffffffffffffffffffffffffffffffffffffffffffffa080858403016080860152613fe48383613ab7565b925060408701519150808584030160a08601526140018383613ab7565b92506060870151915061402c60c086018373ffffffffffffffffffffffffffffffffffffffff169052565b60808701519150808584030160e08601526140478383613ab7565b925060a087015191508085840301610100860152506140668282613e31565b91505060c085015161409161012085018273ffffffffffffffffffffffffffffffffffffffff169052565b5060e0850151805115156101408501526020810151151561016085015260408101511515610180850152606081015115156101a085015250604092909201929092529392505050565b5f8083357fffffffffffffffffffffffffffffffffffffffffffffffffffffffffffffffe184360301811261410d575f80fd5b83018035915067ffffffffffffffff821115614127575f80fd5b6020019150600581901b360382131561303f575f80fd5b5f8083357fffffffffffffffffffffffffffffffffffffffffffffffffffffffffffffffe1843603018112614171575f80fd5b83018035915067ffffffffffffffff82111561418b575f80fd5b60200191503681900382131561303f575f80fd5b805161ffff16825260208101516141bc602084018261ffff169052565b5060408101516141d4604084018263ffffffff169052565b5060608101516141e8606084018215159052565b5060808101516141fc608084018215159052565b5060a081015161421060a084018215159052565b5060c081015161422460c084018215159052565b5060e081015161423860e084018215159052565b5061010081810151151590830152610120808201511515908301526101408082015115159083015261016080820151151590830152610180808201511515908301526101a0808201511515908301526101c0808201511515908301526101e080820151151590830152610200808201511515908301526102208082015173ffffffffffffffffffffffffffffffffffffffff16908301526102408082015161ffff811682850152612112565b5f82825180855260208086019550808260051b8401018186015f5b848110156143ea578583037fffffffffffffffffffffffffffffffffffffffffffffffffffffffffffffffe00189528151805184528401516040858501819052815181860181905291860191606090818701905f5b818110156143d3578551805163ffffffff1684528a81015167ffffffffffffffff168b8501528581015173ffffffffffffffffffffffffffffffffffffffff908116878601528582015115158686015260808083015165ffffffffffff169086015260a09182015116908401529489019460c090920191600101614354565b50509b87019b9550505091840191506001016142ff565b5090979650505050505050565b5f815180845260208085019450602084015f5b8381101561398357815180517bffffffffffffffffffffffffffffffffffffffffffffffffffffffff16885283015163ffffffff16838801526040909601959082019060010161440a565b5f82825180855260208086019550808260051b8401018186015f5b848110156143ea577fffffffffffffffffffffffffffffffffffffffffffffffffffffffffffffffe08684030189528151608073ffffffffffffffffffffffffffffffffffffffff808351168652808784015116878701525060408083015182828801526144e0838801826143f7565b92505050606080830151925085820381870152506144fe81836143f7565b9a86019a9450505090830190600101614470565b5f82825180855260208086019550808260051b8401018186015f5b848110156143ea577fffffffffffffffffffffffffffffffffffffffffffffffffffffffffffffffe08684030189528151805165ffffffffffff1684528481015163ffffffff908116868601526040808301516dffffffffffffffffffffffffffff16908601526060808301519091169085015260808082015173ffffffffffffffffffffffffffffffffffffffff169085015260a08082015161034091906145d88288018261419f565b505060c0820151816103008701526145f2828701826142e4565b91505060e0820151915084810361032086015261460f8183614455565b9a86019a945050509083019060010161452d565b81835281816020850137505f602082840101525f60207fffffffffffffffffffffffffffffffffffffffffffffffffffffffffffffffe0601f840116840101905092915050565b848152606060208201525f6146826060830186614512565b8281036040840152614695818587614623565b979650505050505050565b5f602082840312156146b0575f80fd5b5051919050565b5f611856368484613705565b5f82357fffffffffffffffffffffffffffffffffffffffffffffffffffffffffffffffc18336030181126146f5575f80fd5b90910192915050565b5f8383855260208086019550808560051b830101845f5b878110156143ea577fffffffffffffffffffffffffffffffffffffffffffffffffffffffffffffffe085840301895261474e82886146c3565b6040808501823561475e81612b6d565b73ffffffffffffffffffffffffffffffffffffffff80821688528885013591507fffffffffffffffffffffffffffffffffffffffffffffffffffffffffffffffe18536030182126147ad575f80fd5b93018781019390359067ffffffffffffffff8211156147ca575f80fd5b606080830236038613156147dc575f80fd5b888a01859052928290525f928089015b8385101561483e5786356147ff81612b6d565b8316815260ff614810888d01612c28565b168b8201528587013561482281612be0565b63ffffffff1681870152958101956001949094019381016147ec565b9e8a019e98505050948701945050506001919091019050614715565b868152608060208201525f6148726080830188614512565b82810360408401526148858187896146fe565b9050828103606084015261489a818587614623565b9998505050505050505050565b7f4e487b71000000000000000000000000000000000000000000000000000000005f52601160045260245ffd5b808201808211156105cf576105cf6148a7565b73ffffffffffffffffffffffffffffffffffffffff8916815260a060208201525f61491660a08301898b614623565b82810360408401526149288189614512565b9050828103606084015261493d8187896146fe565b90508281036080840152614952818587614623565b9b9a5050505050505050505050565b7f4e487b71000000000000000000000000000000000000000000000000000000005f52600160045260245ffd5b5f606080830187845260208781860152604060606040870152828784526080935060808701905060808860051b880101895f5b8a811015614b06577fffffffffffffffffffffffffffffffffffffffffffffffffffffffffffffff808a84030184526149fa828d6146c3565b8584018135614a0881612b6d565b73ffffffffffffffffffffffffffffffffffffffff80821687528984013591507fffffffffffffffffffffffffffffffffffffffffffffffffffffffffffffffe1843603018212614a57575f80fd5b92018881019290359067ffffffffffffffff821115614a74575f80fd5b8160071b3603841315614a85575f80fd5b868a01899052918190525f918b87015b82841015614af0578435614aa881612b6d565b82168152848b0135614ab981612be0565b63ffffffff16818c0152848a0135614ad081612b6d565b8216818b0152848d01358d820152938b0193600193909301928b01614a95565b978a0197965050509287019250506001016149c1565b50909c9b505050505050505050505050565b5f6020808385031215614b29575f80fd5b825167ffffffffffffffff811115614b3f575f80fd5b8301601f81018513614b4f575f80fd5b8051614b5d612b3882612ba1565b81815260059190911b82018301908381019087831115614b7b575f80fd5b928401925b82841015614695578351614b9381612b6d565b82529284019290840190614b80565b8051612b9c81612c38565b5f60208284031215614bbd575f80fd5b815161185681612c38565b8051612b9c8161320f565b8051612b9c81612be0565b8051612b9c8161322d565b8051612b9c81612bfc565b5f6102608284031215614c05575f80fd5b614c0d6129d6565b9050614c1882614be9565b8152614c2660208301614be9565b6020820152614c3760408301614bd3565b6040820152614c4860608301614ba2565b6060820152614c5960808301614ba2565b6080820152614c6a60a08301614ba2565b60a0820152614c7b60c08301614ba2565b60c0820152614c8c60e08301614ba2565b60e0820152610100614c9f818401614ba2565b90820152610120614cb1838201614ba2565b90820152610140614cc3838201614ba2565b90820152610160614cd5838201614ba2565b90820152610180614ce7838201614ba2565b908201526101a0614cf9838201614ba2565b908201526101c0614d0b838201614ba2565b908201526101e0614d1d838201614ba2565b90820152610200614d2f838201614ba2565b90820152610220614d41838201613e0b565b908201526102406133b2838201614be9565b5f80828403610380811215614d66575f80fd5b61012080821215614d75575f80fd5b614d7d612a40565b9150614d8885614bc8565b8252614d9660208601614bc8565b6020830152614da760408601614bc8565b6040830152614db860608601614bc8565b6060830152614dc960808601614bd3565b6080830152614dda60a08601614bde565b60a0830152614deb60c08601614bd3565b60c0830152614dfc60e08601613e0b565b60e0830152610100808601518184015250819350614e1c86828701614bf4565b925050509250929050565b8035614e3281612b6d565b73ffffffffffffffffffffffffffffffffffffffff16825260ff614e5860208301612c28565b1660208301526040810135614e6c81612be0565b63ffffffff166040830152606090810135910152565b5f8083357fffffffffffffffffffffffffffffffffffffffffffffffffffffffffffffffe1843603018112614eb5575f80fd5b830160208101925035905067ffffffffffffffff811115614ed4575f80fd5b80360382131561303f575f80fd5b60208152614f1060208201614ef684612b91565b73ffffffffffffffffffffffffffffffffffffffff169052565b5f614f1d60208401612b91565b73ffffffffffffffffffffffffffffffffffffffff8116604084015250614f4a6060830160408501614e27565b60c083013560e083015261010060e084013581840152614f6b818501612b91565b9050610120614f918185018373ffffffffffffffffffffffffffffffffffffffff169052565b61014091508085013582850152506101608185013581850152614fb681860186614e82565b61018086810152925090506112346101a085018383614623565b5f82601f830112614fdf575f80fd5b8151614fed612b3882612ad6565b818152846020838601011115615001575f80fd5b6139a6826020830160208701613a95565b5f8060408385031215615023575f80fd5b8251915060208084015167ffffffffffffffff80821115615042575f80fd5b818601915086601f830112615055575f80fd5b8151615063612b3882612ba1565b81815260059190911b83018401908481019089831115615081575f80fd5b8585015b838110156151225780518581111561509b575f80fd5b86016060818d037fffffffffffffffffffffffffffffffffffffffffffffffffffffffffffffffe0018113156150cf575f80fd5b6150d7612a64565b898301516150e481612b6d565b815260408301518a820152908201519087821115615100575f80fd5b61510e8e8b84860101614fd0565b604082015285525050918601918601615085565b508096505050505050509250929050565b5f82357fffffffffffffffffffffffffffffffffffffffffffffffffffffffffffffff818336030181126146f5575f80fd5b5f608080840183357fffffffffffffffffffffffffffffffffffffffffffffffffffffffffffffffe185360301811261519c575f80fd5b8401602081810191359067ffffffffffffffff8211156151ba575f80fd5b6101c080830236038413156151cd575f80fd5b608089529382905260a0938489015f5b8481101561532557615205826151f288612bc4565b6cffffffffffffffffffffffffff169052565b615210848701612bf1565b63ffffffff16848301526040615227878201612bf1565b63ffffffff1690830152606061523e878201612c0b565b61ffff1690830152615251868901612b91565b73ffffffffffffffffffffffffffffffffffffffff1688830152858701358783015260c0615280818801612c16565b62ffffff169083015260e0615296878201612c28565b60ff16908301526101006152ab878201612c45565b1515908301526101206152bf878201612c45565b1515908301526101406152d3878201612c45565b1515908301526101606152e7878201612c45565b1515908301526101806152fb878201612c45565b1515908301526101a061530f878201612c45565b15159083015294820194908201906001016151dd565b5061533260208a01612bf1565b63ffffffff811660208c0152965061534c60408a01612c28565b60ff811660408c0152965061536360608a01612b91565b73ffffffffffffffffffffffffffffffffffffffff811660608c0152965061489a565b803561539181612c38565b1515825260208101356153a381612c38565b1515602083015260408101356153b881612c38565b1515604083015260608101356153cd81612c38565b8015156060840152505050565b838152606060208201525f6153ef8485614e82565b61016060608501526154066101c085018284614623565b9150506154166020860186614e82565b7fffffffffffffffffffffffffffffffffffffffffffffffffffffffffffffffa08086850301608087015261544c848385614623565b935061545b6040890189614e82565b93509150808685030160a0870152615474848484614623565b935061548260608901612b91565b73ffffffffffffffffffffffffffffffffffffffff811660c088015292506154ad6080890189614e82565b93509150808685030160e08701526154c6848484614623565b93506154d560a0890189615133565b9250808685030161010087015250506154ee8282615165565b9150506154fd60c08601612b91565b73ffffffffffffffffffffffffffffffffffffffff1661012084015261552a610140840160e08701615386565b604092909201929092529392505050565b6020815261554f60208201614ef684612b91565b5f61555c60208401612b91565b73ffffffffffffffffffffffffffffffffffffffff81166040840152506040830135606083015260608301356080830152608083013560a083015260a083013560c08301526155b160e0830160c08501614e27565b6155be6101408401612c45565b6101606155ce8185018315159052565b61018091508085013582850152506155e881850185614e82565b6101a08581015291506112346101c085018383614623565b5f805f8060808587031215615613575f80fd5b845193506020850151925060408501519150606085015167ffffffffffffffff8082111561563f575f80fd5b818701915087601f830112615652575f80fd5b8151615660612b3882612ba1565b8082825260208201915060208360051b86010192508a831115615681575f80fd5b602085015b838110156157265780518581111561569c575f80fd5b86016060818e037fffffffffffffffffffffffffffffffffffffffffffffffffffffffffffffffe00112156156cf575f80fd5b6156d7612a64565b60208201516156e581612b6d565b815260408201516020820152606082015187811115615702575f80fd5b6157118f602083860101614fd0565b60408301525084525060209283019201615686565b50979a9699509497505050505050565b7f4e487b71000000000000000000000000000000000000000000000000000000005f52603260045260245ffd5b5f82357ffffffffffffffffffffffffffffffffffffffffffffffffffffffffffffffd21833603018112615795575f80fd5b9190910192915050565b5f602082840312156157af575f80fd5b813561185681612bfc565b5f602082840312156157ca575f80fd5b813561185681612be0565b5f602082840312156157e5575f80fd5b813561185681612c38565b5f60208284031215615800575f80fd5b81356118568161320f565b5f6020828403121561581b575f80fd5b81356118568161322d565b5f6118563684846133bc565b5f611856368484613609565b818103818111156105cf576105cf6148a7565b5f808585111561585f575f80fd5b8386111561586b575f80fd5b5050820193919092039150565b7fffffffffffffffffffffffffffffffffffffffff00000000000000000000000081358181169160148510156158b85780818660140360031b1b83161692505b50509291505056fea26469706673582212207b41e4172ce3a68659302fb5b1a32b3fdef5e69264969ca6c61d1ced566d392264736f6c63430008170033",
	"gitCommit": "c2d49ce3572f55492d3e3f573a87b7bd085705d9",
	"history": []
}