{
	"format": "sphinx-sol-ct-artifact-1",
	"merkleRoot": "0xbc56bf106c0b3f54b096808e58fa8ede798e61ce44b74dd8c4452f33464b1d3b",
	"address": "0x18a98baaa3dfbd30501c3345ddb45479316510c5",
	"sourceName": "src/JBOmnichainDeployer.sol",
	"contractName": "JBOmnichainDeployer",
	"chainId": "0x1",
	"abi": [
		{
			"inputs": [
				{
					"internalType": "contract IJBController",
					"name": "controller",
					"type": "address"
				},
				{
					"internalType": "contract IJBSuckerRegistry",
					"name": "suckerRegistry",
					"type": "address"
				},
				{
					"internalType": "contract IJB721TiersHookProjectDeployer",
					"name": "hookProjectDeployer",
					"type": "address"
				},
				{
					"internalType": "address",
					"name": "trustedForwarder",
					"type": "address"
				}
			],
			"stateMutability": "nonpayable",
			"type": "constructor"
		},
		{
			"inputs": [],
			"name": "CONTROLLER",
			"outputs": [
				{
					"internalType": "contract IJBController",
					"name": "",
					"type": "address"
				}
			],
			"stateMutability": "view",
			"type": "function"
		},
		{
			"inputs": [],
			"name": "HOOK_PROJECT_DEPLOYER",
			"outputs": [
				{
					"internalType": "contract IJB721TiersHookProjectDeployer",
					"name": "",
					"type": "address"
				}
			],
			"stateMutability": "view",
			"type": "function"
		},
		{
			"inputs": [],
			"name": "PERMISSIONS",
			"outputs": [
				{
					"internalType": "contract IJBPermissions",
					"name": "",
					"type": "address"
				}
			],
			"stateMutability": "view",
			"type": "function"
		},
		{
			"inputs": [],
			"name": "PROJECTS",
			"outputs": [
				{
					"internalType": "contract IJBProjects",
					"name": "",
					"type": "address"
				}
			],
			"stateMutability": "view",
			"type": "function"
		},
		{
			"inputs": [],
			"name": "SUCKER_REGISTRY",
			"outputs": [
				{
					"internalType": "contract IJBSuckerRegistry",
					"name": "",
					"type": "address"
				}
			],
			"stateMutability": "view",
			"type": "function"
		},
		{
			"inputs": [
				{
					"internalType": "uint256",
					"name": "projectId",
					"type": "uint256"
				},
				{
					"components": [
						{
							"components": [
								{
									"internalType": "contract IJBSuckerDeployer",
									"name": "deployer",
									"type": "address"
								},
								{
									"components": [
										{
											"internalType": "address",
											"name": "localToken",
											"type": "address"
										},
										{
											"internalType": "uint32",
											"name": "minGas",
											"type": "uint32"
										},
										{
											"internalType": "address",
											"name": "remoteToken",
											"type": "address"
										},
										{
											"internalType": "uint256",
											"name": "minBridgeAmount",
											"type": "uint256"
										}
									],
									"internalType": "struct JBTokenMapping[]",
									"name": "mappings",
									"type": "tuple[]"
								}
							],
							"internalType": "struct JBSuckerDeployerConfig[]",
							"name": "deployerConfigurations",
							"type": "tuple[]"
						},
						{
							"internalType": "bytes32",
							"name": "salt",
							"type": "bytes32"
						}
					],
					"internalType": "struct REVSuckerDeploymentConfig",
					"name": "suckerDeploymentConfiguration",
					"type": "tuple"
				}
			],
			"name": "deploySuckersFor",
			"outputs": [
				{
					"internalType": "address[]",
					"name": "suckers",
					"type": "address[]"
				}
			],
			"stateMutability": "nonpayable",
			"type": "function"
		},
		{
			"inputs": [
				{
					"internalType": "address",
					"name": "forwarder",
					"type": "address"
				}
			],
			"name": "isTrustedForwarder",
			"outputs": [
				{
					"internalType": "bool",
					"name": "",
					"type": "bool"
				}
			],
			"stateMutability": "view",
			"type": "function"
		},
		{
			"inputs": [
				{
					"internalType": "address",
					"name": "owner",
					"type": "address"
				},
				{
					"components": [
						{
							"internalType": "string",
							"name": "name",
							"type": "string"
						},
						{
							"internalType": "string",
							"name": "symbol",
							"type": "string"
						},
						{
							"internalType": "string",
							"name": "baseUri",
							"type": "string"
						},
						{
							"internalType": "contract IJB721TokenUriResolver",
							"name": "tokenUriResolver",
							"type": "address"
						},
						{
							"internalType": "string",
							"name": "contractUri",
							"type": "string"
						},
						{
							"components": [
								{
									"components": [
										{
											"internalType": "uint104",
											"name": "price",
											"type": "uint104"
										},
										{
											"internalType": "uint32",
											"name": "initialSupply",
											"type": "uint32"
										},
										{
											"internalType": "uint32",
											"name": "votingUnits",
											"type": "uint32"
										},
										{
											"internalType": "uint16",
											"name": "reserveFrequency",
											"type": "uint16"
										},
										{
											"internalType": "address",
											"name": "reserveBeneficiary",
											"type": "address"
										},
										{
											"internalType": "bytes32",
											"name": "encodedIPFSUri",
											"type": "bytes32"
										},
										{
											"internalType": "uint24",
											"name": "category",
											"type": "uint24"
										},
										{
											"internalType": "uint8",
											"name": "discountPercent",
											"type": "uint8"
										},
										{
											"internalType": "bool",
											"name": "allowOwnerMint",
											"type": "bool"
										},
										{
											"internalType": "bool",
											"name": "useReserveBeneficiaryAsDefault",
											"type": "bool"
										},
										{
											"internalType": "bool",
											"name": "transfersPausable",
											"type": "bool"
										},
										{
											"internalType": "bool",
											"name": "useVotingUnits",
											"type": "bool"
										},
										{
											"internalType": "bool",
											"name": "cannotBeRemoved",
											"type": "bool"
										},
										{
											"internalType": "bool",
											"name": "cannotIncreaseDiscountPercent",
											"type": "bool"
										}
									],
									"internalType": "struct JB721TierConfig[]",
									"name": "tiers",
									"type": "tuple[]"
								},
								{
									"internalType": "uint32",
									"name": "currency",
									"type": "uint32"
								},
								{
									"internalType": "uint8",
									"name": "decimals",
									"type": "uint8"
								},
								{
									"internalType": "contract IJBPrices",
									"name": "prices",
									"type": "address"
								}
							],
							"internalType": "struct JB721InitTiersConfig",
							"name": "tiersConfig",
							"type": "tuple"
						},
						{
							"internalType": "address",
							"name": "reserveBeneficiary",
							"type": "address"
						},
						{
							"components": [
								{
									"internalType": "bool",
									"name": "noNewTiersWithReserves",
									"type": "bool"
								},
								{
									"internalType": "bool",
									"name": "noNewTiersWithVotes",
									"type": "bool"
								},
								{
									"internalType": "bool",
									"name": "noNewTiersWithOwnerMinting",
									"type": "bool"
								},
								{
									"internalType": "bool",
									"name": "preventOverspending",
									"type": "bool"
								}
							],
							"internalType": "struct JB721TiersHookFlags",
							"name": "flags",
							"type": "tuple"
						}
					],
					"internalType": "struct JBDeploy721TiersHookConfig",
					"name": "deployTiersHookConfig",
					"type": "tuple"
				},
				{
					"components": [
						{
							"internalType": "string",
							"name": "projectUri",
							"type": "string"
						},
						{
							"components": [
								{
									"internalType": "uint48",
									"name": "mustStartAtOrAfter",
									"type": "uint48"
								},
								{
									"internalType": "uint32",
									"name": "duration",
									"type": "uint32"
								},
								{
									"internalType": "uint112",
									"name": "weight",
									"type": "uint112"
								},
								{
									"internalType": "uint32",
									"name": "weightCutPercent",
									"type": "uint32"
								},
								{
									"internalType": "contract IJBRulesetApprovalHook",
									"name": "approvalHook",
									"type": "address"
								},
								{
									"components": [
										{
											"internalType": "uint16",
											"name": "reservedPercent",
											"type": "uint16"
										},
										{
											"internalType": "uint16",
											"name": "cashOutTaxRate",
											"type": "uint16"
										},
										{
											"internalType": "uint32",
											"name": "baseCurrency",
											"type": "uint32"
										},
										{
											"internalType": "bool",
											"name": "pausePay",
											"type": "bool"
										},
										{
											"internalType": "bool",
											"name": "pauseCreditTransfers",
											"type": "bool"
										},
										{
											"internalType": "bool",
											"name": "allowOwnerMinting",
											"type": "bool"
										},
										{
											"internalType": "bool",
											"name": "allowTerminalMigration",
											"type": "bool"
										},
										{
											"internalType": "bool",
											"name": "allowSetTerminals",
											"type": "bool"
										},
										{
											"internalType": "bool",
											"name": "allowSetController",
											"type": "bool"
										},
										{
											"internalType": "bool",
											"name": "allowAddAccountingContext",
											"type": "bool"
										},
										{
											"internalType": "bool",
											"name": "allowAddPriceFeed",
											"type": "bool"
										},
										{
											"internalType": "bool",
											"name": "ownerMustSendPayouts",
											"type": "bool"
										},
										{
											"internalType": "bool",
											"name": "holdFees",
											"type": "bool"
										},
										{
											"internalType": "bool",
											"name": "useTotalSurplusForCashOuts",
											"type": "bool"
										},
										{
											"internalType": "bool",
											"name": "useDataHookForCashOut",
											"type": "bool"
										},
										{
											"internalType": "uint16",
											"name": "metadata",
											"type": "uint16"
										}
									],
									"internalType": "struct JBPayDataHookRulesetMetadata",
									"name": "metadata",
									"type": "tuple"
								},
								{
									"components": [
										{
											"internalType": "uint256",
											"name": "groupId",
											"type": "uint256"
										},
										{
											"components": [
												{
													"internalType": "uint32",
													"name": "percent",
													"type": "uint32"
												},
												{
													"internalType": "uint64",
													"name": "projectId",
													"type": "uint64"
												},
												{
													"internalType": "address payable",
													"name": "beneficiary",
													"type": "address"
												},
												{
													"internalType": "bool",
													"name": "preferAddToBalance",
													"type": "bool"
												},
												{
													"internalType": "uint48",
													"name": "lockedUntil",
													"type": "uint48"
												},
												{
													"internalType": "contract IJBSplitHook",
													"name": "hook",
													"type": "address"
												}
											],
											"internalType": "struct JBSplit[]",
											"name": "splits",
											"type": "tuple[]"
										}
									],
									"internalType": "struct JBSplitGroup[]",
									"name": "splitGroups",
									"type": "tuple[]"
								},
								{
									"components": [
										{
											"internalType": "address",
											"name": "terminal",
											"type": "address"
										},
										{
											"internalType": "address",
											"name": "token",
											"type": "address"
										},
										{
											"components": [
												{
													"internalType": "uint224",
													"name": "amount",
													"type": "uint224"
												},
												{
													"internalType": "uint32",
													"name": "currency",
													"type": "uint32"
												}
											],
											"internalType": "struct JBCurrencyAmount[]",
											"name": "payoutLimits",
											"type": "tuple[]"
										},
										{
											"components": [
												{
													"internalType": "uint224",
													"name": "amount",
													"type": "uint224"
												},
												{
													"internalType": "uint32",
													"name": "currency",
													"type": "uint32"
												}
											],
											"internalType": "struct JBCurrencyAmount[]",
											"name": "surplusAllowances",
											"type": "tuple[]"
										}
									],
									"internalType": "struct JBFundAccessLimitGroup[]",
									"name": "fundAccessLimitGroups",
									"type": "tuple[]"
								}
							],
							"internalType": "struct JBPayDataHookRulesetConfig[]",
							"name": "rulesetConfigurations",
							"type": "tuple[]"
						},
						{
							"components": [
								{
									"internalType": "contract IJBTerminal",
									"name": "terminal",
									"type": "address"
								},
								{
									"components": [
										{
											"internalType": "address",
											"name": "token",
											"type": "address"
										},
										{
											"internalType": "uint8",
											"name": "decimals",
											"type": "uint8"
										},
										{
											"internalType": "uint32",
											"name": "currency",
											"type": "uint32"
										}
									],
									"internalType": "struct JBAccountingContext[]",
									"name": "accountingContextsToAccept",
									"type": "tuple[]"
								}
							],
							"internalType": "struct JBTerminalConfig[]",
							"name": "terminalConfigurations",
							"type": "tuple[]"
						},
						{
							"internalType": "string",
							"name": "memo",
							"type": "string"
						}
					],
					"internalType": "struct JBLaunchProjectConfig",
					"name": "launchProjectConfig",
					"type": "tuple"
				},
				{
					"internalType": "bytes32",
					"name": "salt",
					"type": "bytes32"
				},
				{
					"components": [
						{
							"components": [
								{
									"internalType": "contract IJBSuckerDeployer",
									"name": "deployer",
									"type": "address"
								},
								{
									"components": [
										{
											"internalType": "address",
											"name": "localToken",
											"type": "address"
										},
										{
											"internalType": "uint32",
											"name": "minGas",
											"type": "uint32"
										},
										{
											"internalType": "address",
											"name": "remoteToken",
											"type": "address"
										},
										{
											"internalType": "uint256",
											"name": "minBridgeAmount",
											"type": "uint256"
										}
									],
									"internalType": "struct JBTokenMapping[]",
									"name": "mappings",
									"type": "tuple[]"
								}
							],
							"internalType": "struct JBSuckerDeployerConfig[]",
							"name": "deployerConfigurations",
							"type": "tuple[]"
						},
						{
							"internalType": "bytes32",
							"name": "salt",
							"type": "bytes32"
						}
					],
					"internalType": "struct REVSuckerDeploymentConfig",
					"name": "suckerDeploymentConfiguration",
					"type": "tuple"
				}
			],
			"name": "launch721ProjectFor",
			"outputs": [
				{
					"internalType": "uint256",
					"name": "projectId",
					"type": "uint256"
				},
				{
					"internalType": "contract IJB721TiersHook",
					"name": "hook",
					"type": "address"
				},
				{
					"internalType": "address[]",
					"name": "suckers",
					"type": "address[]"
				}
			],
			"stateMutability": "nonpayable",
			"type": "function"
		},
		{
			"inputs": [
				{
					"internalType": "address",
					"name": "owner",
					"type": "address"
				},
				{
					"internalType": "string",
					"name": "projectUri",
					"type": "string"
				},
				{
					"components": [
						{
							"internalType": "uint48",
							"name": "mustStartAtOrAfter",
							"type": "uint48"
						},
						{
							"internalType": "uint32",
							"name": "duration",
							"type": "uint32"
						},
						{
							"internalType": "uint112",
							"name": "weight",
							"type": "uint112"
						},
						{
							"internalType": "uint32",
							"name": "weightCutPercent",
							"type": "uint32"
						},
						{
							"internalType": "contract IJBRulesetApprovalHook",
							"name": "approvalHook",
							"type": "address"
						},
						{
							"components": [
								{
									"internalType": "uint16",
									"name": "reservedPercent",
									"type": "uint16"
								},
								{
									"internalType": "uint16",
									"name": "cashOutTaxRate",
									"type": "uint16"
								},
								{
									"internalType": "uint32",
									"name": "baseCurrency",
									"type": "uint32"
								},
								{
									"internalType": "bool",
									"name": "pausePay",
									"type": "bool"
								},
								{
									"internalType": "bool",
									"name": "pauseCreditTransfers",
									"type": "bool"
								},
								{
									"internalType": "bool",
									"name": "allowOwnerMinting",
									"type": "bool"
								},
								{
									"internalType": "bool",
									"name": "allowSetCustomToken",
									"type": "bool"
								},
								{
									"internalType": "bool",
									"name": "allowTerminalMigration",
									"type": "bool"
								},
								{
									"internalType": "bool",
									"name": "allowSetTerminals",
									"type": "bool"
								},
								{
									"internalType": "bool",
									"name": "allowSetController",
									"type": "bool"
								},
								{
									"internalType": "bool",
									"name": "allowAddAccountingContext",
									"type": "bool"
								},
								{
									"internalType": "bool",
									"name": "allowAddPriceFeed",
									"type": "bool"
								},
								{
									"internalType": "bool",
									"name": "ownerMustSendPayouts",
									"type": "bool"
								},
								{
									"internalType": "bool",
									"name": "holdFees",
									"type": "bool"
								},
								{
									"internalType": "bool",
									"name": "useTotalSurplusForCashOuts",
									"type": "bool"
								},
								{
									"internalType": "bool",
									"name": "useDataHookForPay",
									"type": "bool"
								},
								{
									"internalType": "bool",
									"name": "useDataHookForCashOut",
									"type": "bool"
								},
								{
									"internalType": "address",
									"name": "dataHook",
									"type": "address"
								},
								{
									"internalType": "uint16",
									"name": "metadata",
									"type": "uint16"
								}
							],
							"internalType": "struct JBRulesetMetadata",
							"name": "metadata",
							"type": "tuple"
						},
						{
							"components": [
								{
									"internalType": "uint256",
									"name": "groupId",
									"type": "uint256"
								},
								{
									"components": [
										{
											"internalType": "uint32",
											"name": "percent",
											"type": "uint32"
										},
										{
											"internalType": "uint64",
											"name": "projectId",
											"type": "uint64"
										},
										{
											"internalType": "address payable",
											"name": "beneficiary",
											"type": "address"
										},
										{
											"internalType": "bool",
											"name": "preferAddToBalance",
											"type": "bool"
										},
										{
											"internalType": "uint48",
											"name": "lockedUntil",
											"type": "uint48"
										},
										{
											"internalType": "contract IJBSplitHook",
											"name": "hook",
											"type": "address"
										}
									],
									"internalType": "struct JBSplit[]",
									"name": "splits",
									"type": "tuple[]"
								}
							],
							"internalType": "struct JBSplitGroup[]",
							"name": "splitGroups",
							"type": "tuple[]"
						},
						{
							"components": [
								{
									"internalType": "address",
									"name": "terminal",
									"type": "address"
								},
								{
									"internalType": "address",
									"name": "token",
									"type": "address"
								},
								{
									"components": [
										{
											"internalType": "uint224",
											"name": "amount",
											"type": "uint224"
										},
										{
											"internalType": "uint32",
											"name": "currency",
											"type": "uint32"
										}
									],
									"internalType": "struct JBCurrencyAmount[]",
									"name": "payoutLimits",
									"type": "tuple[]"
								},
								{
									"components": [
										{
											"internalType": "uint224",
											"name": "amount",
											"type": "uint224"
										},
										{
											"internalType": "uint32",
											"name": "currency",
											"type": "uint32"
										}
									],
									"internalType": "struct JBCurrencyAmount[]",
									"name": "surplusAllowances",
									"type": "tuple[]"
								}
							],
							"internalType": "struct JBFundAccessLimitGroup[]",
							"name": "fundAccessLimitGroups",
							"type": "tuple[]"
						}
					],
					"internalType": "struct JBRulesetConfig[]",
					"name": "rulesetConfigurations",
					"type": "tuple[]"
				},
				{
					"components": [
						{
							"internalType": "contract IJBTerminal",
							"name": "terminal",
							"type": "address"
						},
						{
							"components": [
								{
									"internalType": "address",
									"name": "token",
									"type": "address"
								},
								{
									"internalType": "uint8",
									"name": "decimals",
									"type": "uint8"
								},
								{
									"internalType": "uint32",
									"name": "currency",
									"type": "uint32"
								}
							],
							"internalType": "struct JBAccountingContext[]",
							"name": "accountingContextsToAccept",
							"type": "tuple[]"
						}
					],
					"internalType": "struct JBTerminalConfig[]",
					"name": "terminalConfigurations",
					"type": "tuple[]"
				},
				{
					"internalType": "string",
					"name": "memo",
					"type": "string"
				},
				{
					"components": [
						{
							"components": [
								{
									"internalType": "contract IJBSuckerDeployer",
									"name": "deployer",
									"type": "address"
								},
								{
									"components": [
										{
											"internalType": "address",
											"name": "localToken",
											"type": "address"
										},
										{
											"internalType": "uint32",
											"name": "minGas",
											"type": "uint32"
										},
										{
											"internalType": "address",
											"name": "remoteToken",
											"type": "address"
										},
										{
											"internalType": "uint256",
											"name": "minBridgeAmount",
											"type": "uint256"
										}
									],
									"internalType": "struct JBTokenMapping[]",
									"name": "mappings",
									"type": "tuple[]"
								}
							],
							"internalType": "struct JBSuckerDeployerConfig[]",
							"name": "deployerConfigurations",
							"type": "tuple[]"
						},
						{
							"internalType": "bytes32",
							"name": "salt",
							"type": "bytes32"
						}
					],
					"internalType": "struct REVSuckerDeploymentConfig",
					"name": "suckerDeploymentConfiguration",
					"type": "tuple"
				}
			],
			"name": "launchProjectFor",
			"outputs": [
				{
					"internalType": "uint256",
					"name": "projectId",
					"type": "uint256"
				},
				{
					"internalType": "address[]",
					"name": "suckers",
					"type": "address[]"
				}
			],
			"stateMutability": "nonpayable",
			"type": "function"
		},
		{
			"inputs": [
				{
					"internalType": "address",
					"name": "",
					"type": "address"
				},
				{
					"internalType": "address",
					"name": "",
					"type": "address"
				},
				{
					"internalType": "uint256",
					"name": "",
					"type": "uint256"
				},
				{
					"internalType": "bytes",
					"name": "",
					"type": "bytes"
				}
			],
			"name": "onERC721Received",
			"outputs": [
				{
					"internalType": "bytes4",
					"name": "",
					"type": "bytes4"
				}
			],
			"stateMutability": "view",
			"type": "function"
		},
		{
			"inputs": [],
			"name": "trustedForwarder",
			"outputs": [
				{
					"internalType": "address",
					"name": "",
					"type": "address"
				}
			],
			"stateMutability": "view",
			"type": "function"
		},
		{
			"inputs": [
				{
					"internalType": "address",
					"name": "account",
					"type": "address"
				},
				{
					"internalType": "address",
					"name": "sender",
					"type": "address"
				},
				{
					"internalType": "uint256",
					"name": "projectId",
					"type": "uint256"
				},
				{
					"internalType": "uint256",
					"name": "permissionId",
					"type": "uint256"
				}
			],
			"name": "JBPermissioned_Unauthorized",
			"type": "error"
		}
	],
	"args": [],
	"solcInputHash": "9f14a5a2dbb495d768205e7aa86ccf39",
	"bytecode": "0x61014060405234801562000011575f80fd5b50604051620029963803806200299683398101604081905262000034916200014c565b836001600160a01b031663f434c9146040518163ffffffff1660e01b8152600401602060405180830381865afa15801562000071573d5f803e3d5ffd5b505050506040513d601f19601f82011682018060405250810190620000979190620001b1565b6001600160a01b0380831660805290811660a052841660c08190526040805163293c499960e01b8152905163293c4999916004808201926020929091908290030181865afa158015620000ec573d5f803e3d5ffd5b505050506040513d601f19601f82011682018060405250810190620001129190620001b1565b6001600160a01b0390811660e0529283166101205250166101005250620001d6565b6001600160a01b038116811462000149575f80fd5b50565b5f805f806080858703121562000160575f80fd5b84516200016d8162000134565b6020860151909450620001808162000134565b6040860151909350620001938162000134565b6060860151909250620001a68162000134565b939692955090935050565b5f60208284031215620001c2575f80fd5b8151620001cf8162000134565b9392505050565b60805160a05160c05160e051610100516101205161271d620002795f395f818161022d01528181610406015281816106b6015261090f01525f818161016201526107fa01525f8181610116015281816102f801528181610592015281816106430152610a9b01525f818161029601528181610351015261083901525f81816102bd0152610bb601525f8181610194015281816102040152610cac015261271d5ff3fe608060405234801561000f575f80fd5b50600436106100c4575f3560e01c80637da0a8771161007d578063beecbcbb11610058578063beecbcbb1461026f578063ee0fc12114610291578063f434c914146102b8575f80fd5b80637da0a87714610202578063b5d2553314610228578063b78edb661461024f575f80fd5b806336f8937e116100ad57806336f8937e1461015d578063572b6c051461018457806365f4aad0146101e1575f80fd5b8063150b7a02146100c8578063293c499914610111575b5f80fd5b6100db6100d6366004610d89565b6102df565b6040517fffffffff0000000000000000000000000000000000000000000000000000000090911681526020015b60405180910390f35b6101387f000000000000000000000000000000000000000000000000000000000000000081565b60405173ffffffffffffffffffffffffffffffffffffffff9091168152602001610108565b6101387f000000000000000000000000000000000000000000000000000000000000000081565b6101d1610192366004610df7565b7f000000000000000000000000000000000000000000000000000000000000000073ffffffffffffffffffffffffffffffffffffffff90811691161490565b6040519015158152602001610108565b6101f46101ef366004610e69565b61034c565b604051610108929190610fa6565b7f0000000000000000000000000000000000000000000000000000000000000000610138565b6101387f000000000000000000000000000000000000000000000000000000000000000081565b61026261025d366004610fc6565b6105f8565b604051610108919061100a565b61028261027d36600461101c565b6107f4565b604051610108939291906110c9565b6101387f000000000000000000000000000000000000000000000000000000000000000081565b6101387f000000000000000000000000000000000000000000000000000000000000000081565b5f3373ffffffffffffffffffffffffffffffffffffffff7f00000000000000000000000000000000000000000000000000000000000000001614610321575f80fd5b507f150b7a020000000000000000000000000000000000000000000000000000000095945050505050565b5f60607f000000000000000000000000000000000000000000000000000000000000000073ffffffffffffffffffffffffffffffffffffffff16635c7465e5308d8d8d8d8d8d8d8d6040518a63ffffffff1660e01b81526004016103b8999897969594939291906118f4565b6020604051808303815f875af11580156103d4573d5f803e3d5ffd5b505050506040513d601f19601f820116820180604052508101906103f89190611ad6565b9150602083013515610540577f000000000000000000000000000000000000000000000000000000000000000073ffffffffffffffffffffffffffffffffffffffff16632f3f50e083856020013561044e610afd565b60405160200161047e92919091825273ffffffffffffffffffffffffffffffffffffffff16602082015260400190565b604080517fffffffffffffffffffffffffffffffffffffffffffffffffffffffffffffffe081840301815291905280516020909101206104be8780611aed565b6040518563ffffffff1660e01b81526004016104dd9493929190611b51565b5f604051808303815f875af11580156104f8573d5f803e3d5ffd5b505050506040513d5f823e601f3d9081017fffffffffffffffffffffffffffffffffffffffffffffffffffffffffffffffe016820160405261053d9190810190611d11565b90505b6040517f23b872dd00000000000000000000000000000000000000000000000000000000815230600482015273ffffffffffffffffffffffffffffffffffffffff8d81166024830152604482018490527f000000000000000000000000000000000000000000000000000000000000000016906323b872dd906064015f604051808303815f87803b1580156105d3575f80fd5b505af11580156105e5573d5f803e3d5ffd5b505050509a509a98505050505050505050565b6040517f6352211e000000000000000000000000000000000000000000000000000000008152600481018390526060906106b49073ffffffffffffffffffffffffffffffffffffffff7f00000000000000000000000000000000000000000000000000000000000000001690636352211e90602401602060405180830381865afa158015610688573d5f803e3d5ffd5b505050506040513d601f19601f820116820180604052508101906106ac9190611def565b84601d610b0b565b7f000000000000000000000000000000000000000000000000000000000000000073ffffffffffffffffffffffffffffffffffffffff16632f3f50e08484602001356106fe610afd565b60405160200161072e92919091825273ffffffffffffffffffffffffffffffffffffffff16602082015260400190565b604080517fffffffffffffffffffffffffffffffffffffffffffffffffffffffffffffffe0818403018152919052805160209091012061076e8680611aed565b6040518563ffffffff1660e01b815260040161078d9493929190611b51565b5f604051808303815f875af11580156107a8573d5f803e3d5ffd5b505050506040513d5f823e601f3d9081017fffffffffffffffffffffffffffffffffffffffffffffffffffffffffffffffe01682016040526107ed9190810190611d11565b9392505050565b5f8060607f000000000000000000000000000000000000000000000000000000000000000073ffffffffffffffffffffffffffffffffffffffff1663ea38480b3089897f0000000000000000000000000000000000000000000000000000000000000000610860610afd565b6040805173ffffffffffffffffffffffffffffffffffffffff909216602083015281018c9052606001604051602081830303815290604052805190602001206040518663ffffffff1660e01b81526004016108bf959493929190612442565b60408051808303815f875af11580156108da573d5f803e3d5ffd5b505050506040513d601f19601f820116820180604052508101906108fe91906125f1565b9093509150602084013515610a49577f000000000000000000000000000000000000000000000000000000000000000073ffffffffffffffffffffffffffffffffffffffff16632f3f50e0848660200135610957610afd565b60405160200161098792919091825273ffffffffffffffffffffffffffffffffffffffff16602082015260400190565b604080517fffffffffffffffffffffffffffffffffffffffffffffffffffffffffffffffe081840301815291905280516020909101206109c78880611aed565b6040518563ffffffff1660e01b81526004016109e69493929190611b51565b5f604051808303815f875af1158015610a01573d5f803e3d5ffd5b505050506040513d5f823e601f3d9081017fffffffffffffffffffffffffffffffffffffffffffffffffffffffffffffffe0168201604052610a469190810190611d11565b90505b6040517f23b872dd00000000000000000000000000000000000000000000000000000000815230600482015273ffffffffffffffffffffffffffffffffffffffff8981166024830152604482018590527f000000000000000000000000000000000000000000000000000000000000000016906323b872dd906064015f604051808303815f87803b158015610adc575f80fd5b505af1158015610aee573d5f803e3d5ffd5b50505050955095509592505050565b5f610b06610c90565b905090565b5f610b14610afd565b90508373ffffffffffffffffffffffffffffffffffffffff168173ffffffffffffffffffffffffffffffffffffffff1614158015610c2157506040517f348b684e00000000000000000000000000000000000000000000000000000000815273ffffffffffffffffffffffffffffffffffffffff82811660048301528581166024830152604482018590526064820184905260016084830181905260a48301527f0000000000000000000000000000000000000000000000000000000000000000169063348b684e9060c401602060405180830381865afa158015610bfb573d5f803e3d5ffd5b505050506040513d601f19601f82011682018060405250810190610c1f919061261f565b155b15610c8a576040517f264deeaa00000000000000000000000000000000000000000000000000000000815273ffffffffffffffffffffffffffffffffffffffff808616600483015282166024820152604481018490526064810183905260840160405180910390fd5b50505050565b5f3660143373ffffffffffffffffffffffffffffffffffffffff7f000000000000000000000000000000000000000000000000000000000000000016148015610cd95750808210155b15610d08575f36610cea838561263a565b610cf5928290612678565b610cfe9161269f565b60601c9250505090565b339250505090565b73ffffffffffffffffffffffffffffffffffffffff81168114610d31575f80fd5b50565b8035610d3f81610d10565b919050565b5f8083601f840112610d54575f80fd5b50813567ffffffffffffffff811115610d6b575f80fd5b602083019150836020828501011115610d82575f80fd5b9250929050565b5f805f805f60808688031215610d9d575f80fd5b8535610da881610d10565b94506020860135610db881610d10565b935060408601359250606086013567ffffffffffffffff811115610dda575f80fd5b610de688828901610d44565b969995985093965092949392505050565b5f60208284031215610e07575f80fd5b81356107ed81610d10565b5f8083601f840112610e22575f80fd5b50813567ffffffffffffffff811115610e39575f80fd5b6020830191508360208260051b8501011115610d82575f80fd5b5f60408284031215610e63575f80fd5b50919050565b5f805f805f805f805f8060c08b8d031215610e82575f80fd5b610e8b8b610d34565b995060208b013567ffffffffffffffff80821115610ea7575f80fd5b610eb38e838f01610d44565b909b50995060408d0135915080821115610ecb575f80fd5b610ed78e838f01610e12565b909950975060608d0135915080821115610eef575f80fd5b610efb8e838f01610e12565b909750955060808d0135915080821115610f13575f80fd5b610f1f8e838f01610d44565b909550935060a08d0135915080821115610f37575f80fd5b50610f448d828e01610e53565b9150509295989b9194979a5092959850565b5f815180845260208085019450602084015f5b83811015610f9b57815173ffffffffffffffffffffffffffffffffffffffff1687529582019590820190600101610f69565b509495945050505050565b828152604060208201525f610fbe6040830184610f56565b949350505050565b5f8060408385031215610fd7575f80fd5b82359150602083013567ffffffffffffffff811115610ff4575f80fd5b61100085828601610e53565b9150509250929050565b602081525f6107ed6020830184610f56565b5f805f805f60a08688031215611030575f80fd5b853561103b81610d10565b9450602086013567ffffffffffffffff80821115611057575f80fd5b90870190610160828a03121561106b575f80fd5b90945060408701359080821115611080575f80fd5b908701906080828a031215611093575f80fd5b90935060608701359250608087013590808211156110af575f80fd5b506110bc88828901610e53565b9150509295509295909350565b83815273ffffffffffffffffffffffffffffffffffffffff83166020820152606060408201525f6110fd6060830184610f56565b95945050505050565b81835281816020850137505f602082840101525f60207fffffffffffffffffffffffffffffffffffffffffffffffffffffffffffffffe0601f840116840101905092915050565b803565ffffffffffff81168114610d3f575f80fd5b803563ffffffff81168114610d3f575f80fd5b80356dffffffffffffffffffffffffffff81168114610d3f575f80fd5b803561ffff81168114610d3f575f80fd5b8015158114610d31575f80fd5b8035610d3f816111a3565b6111d0826111c883611192565b61ffff169052565b6111dc60208201611192565b61ffff1660208301526111f160408201611162565b63ffffffff166040830152611208606082016111b0565b1515606083015261121b608082016111b0565b1515608083015261122e60a082016111b0565b151560a083015261124160c082016111b0565b151560c083015261125460e082016111b0565b151560e08301526101006112698282016111b0565b15159083015261012061127d8282016111b0565b1515908301526101406112918282016111b0565b1515908301526101606112a58282016111b0565b1515908301526101806112b98282016111b0565b1515908301526101a06112cd8282016111b0565b1515908301526101c06112e18282016111b0565b1515908301526101e06112f58282016111b0565b1515908301526102006113098282016111b0565b15159083015261022061131d828201610d34565b73ffffffffffffffffffffffffffffffffffffffff1690830152610240611345828201611192565b61ffff811684830152610c8a565b5f8083357fffffffffffffffffffffffffffffffffffffffffffffffffffffffffffffffe1843603018112611386575f80fd5b830160208101925035905067ffffffffffffffff8111156113a5575f80fd5b8060051b3603821315610d82575f80fd5b5f82357fffffffffffffffffffffffffffffffffffffffffffffffffffffffffffffffc18336030181126113e8575f80fd5b90910192915050565b5f8383855260208086019550808560051b830101845f5b87811015611594577fffffffffffffffffffffffffffffffffffffffffffffffffffffffffffffffe085840301895261144182886113b6565b604080850182358652868301357fffffffffffffffffffffffffffffffffffffffffffffffffffffffffffffffe184360301811261147d575f80fd5b90920186810192903567ffffffffffffffff8082111561149b575f80fd5b60c080830236038613156114ad575f80fd5b888a01859052928290526060928389015f5b848110156115775763ffffffff6114d589611162565b1682528b8801358481168082146114ea575f80fd5b838e015250878701356114fc81610d10565b73ffffffffffffffffffffffffffffffffffffffff16828801526115218887016111b0565b151586830152608061153489820161114d565b65ffffffffffff169083015260a061154d898201610d34565b73ffffffffffffffffffffffffffffffffffffffff169083015296820196908201906001016114bf565b509e8a019e98505050948701945050506001919091019050611408565b5090979650505050505050565b5f8083357fffffffffffffffffffffffffffffffffffffffffffffffffffffffffffffffe18436030181126115d4575f80fd5b830160208101925035905067ffffffffffffffff8111156115f3575f80fd5b8060061b3603821315610d82575f80fd5b8183525f60208085019450825f5b85811015610f9b5781357bffffffffffffffffffffffffffffffffffffffffffffffffffffffff8116808214611646575f80fd5b88525063ffffffff611659838501611162565b16878401526040968701969190910190600101611612565b5f82357fffffffffffffffffffffffffffffffffffffffffffffffffffffffffffffff818336030181126113e8575f80fd5b5f8383855260208086019550808560051b830101845f5b87811015611594577fffffffffffffffffffffffffffffffffffffffffffffffffffffffffffffffe08584030189526116f38288611671565b6080813561170081610d10565b73ffffffffffffffffffffffffffffffffffffffff9081168652828701359061172882610d10565b1685870152604061173b838201846115a1565b838389015261174d8489018284611604565b93505050506060611760818401846115a1565b935086830382880152611774838583611604565b9c88019c965050509285019250506001016116ba565b803560ff81168114610d3f575f80fd5b5f8383855260208086019550808560051b830101845f5b87811015611594577fffffffffffffffffffffffffffffffffffffffffffffffffffffffffffffffe08584030189526117ea82886113b6565b604080850182356117fa81610d10565b73ffffffffffffffffffffffffffffffffffffffff80821688528885013591507fffffffffffffffffffffffffffffffffffffffffffffffffffffffffffffffe1853603018212611849575f80fd5b93018781019390359067ffffffffffffffff821115611866575f80fd5b60608083023603861315611878575f80fd5b888a01859052928290525f928089015b838510156118d857863561189b81610d10565b8316815260ff6118ac888d0161178a565b168b82015263ffffffff6118c1878901611162565b168187015295810195600194909401938101611888565b9e8a019e985050509487019450505060019190910190506117b1565b73ffffffffffffffffffffffffffffffffffffffff8a1681525f602060a08184015261192460a084018b8d611106565b838103604085015288815281810160058a901b820183018b5f5b8c811015611a99577fffffffffffffffffffffffffffffffffffffffffffffffffffffffffffffffe085840301845281357ffffffffffffffffffffffffffffffffffffffffffffffffffffffffffffffcc18f360301811261199e575f80fd5b8e0161034065ffffffffffff6119b38361114d565b1685526119c1888301611162565b63ffffffff16888601526119d760408301611175565b6dffffffffffffffffffffffffffff16604086015260606119f9838201611162565b63ffffffff16908601526080611a10838201610d34565b73ffffffffffffffffffffffffffffffffffffffff1690860152611a3a60a08087019084016111bb565b610300611a4981840184611353565b8383890152611a5b84890182846113f1565b9350505050610320611a6f81840184611353565b935086830382880152611a838385836116a3565b978a01979650505092870192505060010161193e565b50508581036060870152611aae818a8c61179a565b93505050508281036080840152611ac6818587611106565b9c9b505050505050505050505050565b5f60208284031215611ae6575f80fd5b5051919050565b5f8083357fffffffffffffffffffffffffffffffffffffffffffffffffffffffffffffffe1843603018112611b20575f80fd5b83018035915067ffffffffffffffff821115611b3a575f80fd5b6020019150600581901b3603821315610d82575f80fd5b5f606080830187845260208781860152604060606040870152828784526080935060808701905060808860051b880101895f5b8a811015611cc7577fffffffffffffffffffffffffffffffffffffffffffffffffffffffffffffff808a8403018452611bbd828d6113b6565b8584018135611bcb81610d10565b73ffffffffffffffffffffffffffffffffffffffff80821687528984013591507fffffffffffffffffffffffffffffffffffffffffffffffffffffffffffffffe1843603018212611c1a575f80fd5b92018881019290359067ffffffffffffffff821115611c37575f80fd5b8160071b3603841315611c48575f80fd5b868a01899052918190525f918b87015b82841015611cb1578435611c6b81610d10565b8216815263ffffffff611c7f868d01611162565b168b82015289850135611c9181610d10565b8216818b0152848d01358d820152938b0193600193909301928b01611c58565b978a019796505050928701925050600101611b84565b50909c9b505050505050505050505050565b7f4e487b71000000000000000000000000000000000000000000000000000000005f52604160045260245ffd5b8051610d3f81610d10565b5f6020808385031215611d22575f80fd5b825167ffffffffffffffff80821115611d39575f80fd5b818501915085601f830112611d4c575f80fd5b815181811115611d5e57611d5e611cd9565b8060051b6040517fffffffffffffffffffffffffffffffffffffffffffffffffffffffffffffffe0603f83011681018181108582111715611da157611da1611cd9565b604052918252848201925083810185019188831115611dbe575f80fd5b938501935b82851015611de357611dd485611d06565b84529385019392850192611dc3565b98975050505050505050565b5f60208284031215611dff575f80fd5b81516107ed81610d10565b5f8083357fffffffffffffffffffffffffffffffffffffffffffffffffffffffffffffffe1843603018112611e3d575f80fd5b830160208101925035905067ffffffffffffffff811115611e5c575f80fd5b803603821315610d82575f80fd5b80356cffffffffffffffffffffffffff81168114610d3f575f80fd5b803562ffffff81168114610d3f575f80fd5b5f608080840183357fffffffffffffffffffffffffffffffffffffffffffffffffffffffffffffffe1853603018112611ecf575f80fd5b8401602081810191359067ffffffffffffffff821115611eed575f80fd5b6101c08083023603841315611f00575f80fd5b608089529382905260a0938489015f5b8481101561205857611f3882611f2588611e6a565b6cffffffffffffffffffffffffff169052565b611f43848701611162565b63ffffffff16848301526040611f5a878201611162565b63ffffffff16908301526060611f71878201611192565b61ffff1690830152611f84868901610d34565b73ffffffffffffffffffffffffffffffffffffffff1688830152858701358783015260c0611fb3818801611e86565b62ffffff169083015260e0611fc987820161178a565b60ff1690830152610100611fde8782016111b0565b151590830152610120611ff28782016111b0565b1515908301526101406120068782016111b0565b15159083015261016061201a8782016111b0565b15159083015261018061202e8782016111b0565b1515908301526101a06120428782016111b0565b1515908301529482019490820190600101611f10565b5061206560208a01611162565b63ffffffff811660208c0152965061207f60408a0161178a565b60ff811660408c0152965061209660608a01610d34565b73ffffffffffffffffffffffffffffffffffffffff811660608c015296509998505050505050505050565b80356120cc816111a3565b1515825260208101356120de816111a3565b1515602083015260408101356120f3816111a3565b151560408301526060810135612108816111a3565b8015156060840152505050565b612122826111c883611192565b61212e60208201611192565b61ffff16602083015261214360408201611162565b63ffffffff16604083015261215a606082016111b0565b1515606083015261216d608082016111b0565b1515608083015261218060a082016111b0565b151560a083015261219360c082016111b0565b151560c08301526121a660e082016111b0565b151560e08301526101006121bb8282016111b0565b1515908301526101206121cf8282016111b0565b1515908301526101406121e38282016111b0565b1515908301526101606121f78282016111b0565b15159083015261018061220b8282016111b0565b1515908301526101a061221f8282016111b0565b1515908301526101c06122338282016111b0565b1515908301526101e0611345828201611192565b5f60806122548384611e0a565b60808652612266608087018284611106565b915050602061227781860186611353565b87840383890152808452828401600582901b85018401835f5b848110156123ea577fffffffffffffffffffffffffffffffffffffffffffffffffffffffffffffffe088840301845281357ffffffffffffffffffffffffffffffffffffffffffffffffffffffffffffffd218736030181126122f0575f80fd5b86016102e065ffffffffffff6123058361114d565b168552612313898301611162565b63ffffffff1689860152604061232a838201611175565b6dffffffffffffffffffffffffffff1690860152606061234b838201611162565b63ffffffff1690860152612360828c01610d34565b73ffffffffffffffffffffffffffffffffffffffff168b86015260a061238a818701848301612115565b506102a061239a81840184611353565b83838901526123ac84890182846113f1565b93505050506102c06123c081840184611353565b9350868303828801526123d48385836116a3565b978b019796505050928801925050600101612290565b50506123f960408a018a611353565b9750955089810360408b015261241081888861179a565b96505050505050506124256060840184611e0a565b8583036060870152612438838284611106565b9695505050505050565b73ffffffffffffffffffffffffffffffffffffffff8616815260a060208201525f61246d8687611e0a565b6101608060a086015261248561020086018385611106565b925061249460208a018a611e0a565b92507fffffffffffffffffffffffffffffffffffffffffffffffffffffffffffffff60808786030160c08801526124cc858584611106565b94506124db60408c018c611e0a565b94509150808786030160e08801526124f4858584611106565b945061250260608c01610d34565b73ffffffffffffffffffffffffffffffffffffffff8116610100890152935061252e60808c018c611e0a565b945091508087860301610120880152612548858584611106565b945061255760a08c018c611671565b9350808786030161014088015250506125708383611e98565b925061257e60c08a01610d34565b73ffffffffffffffffffffffffffffffffffffffff1690850152506125aa610180840160e089016120c1565b82810360408401526125bc8187612247565b9150506125e1606083018573ffffffffffffffffffffffffffffffffffffffff169052565b8260808301529695505050505050565b5f8060408385031215612602575f80fd5b82519150602083015161261481610d10565b809150509250929050565b5f6020828403121561262f575f80fd5b81516107ed816111a3565b81810381811115612672577f4e487b71000000000000000000000000000000000000000000000000000000005f52601160045260245ffd5b92915050565b5f8085851115612686575f80fd5b83861115612692575f80fd5b5050820193919092039150565b7fffffffffffffffffffffffffffffffffffffffff00000000000000000000000081358181169160148510156126df5780818660140360031b1b83161692505b50509291505056fea264697066735822122087bfdc7d9bc026f0941d7dac709319afb2b05a342881687bedb96029eaed286d64736f6c63430008170033",
	"deployedBytecode": "0x608060405234801561000f575f80fd5b50600436106100c4575f3560e01c80637da0a8771161007d578063beecbcbb11610058578063beecbcbb1461026f578063ee0fc12114610291578063f434c914146102b8575f80fd5b80637da0a87714610202578063b5d2553314610228578063b78edb661461024f575f80fd5b806336f8937e116100ad57806336f8937e1461015d578063572b6c051461018457806365f4aad0146101e1575f80fd5b8063150b7a02146100c8578063293c499914610111575b5f80fd5b6100db6100d6366004610d89565b6102df565b6040517fffffffff0000000000000000000000000000000000000000000000000000000090911681526020015b60405180910390f35b6101387f0000000000000000000000000b538a02610d7d3cc91ce2870f423e0a34d646ad81565b60405173ffffffffffffffffffffffffffffffffffffffff9091168152602001610108565b6101387f000000000000000000000000edb83eb473b008a2246488df1f85174d26d86af281565b6101d1610192366004610df7565b7f0000000000000000000000008a5ba591ed2bed5691a378c65611ed492500f88773ffffffffffffffffffffffffffffffffffffffff90811691161490565b6040519015158152602001610108565b6101f46101ef366004610e69565b61034c565b604051610108929190610fa6565b7f0000000000000000000000008a5ba591ed2bed5691a378c65611ed492500f887610138565b6101387f000000000000000000000000696c7e9b37d28edbefa3fce06e26041b7197c1a581565b61026261025d366004610fc6565b6105f8565b604051610108919061100a565b61028261027d36600461101c565b6107f4565b604051610108939291906110c9565b6101387f000000000000000000000000b291844f213047eb9e1621ae555b1eae6700d55381565b6101387f000000000000000000000000f5ca295dc286a176e35ebb7833031fd95550eb1481565b5f3373ffffffffffffffffffffffffffffffffffffffff7f0000000000000000000000000b538a02610d7d3cc91ce2870f423e0a34d646ad1614610321575f80fd5b507f150b7a020000000000000000000000000000000000000000000000000000000095945050505050565b5f60607f000000000000000000000000b291844f213047eb9e1621ae555b1eae6700d55373ffffffffffffffffffffffffffffffffffffffff16635c7465e5308d8d8d8d8d8d8d8d6040518a63ffffffff1660e01b81526004016103b8999897969594939291906118f4565b6020604051808303815f875af11580156103d4573d5f803e3d5ffd5b505050506040513d601f19601f820116820180604052508101906103f89190611ad6565b9150602083013515610540577f000000000000000000000000696c7e9b37d28edbefa3fce06e26041b7197c1a573ffffffffffffffffffffffffffffffffffffffff16632f3f50e083856020013561044e610afd565b60405160200161047e92919091825273ffffffffffffffffffffffffffffffffffffffff16602082015260400190565b604080517fffffffffffffffffffffffffffffffffffffffffffffffffffffffffffffffe081840301815291905280516020909101206104be8780611aed565b6040518563ffffffff1660e01b81526004016104dd9493929190611b51565b5f604051808303815f875af11580156104f8573d5f803e3d5ffd5b505050506040513d5f823e601f3d9081017fffffffffffffffffffffffffffffffffffffffffffffffffffffffffffffffe016820160405261053d9190810190611d11565b90505b6040517f23b872dd00000000000000000000000000000000000000000000000000000000815230600482015273ffffffffffffffffffffffffffffffffffffffff8d81166024830152604482018490527f0000000000000000000000000b538a02610d7d3cc91ce2870f423e0a34d646ad16906323b872dd906064015f604051808303815f87803b1580156105d3575f80fd5b505af11580156105e5573d5f803e3d5ffd5b505050509a509a98505050505050505050565b6040517f6352211e000000000000000000000000000000000000000000000000000000008152600481018390526060906106b49073ffffffffffffffffffffffffffffffffffffffff7f0000000000000000000000000b538a02610d7d3cc91ce2870f423e0a34d646ad1690636352211e90602401602060405180830381865afa158015610688573d5f803e3d5ffd5b505050506040513d601f19601f820116820180604052508101906106ac9190611def565b84601d610b0b565b7f000000000000000000000000696c7e9b37d28edbefa3fce06e26041b7197c1a573ffffffffffffffffffffffffffffffffffffffff16632f3f50e08484602001356106fe610afd565b60405160200161072e92919091825273ffffffffffffffffffffffffffffffffffffffff16602082015260400190565b604080517fffffffffffffffffffffffffffffffffffffffffffffffffffffffffffffffe0818403018152919052805160209091012061076e8680611aed565b6040518563ffffffff1660e01b815260040161078d9493929190611b51565b5f604051808303815f875af11580156107a8573d5f803e3d5ffd5b505050506040513d5f823e601f3d9081017fffffffffffffffffffffffffffffffffffffffffffffffffffffffffffffffe01682016040526107ed9190810190611d11565b9392505050565b5f8060607f000000000000000000000000edb83eb473b008a2246488df1f85174d26d86af273ffffffffffffffffffffffffffffffffffffffff1663ea38480b3089897f000000000000000000000000b291844f213047eb9e1621ae555b1eae6700d553610860610afd565b6040805173ffffffffffffffffffffffffffffffffffffffff909216602083015281018c9052606001604051602081830303815290604052805190602001206040518663ffffffff1660e01b81526004016108bf959493929190612442565b60408051808303815f875af11580156108da573d5f803e3d5ffd5b505050506040513d601f19601f820116820180604052508101906108fe91906125f1565b9093509150602084013515610a49577f000000000000000000000000696c7e9b37d28edbefa3fce06e26041b7197c1a573ffffffffffffffffffffffffffffffffffffffff16632f3f50e0848660200135610957610afd565b60405160200161098792919091825273ffffffffffffffffffffffffffffffffffffffff16602082015260400190565b604080517fffffffffffffffffffffffffffffffffffffffffffffffffffffffffffffffe081840301815291905280516020909101206109c78880611aed565b6040518563ffffffff1660e01b81526004016109e69493929190611b51565b5f604051808303815f875af1158015610a01573d5f803e3d5ffd5b505050506040513d5f823e601f3d9081017fffffffffffffffffffffffffffffffffffffffffffffffffffffffffffffffe0168201604052610a469190810190611d11565b90505b6040517f23b872dd00000000000000000000000000000000000000000000000000000000815230600482015273ffffffffffffffffffffffffffffffffffffffff8981166024830152604482018590527f0000000000000000000000000b538a02610d7d3cc91ce2870f423e0a34d646ad16906323b872dd906064015f604051808303815f87803b158015610adc575f80fd5b505af1158015610aee573d5f803e3d5ffd5b50505050955095509592505050565b5f610b06610c90565b905090565b5f610b14610afd565b90508373ffffffffffffffffffffffffffffffffffffffff168173ffffffffffffffffffffffffffffffffffffffff1614158015610c2157506040517f348b684e00000000000000000000000000000000000000000000000000000000815273ffffffffffffffffffffffffffffffffffffffff82811660048301528581166024830152604482018590526064820184905260016084830181905260a48301527f000000000000000000000000f5ca295dc286a176e35ebb7833031fd95550eb14169063348b684e9060c401602060405180830381865afa158015610bfb573d5f803e3d5ffd5b505050506040513d601f19601f82011682018060405250810190610c1f919061261f565b155b15610c8a576040517f264deeaa00000000000000000000000000000000000000000000000000000000815273ffffffffffffffffffffffffffffffffffffffff808616600483015282166024820152604481018490526064810183905260840160405180910390fd5b50505050565b5f3660143373ffffffffffffffffffffffffffffffffffffffff7f0000000000000000000000008a5ba591ed2bed5691a378c65611ed492500f88716148015610cd95750808210155b15610d08575f36610cea838561263a565b610cf5928290612678565b610cfe9161269f565b60601c9250505090565b339250505090565b73ffffffffffffffffffffffffffffffffffffffff81168114610d31575f80fd5b50565b8035610d3f81610d10565b919050565b5f8083601f840112610d54575f80fd5b50813567ffffffffffffffff811115610d6b575f80fd5b602083019150836020828501011115610d82575f80fd5b9250929050565b5f805f805f60808688031215610d9d575f80fd5b8535610da881610d10565b94506020860135610db881610d10565b935060408601359250606086013567ffffffffffffffff811115610dda575f80fd5b610de688828901610d44565b969995985093965092949392505050565b5f60208284031215610e07575f80fd5b81356107ed81610d10565b5f8083601f840112610e22575f80fd5b50813567ffffffffffffffff811115610e39575f80fd5b6020830191508360208260051b8501011115610d82575f80fd5b5f60408284031215610e63575f80fd5b50919050565b5f805f805f805f805f8060c08b8d031215610e82575f80fd5b610e8b8b610d34565b995060208b013567ffffffffffffffff80821115610ea7575f80fd5b610eb38e838f01610d44565b909b50995060408d0135915080821115610ecb575f80fd5b610ed78e838f01610e12565b909950975060608d0135915080821115610eef575f80fd5b610efb8e838f01610e12565b909750955060808d0135915080821115610f13575f80fd5b610f1f8e838f01610d44565b909550935060a08d0135915080821115610f37575f80fd5b50610f448d828e01610e53565b9150509295989b9194979a5092959850565b5f815180845260208085019450602084015f5b83811015610f9b57815173ffffffffffffffffffffffffffffffffffffffff1687529582019590820190600101610f69565b509495945050505050565b828152604060208201525f610fbe6040830184610f56565b949350505050565b5f8060408385031215610fd7575f80fd5b82359150602083013567ffffffffffffffff811115610ff4575f80fd5b61100085828601610e53565b9150509250929050565b602081525f6107ed6020830184610f56565b5f805f805f60a08688031215611030575f80fd5b853561103b81610d10565b9450602086013567ffffffffffffffff80821115611057575f80fd5b90870190610160828a03121561106b575f80fd5b90945060408701359080821115611080575f80fd5b908701906080828a031215611093575f80fd5b90935060608701359250608087013590808211156110af575f80fd5b506110bc88828901610e53565b9150509295509295909350565b83815273ffffffffffffffffffffffffffffffffffffffff83166020820152606060408201525f6110fd6060830184610f56565b95945050505050565b81835281816020850137505f602082840101525f60207fffffffffffffffffffffffffffffffffffffffffffffffffffffffffffffffe0601f840116840101905092915050565b803565ffffffffffff81168114610d3f575f80fd5b803563ffffffff81168114610d3f575f80fd5b80356dffffffffffffffffffffffffffff81168114610d3f575f80fd5b803561ffff81168114610d3f575f80fd5b8015158114610d31575f80fd5b8035610d3f816111a3565b6111d0826111c883611192565b61ffff169052565b6111dc60208201611192565b61ffff1660208301526111f160408201611162565b63ffffffff166040830152611208606082016111b0565b1515606083015261121b608082016111b0565b1515608083015261122e60a082016111b0565b151560a083015261124160c082016111b0565b151560c083015261125460e082016111b0565b151560e08301526101006112698282016111b0565b15159083015261012061127d8282016111b0565b1515908301526101406112918282016111b0565b1515908301526101606112a58282016111b0565b1515908301526101806112b98282016111b0565b1515908301526101a06112cd8282016111b0565b1515908301526101c06112e18282016111b0565b1515908301526101e06112f58282016111b0565b1515908301526102006113098282016111b0565b15159083015261022061131d828201610d34565b73ffffffffffffffffffffffffffffffffffffffff1690830152610240611345828201611192565b61ffff811684830152610c8a565b5f8083357fffffffffffffffffffffffffffffffffffffffffffffffffffffffffffffffe1843603018112611386575f80fd5b830160208101925035905067ffffffffffffffff8111156113a5575f80fd5b8060051b3603821315610d82575f80fd5b5f82357fffffffffffffffffffffffffffffffffffffffffffffffffffffffffffffffc18336030181126113e8575f80fd5b90910192915050565b5f8383855260208086019550808560051b830101845f5b87811015611594577fffffffffffffffffffffffffffffffffffffffffffffffffffffffffffffffe085840301895261144182886113b6565b604080850182358652868301357fffffffffffffffffffffffffffffffffffffffffffffffffffffffffffffffe184360301811261147d575f80fd5b90920186810192903567ffffffffffffffff8082111561149b575f80fd5b60c080830236038613156114ad575f80fd5b888a01859052928290526060928389015f5b848110156115775763ffffffff6114d589611162565b1682528b8801358481168082146114ea575f80fd5b838e015250878701356114fc81610d10565b73ffffffffffffffffffffffffffffffffffffffff16828801526115218887016111b0565b151586830152608061153489820161114d565b65ffffffffffff169083015260a061154d898201610d34565b73ffffffffffffffffffffffffffffffffffffffff169083015296820196908201906001016114bf565b509e8a019e98505050948701945050506001919091019050611408565b5090979650505050505050565b5f8083357fffffffffffffffffffffffffffffffffffffffffffffffffffffffffffffffe18436030181126115d4575f80fd5b830160208101925035905067ffffffffffffffff8111156115f3575f80fd5b8060061b3603821315610d82575f80fd5b8183525f60208085019450825f5b85811015610f9b5781357bffffffffffffffffffffffffffffffffffffffffffffffffffffffff8116808214611646575f80fd5b88525063ffffffff611659838501611162565b16878401526040968701969190910190600101611612565b5f82357fffffffffffffffffffffffffffffffffffffffffffffffffffffffffffffff818336030181126113e8575f80fd5b5f8383855260208086019550808560051b830101845f5b87811015611594577fffffffffffffffffffffffffffffffffffffffffffffffffffffffffffffffe08584030189526116f38288611671565b6080813561170081610d10565b73ffffffffffffffffffffffffffffffffffffffff9081168652828701359061172882610d10565b1685870152604061173b838201846115a1565b838389015261174d8489018284611604565b93505050506060611760818401846115a1565b935086830382880152611774838583611604565b9c88019c965050509285019250506001016116ba565b803560ff81168114610d3f575f80fd5b5f8383855260208086019550808560051b830101845f5b87811015611594577fffffffffffffffffffffffffffffffffffffffffffffffffffffffffffffffe08584030189526117ea82886113b6565b604080850182356117fa81610d10565b73ffffffffffffffffffffffffffffffffffffffff80821688528885013591507fffffffffffffffffffffffffffffffffffffffffffffffffffffffffffffffe1853603018212611849575f80fd5b93018781019390359067ffffffffffffffff821115611866575f80fd5b60608083023603861315611878575f80fd5b888a01859052928290525f928089015b838510156118d857863561189b81610d10565b8316815260ff6118ac888d0161178a565b168b82015263ffffffff6118c1878901611162565b168187015295810195600194909401938101611888565b9e8a019e985050509487019450505060019190910190506117b1565b73ffffffffffffffffffffffffffffffffffffffff8a1681525f602060a08184015261192460a084018b8d611106565b838103604085015288815281810160058a901b820183018b5f5b8c811015611a99577fffffffffffffffffffffffffffffffffffffffffffffffffffffffffffffffe085840301845281357ffffffffffffffffffffffffffffffffffffffffffffffffffffffffffffffcc18f360301811261199e575f80fd5b8e0161034065ffffffffffff6119b38361114d565b1685526119c1888301611162565b63ffffffff16888601526119d760408301611175565b6dffffffffffffffffffffffffffff16604086015260606119f9838201611162565b63ffffffff16908601526080611a10838201610d34565b73ffffffffffffffffffffffffffffffffffffffff1690860152611a3a60a08087019084016111bb565b610300611a4981840184611353565b8383890152611a5b84890182846113f1565b9350505050610320611a6f81840184611353565b935086830382880152611a838385836116a3565b978a01979650505092870192505060010161193e565b50508581036060870152611aae818a8c61179a565b93505050508281036080840152611ac6818587611106565b9c9b505050505050505050505050565b5f60208284031215611ae6575f80fd5b5051919050565b5f8083357fffffffffffffffffffffffffffffffffffffffffffffffffffffffffffffffe1843603018112611b20575f80fd5b83018035915067ffffffffffffffff821115611b3a575f80fd5b6020019150600581901b3603821315610d82575f80fd5b5f606080830187845260208781860152604060606040870152828784526080935060808701905060808860051b880101895f5b8a811015611cc7577fffffffffffffffffffffffffffffffffffffffffffffffffffffffffffffff808a8403018452611bbd828d6113b6565b8584018135611bcb81610d10565b73ffffffffffffffffffffffffffffffffffffffff80821687528984013591507fffffffffffffffffffffffffffffffffffffffffffffffffffffffffffffffe1843603018212611c1a575f80fd5b92018881019290359067ffffffffffffffff821115611c37575f80fd5b8160071b3603841315611c48575f80fd5b868a01899052918190525f918b87015b82841015611cb1578435611c6b81610d10565b8216815263ffffffff611c7f868d01611162565b168b82015289850135611c9181610d10565b8216818b0152848d01358d820152938b0193600193909301928b01611c58565b978a019796505050928701925050600101611b84565b50909c9b505050505050505050505050565b7f4e487b71000000000000000000000000000000000000000000000000000000005f52604160045260245ffd5b8051610d3f81610d10565b5f6020808385031215611d22575f80fd5b825167ffffffffffffffff80821115611d39575f80fd5b818501915085601f830112611d4c575f80fd5b815181811115611d5e57611d5e611cd9565b8060051b6040517fffffffffffffffffffffffffffffffffffffffffffffffffffffffffffffffe0603f83011681018181108582111715611da157611da1611cd9565b604052918252848201925083810185019188831115611dbe575f80fd5b938501935b82851015611de357611dd485611d06565b84529385019392850192611dc3565b98975050505050505050565b5f60208284031215611dff575f80fd5b81516107ed81610d10565b5f8083357fffffffffffffffffffffffffffffffffffffffffffffffffffffffffffffffe1843603018112611e3d575f80fd5b830160208101925035905067ffffffffffffffff811115611e5c575f80fd5b803603821315610d82575f80fd5b80356cffffffffffffffffffffffffff81168114610d3f575f80fd5b803562ffffff81168114610d3f575f80fd5b5f608080840183357fffffffffffffffffffffffffffffffffffffffffffffffffffffffffffffffe1853603018112611ecf575f80fd5b8401602081810191359067ffffffffffffffff821115611eed575f80fd5b6101c08083023603841315611f00575f80fd5b608089529382905260a0938489015f5b8481101561205857611f3882611f2588611e6a565b6cffffffffffffffffffffffffff169052565b611f43848701611162565b63ffffffff16848301526040611f5a878201611162565b63ffffffff16908301526060611f71878201611192565b61ffff1690830152611f84868901610d34565b73ffffffffffffffffffffffffffffffffffffffff1688830152858701358783015260c0611fb3818801611e86565b62ffffff169083015260e0611fc987820161178a565b60ff1690830152610100611fde8782016111b0565b151590830152610120611ff28782016111b0565b1515908301526101406120068782016111b0565b15159083015261016061201a8782016111b0565b15159083015261018061202e8782016111b0565b1515908301526101a06120428782016111b0565b1515908301529482019490820190600101611f10565b5061206560208a01611162565b63ffffffff811660208c0152965061207f60408a0161178a565b60ff811660408c0152965061209660608a01610d34565b73ffffffffffffffffffffffffffffffffffffffff811660608c015296509998505050505050505050565b80356120cc816111a3565b1515825260208101356120de816111a3565b1515602083015260408101356120f3816111a3565b151560408301526060810135612108816111a3565b8015156060840152505050565b612122826111c883611192565b61212e60208201611192565b61ffff16602083015261214360408201611162565b63ffffffff16604083015261215a606082016111b0565b1515606083015261216d608082016111b0565b1515608083015261218060a082016111b0565b151560a083015261219360c082016111b0565b151560c08301526121a660e082016111b0565b151560e08301526101006121bb8282016111b0565b1515908301526101206121cf8282016111b0565b1515908301526101406121e38282016111b0565b1515908301526101606121f78282016111b0565b15159083015261018061220b8282016111b0565b1515908301526101a061221f8282016111b0565b1515908301526101c06122338282016111b0565b1515908301526101e0611345828201611192565b5f60806122548384611e0a565b60808652612266608087018284611106565b915050602061227781860186611353565b87840383890152808452828401600582901b85018401835f5b848110156123ea577fffffffffffffffffffffffffffffffffffffffffffffffffffffffffffffffe088840301845281357ffffffffffffffffffffffffffffffffffffffffffffffffffffffffffffffd218736030181126122f0575f80fd5b86016102e065ffffffffffff6123058361114d565b168552612313898301611162565b63ffffffff1689860152604061232a838201611175565b6dffffffffffffffffffffffffffff1690860152606061234b838201611162565b63ffffffff1690860152612360828c01610d34565b73ffffffffffffffffffffffffffffffffffffffff168b86015260a061238a818701848301612115565b506102a061239a81840184611353565b83838901526123ac84890182846113f1565b93505050506102c06123c081840184611353565b9350868303828801526123d48385836116a3565b978b019796505050928801925050600101612290565b50506123f960408a018a611353565b9750955089810360408b015261241081888861179a565b96505050505050506124256060840184611e0a565b8583036060870152612438838284611106565b9695505050505050565b73ffffffffffffffffffffffffffffffffffffffff8616815260a060208201525f61246d8687611e0a565b6101608060a086015261248561020086018385611106565b925061249460208a018a611e0a565b92507fffffffffffffffffffffffffffffffffffffffffffffffffffffffffffffff60808786030160c08801526124cc858584611106565b94506124db60408c018c611e0a565b94509150808786030160e08801526124f4858584611106565b945061250260608c01610d34565b73ffffffffffffffffffffffffffffffffffffffff8116610100890152935061252e60808c018c611e0a565b945091508087860301610120880152612548858584611106565b945061255760a08c018c611671565b9350808786030161014088015250506125708383611e98565b925061257e60c08a01610d34565b73ffffffffffffffffffffffffffffffffffffffff1690850152506125aa610180840160e089016120c1565b82810360408401526125bc8187612247565b9150506125e1606083018573ffffffffffffffffffffffffffffffffffffffff169052565b8260808301529695505050505050565b5f8060408385031215612602575f80fd5b82519150602083015161261481610d10565b809150509250929050565b5f6020828403121561262f575f80fd5b81516107ed816111a3565b81810381811115612672577f4e487b71000000000000000000000000000000000000000000000000000000005f52601160045260245ffd5b92915050565b5f8085851115612686575f80fd5b83861115612692575f80fd5b5050820193919092039150565b7fffffffffffffffffffffffffffffffffffffffff00000000000000000000000081358181169160148510156126df5780818660140360031b1b83161692505b50509291505056fea264697066735822122087bfdc7d9bc026f0941d7dac709319afb2b05a342881687bedb96029eaed286d64736f6c63430008170033",
	"gitCommit": "ae112963573e033d8851d64b684c36ea47bde96b"
}