{
	"format": "sphinx-sol-ct-artifact-1",
	"merkleRoot": "0x21532f342d218b94b63307142e723d7b5fe4b63aefa73a33ae4e87a9ee1a698e",
	"address": "0x44dafa5fa61de6e1c6a9608bffec45d03a913cc8",
	"sourceName": "src/JBOmnichainDeployer.sol",
	"contractName": "JBOmnichainDeployer",
	"chainId": "0x1",
	"abi": [
		{
			"inputs": [
				{
					"internalType": "contract IJBController",
					"name": "controller",
					"type": "address"
				},
				{
					"internalType": "contract IJBSuckerRegistry",
					"name": "suckerRegistry",
					"type": "address"
				},
				{
					"internalType": "contract IJB721TiersHookProjectDeployer",
					"name": "hookProjectDeployer",
					"type": "address"
				},
				{
					"internalType": "address",
					"name": "trustedForwarder",
					"type": "address"
				}
			],
			"stateMutability": "nonpayable",
			"type": "constructor"
		},
		{
			"inputs": [],
			"name": "CONTROLLER",
			"outputs": [
				{
					"internalType": "contract IJBController",
					"name": "",
					"type": "address"
				}
			],
			"stateMutability": "view",
			"type": "function"
		},
		{
			"inputs": [],
			"name": "HOOK_PROJECT_DEPLOYER",
			"outputs": [
				{
					"internalType": "contract IJB721TiersHookProjectDeployer",
					"name": "",
					"type": "address"
				}
			],
			"stateMutability": "view",
			"type": "function"
		},
		{
			"inputs": [],
			"name": "PERMISSIONS",
			"outputs": [
				{
					"internalType": "contract IJBPermissions",
					"name": "",
					"type": "address"
				}
			],
			"stateMutability": "view",
			"type": "function"
		},
		{
			"inputs": [],
			"name": "PROJECTS",
			"outputs": [
				{
					"internalType": "contract IJBProjects",
					"name": "",
					"type": "address"
				}
			],
			"stateMutability": "view",
			"type": "function"
		},
		{
			"inputs": [],
			"name": "SUCKER_REGISTRY",
			"outputs": [
				{
					"internalType": "contract IJBSuckerRegistry",
					"name": "",
					"type": "address"
				}
			],
			"stateMutability": "view",
			"type": "function"
		},
		{
			"inputs": [
				{
					"internalType": "uint256",
					"name": "projectId",
					"type": "uint256"
				},
				{
					"components": [
						{
							"components": [
								{
									"internalType": "contract IJBSuckerDeployer",
									"name": "deployer",
									"type": "address"
								},
								{
									"components": [
										{
											"internalType": "address",
											"name": "localToken",
											"type": "address"
										},
										{
											"internalType": "uint32",
											"name": "minGas",
											"type": "uint32"
										},
										{
											"internalType": "address",
											"name": "remoteToken",
											"type": "address"
										},
										{
											"internalType": "uint256",
											"name": "minBridgeAmount",
											"type": "uint256"
										}
									],
									"internalType": "struct JBTokenMapping[]",
									"name": "mappings",
									"type": "tuple[]"
								}
							],
							"internalType": "struct JBSuckerDeployerConfig[]",
							"name": "deployerConfigurations",
							"type": "tuple[]"
						},
						{
							"internalType": "bytes32",
							"name": "salt",
							"type": "bytes32"
						}
					],
					"internalType": "struct REVSuckerDeploymentConfig",
					"name": "suckerDeploymentConfiguration",
					"type": "tuple"
				}
			],
			"name": "deploySuckersFor",
			"outputs": [
				{
					"internalType": "address[]",
					"name": "suckers",
					"type": "address[]"
				}
			],
			"stateMutability": "nonpayable",
			"type": "function"
		},
		{
			"inputs": [
				{
					"internalType": "address",
					"name": "forwarder",
					"type": "address"
				}
			],
			"name": "isTrustedForwarder",
			"outputs": [
				{
					"internalType": "bool",
					"name": "",
					"type": "bool"
				}
			],
			"stateMutability": "view",
			"type": "function"
		},
		{
			"inputs": [
				{
					"internalType": "address",
					"name": "owner",
					"type": "address"
				},
				{
					"components": [
						{
							"internalType": "string",
							"name": "name",
							"type": "string"
						},
						{
							"internalType": "string",
							"name": "symbol",
							"type": "string"
						},
						{
							"internalType": "string",
							"name": "baseUri",
							"type": "string"
						},
						{
							"internalType": "contract IJB721TokenUriResolver",
							"name": "tokenUriResolver",
							"type": "address"
						},
						{
							"internalType": "string",
							"name": "contractUri",
							"type": "string"
						},
						{
							"components": [
								{
									"components": [
										{
											"internalType": "uint104",
											"name": "price",
											"type": "uint104"
										},
										{
											"internalType": "uint32",
											"name": "initialSupply",
											"type": "uint32"
										},
										{
											"internalType": "uint32",
											"name": "votingUnits",
											"type": "uint32"
										},
										{
											"internalType": "uint16",
											"name": "reserveFrequency",
											"type": "uint16"
										},
										{
											"internalType": "address",
											"name": "reserveBeneficiary",
											"type": "address"
										},
										{
											"internalType": "bytes32",
											"name": "encodedIPFSUri",
											"type": "bytes32"
										},
										{
											"internalType": "uint24",
											"name": "category",
											"type": "uint24"
										},
										{
											"internalType": "uint8",
											"name": "discountPercent",
											"type": "uint8"
										},
										{
											"internalType": "bool",
											"name": "allowOwnerMint",
											"type": "bool"
										},
										{
											"internalType": "bool",
											"name": "useReserveBeneficiaryAsDefault",
											"type": "bool"
										},
										{
											"internalType": "bool",
											"name": "transfersPausable",
											"type": "bool"
										},
										{
											"internalType": "bool",
											"name": "useVotingUnits",
											"type": "bool"
										},
										{
											"internalType": "bool",
											"name": "cannotBeRemoved",
											"type": "bool"
										},
										{
											"internalType": "bool",
											"name": "cannotIncreaseDiscountPercent",
											"type": "bool"
										}
									],
									"internalType": "struct JB721TierConfig[]",
									"name": "tiers",
									"type": "tuple[]"
								},
								{
									"internalType": "uint32",
									"name": "currency",
									"type": "uint32"
								},
								{
									"internalType": "uint8",
									"name": "decimals",
									"type": "uint8"
								},
								{
									"internalType": "contract IJBPrices",
									"name": "prices",
									"type": "address"
								}
							],
							"internalType": "struct JB721InitTiersConfig",
							"name": "tiersConfig",
							"type": "tuple"
						},
						{
							"internalType": "address",
							"name": "reserveBeneficiary",
							"type": "address"
						},
						{
							"components": [
								{
									"internalType": "bool",
									"name": "noNewTiersWithReserves",
									"type": "bool"
								},
								{
									"internalType": "bool",
									"name": "noNewTiersWithVotes",
									"type": "bool"
								},
								{
									"internalType": "bool",
									"name": "noNewTiersWithOwnerMinting",
									"type": "bool"
								},
								{
									"internalType": "bool",
									"name": "preventOverspending",
									"type": "bool"
								}
							],
							"internalType": "struct JB721TiersHookFlags",
							"name": "flags",
							"type": "tuple"
						}
					],
					"internalType": "struct JBDeploy721TiersHookConfig",
					"name": "deployTiersHookConfig",
					"type": "tuple"
				},
				{
					"components": [
						{
							"internalType": "string",
							"name": "projectUri",
							"type": "string"
						},
						{
							"components": [
								{
									"internalType": "uint48",
									"name": "mustStartAtOrAfter",
									"type": "uint48"
								},
								{
									"internalType": "uint32",
									"name": "duration",
									"type": "uint32"
								},
								{
									"internalType": "uint112",
									"name": "weight",
									"type": "uint112"
								},
								{
									"internalType": "uint32",
									"name": "weightCutPercent",
									"type": "uint32"
								},
								{
									"internalType": "contract IJBRulesetApprovalHook",
									"name": "approvalHook",
									"type": "address"
								},
								{
									"components": [
										{
											"internalType": "uint16",
											"name": "reservedPercent",
											"type": "uint16"
										},
										{
											"internalType": "uint16",
											"name": "cashOutTaxRate",
											"type": "uint16"
										},
										{
											"internalType": "uint32",
											"name": "baseCurrency",
											"type": "uint32"
										},
										{
											"internalType": "bool",
											"name": "pausePay",
											"type": "bool"
										},
										{
											"internalType": "bool",
											"name": "pauseCreditTransfers",
											"type": "bool"
										},
										{
											"internalType": "bool",
											"name": "allowOwnerMinting",
											"type": "bool"
										},
										{
											"internalType": "bool",
											"name": "allowTerminalMigration",
											"type": "bool"
										},
										{
											"internalType": "bool",
											"name": "allowSetTerminals",
											"type": "bool"
										},
										{
											"internalType": "bool",
											"name": "allowSetController",
											"type": "bool"
										},
										{
											"internalType": "bool",
											"name": "allowAddAccountingContext",
											"type": "bool"
										},
										{
											"internalType": "bool",
											"name": "allowAddPriceFeed",
											"type": "bool"
										},
										{
											"internalType": "bool",
											"name": "ownerMustSendPayouts",
											"type": "bool"
										},
										{
											"internalType": "bool",
											"name": "holdFees",
											"type": "bool"
										},
										{
											"internalType": "bool",
											"name": "useTotalSurplusForCashOuts",
											"type": "bool"
										},
										{
											"internalType": "bool",
											"name": "useDataHookForCashOut",
											"type": "bool"
										},
										{
											"internalType": "uint16",
											"name": "metadata",
											"type": "uint16"
										}
									],
									"internalType": "struct JBPayDataHookRulesetMetadata",
									"name": "metadata",
									"type": "tuple"
								},
								{
									"components": [
										{
											"internalType": "uint256",
											"name": "groupId",
											"type": "uint256"
										},
										{
											"components": [
												{
													"internalType": "uint32",
													"name": "percent",
													"type": "uint32"
												},
												{
													"internalType": "uint64",
													"name": "projectId",
													"type": "uint64"
												},
												{
													"internalType": "address payable",
													"name": "beneficiary",
													"type": "address"
												},
												{
													"internalType": "bool",
													"name": "preferAddToBalance",
													"type": "bool"
												},
												{
													"internalType": "uint48",
													"name": "lockedUntil",
													"type": "uint48"
												},
												{
													"internalType": "contract IJBSplitHook",
													"name": "hook",
													"type": "address"
												}
											],
											"internalType": "struct JBSplit[]",
											"name": "splits",
											"type": "tuple[]"
										}
									],
									"internalType": "struct JBSplitGroup[]",
									"name": "splitGroups",
									"type": "tuple[]"
								},
								{
									"components": [
										{
											"internalType": "address",
											"name": "terminal",
											"type": "address"
										},
										{
											"internalType": "address",
											"name": "token",
											"type": "address"
										},
										{
											"components": [
												{
													"internalType": "uint224",
													"name": "amount",
													"type": "uint224"
												},
												{
													"internalType": "uint32",
													"name": "currency",
													"type": "uint32"
												}
											],
											"internalType": "struct JBCurrencyAmount[]",
											"name": "payoutLimits",
											"type": "tuple[]"
										},
										{
											"components": [
												{
													"internalType": "uint224",
													"name": "amount",
													"type": "uint224"
												},
												{
													"internalType": "uint32",
													"name": "currency",
													"type": "uint32"
												}
											],
											"internalType": "struct JBCurrencyAmount[]",
											"name": "surplusAllowances",
											"type": "tuple[]"
										}
									],
									"internalType": "struct JBFundAccessLimitGroup[]",
									"name": "fundAccessLimitGroups",
									"type": "tuple[]"
								}
							],
							"internalType": "struct JBPayDataHookRulesetConfig[]",
							"name": "rulesetConfigurations",
							"type": "tuple[]"
						},
						{
							"components": [
								{
									"internalType": "contract IJBTerminal",
									"name": "terminal",
									"type": "address"
								},
								{
									"components": [
										{
											"internalType": "address",
											"name": "token",
											"type": "address"
										},
										{
											"internalType": "uint8",
											"name": "decimals",
											"type": "uint8"
										},
										{
											"internalType": "uint32",
											"name": "currency",
											"type": "uint32"
										}
									],
									"internalType": "struct JBAccountingContext[]",
									"name": "accountingContextsToAccept",
									"type": "tuple[]"
								}
							],
							"internalType": "struct JBTerminalConfig[]",
							"name": "terminalConfigurations",
							"type": "tuple[]"
						},
						{
							"internalType": "string",
							"name": "memo",
							"type": "string"
						}
					],
					"internalType": "struct JBLaunchProjectConfig",
					"name": "launchProjectConfig",
					"type": "tuple"
				},
				{
					"internalType": "bytes32",
					"name": "salt",
					"type": "bytes32"
				},
				{
					"components": [
						{
							"components": [
								{
									"internalType": "contract IJBSuckerDeployer",
									"name": "deployer",
									"type": "address"
								},
								{
									"components": [
										{
											"internalType": "address",
											"name": "localToken",
											"type": "address"
										},
										{
											"internalType": "uint32",
											"name": "minGas",
											"type": "uint32"
										},
										{
											"internalType": "address",
											"name": "remoteToken",
											"type": "address"
										},
										{
											"internalType": "uint256",
											"name": "minBridgeAmount",
											"type": "uint256"
										}
									],
									"internalType": "struct JBTokenMapping[]",
									"name": "mappings",
									"type": "tuple[]"
								}
							],
							"internalType": "struct JBSuckerDeployerConfig[]",
							"name": "deployerConfigurations",
							"type": "tuple[]"
						},
						{
							"internalType": "bytes32",
							"name": "salt",
							"type": "bytes32"
						}
					],
					"internalType": "struct REVSuckerDeploymentConfig",
					"name": "suckerDeploymentConfiguration",
					"type": "tuple"
				}
			],
			"name": "launch721ProjectFor",
			"outputs": [
				{
					"internalType": "uint256",
					"name": "projectId",
					"type": "uint256"
				},
				{
					"internalType": "contract IJB721TiersHook",
					"name": "hook",
					"type": "address"
				},
				{
					"internalType": "address[]",
					"name": "suckers",
					"type": "address[]"
				}
			],
			"stateMutability": "nonpayable",
			"type": "function"
		},
		{
			"inputs": [
				{
					"internalType": "address",
					"name": "owner",
					"type": "address"
				},
				{
					"internalType": "string",
					"name": "projectUri",
					"type": "string"
				},
				{
					"components": [
						{
							"internalType": "uint48",
							"name": "mustStartAtOrAfter",
							"type": "uint48"
						},
						{
							"internalType": "uint32",
							"name": "duration",
							"type": "uint32"
						},
						{
							"internalType": "uint112",
							"name": "weight",
							"type": "uint112"
						},
						{
							"internalType": "uint32",
							"name": "weightCutPercent",
							"type": "uint32"
						},
						{
							"internalType": "contract IJBRulesetApprovalHook",
							"name": "approvalHook",
							"type": "address"
						},
						{
							"components": [
								{
									"internalType": "uint16",
									"name": "reservedPercent",
									"type": "uint16"
								},
								{
									"internalType": "uint16",
									"name": "cashOutTaxRate",
									"type": "uint16"
								},
								{
									"internalType": "uint32",
									"name": "baseCurrency",
									"type": "uint32"
								},
								{
									"internalType": "bool",
									"name": "pausePay",
									"type": "bool"
								},
								{
									"internalType": "bool",
									"name": "pauseCreditTransfers",
									"type": "bool"
								},
								{
									"internalType": "bool",
									"name": "allowOwnerMinting",
									"type": "bool"
								},
								{
									"internalType": "bool",
									"name": "allowSetCustomToken",
									"type": "bool"
								},
								{
									"internalType": "bool",
									"name": "allowTerminalMigration",
									"type": "bool"
								},
								{
									"internalType": "bool",
									"name": "allowSetTerminals",
									"type": "bool"
								},
								{
									"internalType": "bool",
									"name": "allowSetController",
									"type": "bool"
								},
								{
									"internalType": "bool",
									"name": "allowAddAccountingContext",
									"type": "bool"
								},
								{
									"internalType": "bool",
									"name": "allowAddPriceFeed",
									"type": "bool"
								},
								{
									"internalType": "bool",
									"name": "ownerMustSendPayouts",
									"type": "bool"
								},
								{
									"internalType": "bool",
									"name": "holdFees",
									"type": "bool"
								},
								{
									"internalType": "bool",
									"name": "useTotalSurplusForCashOuts",
									"type": "bool"
								},
								{
									"internalType": "bool",
									"name": "useDataHookForPay",
									"type": "bool"
								},
								{
									"internalType": "bool",
									"name": "useDataHookForCashOut",
									"type": "bool"
								},
								{
									"internalType": "address",
									"name": "dataHook",
									"type": "address"
								},
								{
									"internalType": "uint16",
									"name": "metadata",
									"type": "uint16"
								}
							],
							"internalType": "struct JBRulesetMetadata",
							"name": "metadata",
							"type": "tuple"
						},
						{
							"components": [
								{
									"internalType": "uint256",
									"name": "groupId",
									"type": "uint256"
								},
								{
									"components": [
										{
											"internalType": "uint32",
											"name": "percent",
											"type": "uint32"
										},
										{
											"internalType": "uint64",
											"name": "projectId",
											"type": "uint64"
										},
										{
											"internalType": "address payable",
											"name": "beneficiary",
											"type": "address"
										},
										{
											"internalType": "bool",
											"name": "preferAddToBalance",
											"type": "bool"
										},
										{
											"internalType": "uint48",
											"name": "lockedUntil",
											"type": "uint48"
										},
										{
											"internalType": "contract IJBSplitHook",
											"name": "hook",
											"type": "address"
										}
									],
									"internalType": "struct JBSplit[]",
									"name": "splits",
									"type": "tuple[]"
								}
							],
							"internalType": "struct JBSplitGroup[]",
							"name": "splitGroups",
							"type": "tuple[]"
						},
						{
							"components": [
								{
									"internalType": "address",
									"name": "terminal",
									"type": "address"
								},
								{
									"internalType": "address",
									"name": "token",
									"type": "address"
								},
								{
									"components": [
										{
											"internalType": "uint224",
											"name": "amount",
											"type": "uint224"
										},
										{
											"internalType": "uint32",
											"name": "currency",
											"type": "uint32"
										}
									],
									"internalType": "struct JBCurrencyAmount[]",
									"name": "payoutLimits",
									"type": "tuple[]"
								},
								{
									"components": [
										{
											"internalType": "uint224",
											"name": "amount",
											"type": "uint224"
										},
										{
											"internalType": "uint32",
											"name": "currency",
											"type": "uint32"
										}
									],
									"internalType": "struct JBCurrencyAmount[]",
									"name": "surplusAllowances",
									"type": "tuple[]"
								}
							],
							"internalType": "struct JBFundAccessLimitGroup[]",
							"name": "fundAccessLimitGroups",
							"type": "tuple[]"
						}
					],
					"internalType": "struct JBRulesetConfig[]",
					"name": "rulesetConfigurations",
					"type": "tuple[]"
				},
				{
					"components": [
						{
							"internalType": "contract IJBTerminal",
							"name": "terminal",
							"type": "address"
						},
						{
							"components": [
								{
									"internalType": "address",
									"name": "token",
									"type": "address"
								},
								{
									"internalType": "uint8",
									"name": "decimals",
									"type": "uint8"
								},
								{
									"internalType": "uint32",
									"name": "currency",
									"type": "uint32"
								}
							],
							"internalType": "struct JBAccountingContext[]",
							"name": "accountingContextsToAccept",
							"type": "tuple[]"
						}
					],
					"internalType": "struct JBTerminalConfig[]",
					"name": "terminalConfigurations",
					"type": "tuple[]"
				},
				{
					"internalType": "string",
					"name": "memo",
					"type": "string"
				},
				{
					"components": [
						{
							"components": [
								{
									"internalType": "contract IJBSuckerDeployer",
									"name": "deployer",
									"type": "address"
								},
								{
									"components": [
										{
											"internalType": "address",
											"name": "localToken",
											"type": "address"
										},
										{
											"internalType": "uint32",
											"name": "minGas",
											"type": "uint32"
										},
										{
											"internalType": "address",
											"name": "remoteToken",
											"type": "address"
										},
										{
											"internalType": "uint256",
											"name": "minBridgeAmount",
											"type": "uint256"
										}
									],
									"internalType": "struct JBTokenMapping[]",
									"name": "mappings",
									"type": "tuple[]"
								}
							],
							"internalType": "struct JBSuckerDeployerConfig[]",
							"name": "deployerConfigurations",
							"type": "tuple[]"
						},
						{
							"internalType": "bytes32",
							"name": "salt",
							"type": "bytes32"
						}
					],
					"internalType": "struct REVSuckerDeploymentConfig",
					"name": "suckerDeploymentConfiguration",
					"type": "tuple"
				}
			],
			"name": "launchProjectFor",
			"outputs": [
				{
					"internalType": "uint256",
					"name": "projectId",
					"type": "uint256"
				},
				{
					"internalType": "address[]",
					"name": "suckers",
					"type": "address[]"
				}
			],
			"stateMutability": "nonpayable",
			"type": "function"
		},
		{
			"inputs": [],
			"name": "trustedForwarder",
			"outputs": [
				{
					"internalType": "address",
					"name": "",
					"type": "address"
				}
			],
			"stateMutability": "view",
			"type": "function"
		},
		{
			"inputs": [
				{
					"internalType": "address",
					"name": "account",
					"type": "address"
				},
				{
					"internalType": "address",
					"name": "sender",
					"type": "address"
				},
				{
					"internalType": "uint256",
					"name": "projectId",
					"type": "uint256"
				},
				{
					"internalType": "uint256",
					"name": "permissionId",
					"type": "uint256"
				}
			],
			"name": "JBPermissioned_Unauthorized",
			"type": "error"
		}
	],
	"args": [],
	"solcInputHash": "b21096625d45e2e008c904fe6d771cf8",
	"bytecode": "0x61014060405234801562000011575f80fd5b50604051620028643803806200286483398101604081905262000034916200014c565b836001600160a01b031663f434c9146040518163ffffffff1660e01b8152600401602060405180830381865afa15801562000071573d5f803e3d5ffd5b505050506040513d601f19601f82011682018060405250810190620000979190620001b1565b6001600160a01b0380831660805290811660a052841660c08190526040805163293c499960e01b8152905163293c4999916004808201926020929091908290030181865afa158015620000ec573d5f803e3d5ffd5b505050506040513d601f19601f82011682018060405250810190620001129190620001b1565b6001600160a01b0390811660e0529283166101205250166101005250620001d6565b6001600160a01b038116811462000149575f80fd5b50565b5f805f806080858703121562000160575f80fd5b84516200016d8162000134565b6020860151909450620001808162000134565b6040860151909350620001938162000134565b6060860151909250620001a68162000134565b939692955090935050565b5f60208284031215620001c2575f80fd5b8151620001cf8162000134565b9392505050565b60805160a05160c05160e05161010051610120516125f3620002715f395f81816101de0152818161034a015281816105fa015261085301525f8181610113015261073e01525f818160c2015281816104d60152818161058701526109df01525f818161024701528181610295015261077d01525f818161026e0152610afa01525f8181610145015281816101b50152610bf001526125f35ff3fe608060405234801561000f575f80fd5b50600436106100b9575f3560e01c8063b5d2553311610072578063beecbcbb11610058578063beecbcbb14610220578063ee0fc12114610242578063f434c91414610269575f80fd5b8063b5d25533146101d9578063b78edb6614610200575f80fd5b8063572b6c05116100a2578063572b6c051461013557806365f4aad0146101925780637da0a877146101b3575f80fd5b8063293c4999146100bd57806336f8937e1461010e575b5f80fd5b6100e47f000000000000000000000000000000000000000000000000000000000000000081565b60405173ffffffffffffffffffffffffffffffffffffffff90911681526020015b60405180910390f35b6100e47f000000000000000000000000000000000000000000000000000000000000000081565b610182610143366004610c88565b7f000000000000000000000000000000000000000000000000000000000000000073ffffffffffffffffffffffffffffffffffffffff90811691161490565b6040519015158152602001610105565b6101a56101a0366004610d3f565b610290565b604051610105929190610e7c565b7f00000000000000000000000000000000000000000000000000000000000000006100e4565b6100e47f000000000000000000000000000000000000000000000000000000000000000081565b61021361020e366004610e9c565b61053c565b6040516101059190610ee0565b61023361022e366004610ef2565b610738565b60405161010593929190610f9f565b6100e47f000000000000000000000000000000000000000000000000000000000000000081565b6100e47f000000000000000000000000000000000000000000000000000000000000000081565b5f60607f000000000000000000000000000000000000000000000000000000000000000073ffffffffffffffffffffffffffffffffffffffff16635c7465e5308d8d8d8d8d8d8d8d6040518a63ffffffff1660e01b81526004016102fc999897969594939291906117ca565b6020604051808303815f875af1158015610318573d5f803e3d5ffd5b505050506040513d601f19601f8201168201806040525081019061033c91906119ac565b9150602083013515610484577f000000000000000000000000000000000000000000000000000000000000000073ffffffffffffffffffffffffffffffffffffffff16632f3f50e0838560200135610392610a41565b6040516020016103c292919091825273ffffffffffffffffffffffffffffffffffffffff16602082015260400190565b604080517fffffffffffffffffffffffffffffffffffffffffffffffffffffffffffffffe0818403018152919052805160209091012061040287806119c3565b6040518563ffffffff1660e01b81526004016104219493929190611a27565b5f604051808303815f875af115801561043c573d5f803e3d5ffd5b505050506040513d5f823e601f3d9081017fffffffffffffffffffffffffffffffffffffffffffffffffffffffffffffffe01682016040526104819190810190611be7565b90505b6040517f23b872dd00000000000000000000000000000000000000000000000000000000815230600482015273ffffffffffffffffffffffffffffffffffffffff8d81166024830152604482018490527f000000000000000000000000000000000000000000000000000000000000000016906323b872dd906064015f604051808303815f87803b158015610517575f80fd5b505af1158015610529573d5f803e3d5ffd5b505050509a509a98505050505050505050565b6040517f6352211e000000000000000000000000000000000000000000000000000000008152600481018390526060906105f89073ffffffffffffffffffffffffffffffffffffffff7f00000000000000000000000000000000000000000000000000000000000000001690636352211e90602401602060405180830381865afa1580156105cc573d5f803e3d5ffd5b505050506040513d601f19601f820116820180604052508101906105f09190611cc5565b84601d610a4f565b7f000000000000000000000000000000000000000000000000000000000000000073ffffffffffffffffffffffffffffffffffffffff16632f3f50e0848460200135610642610a41565b60405160200161067292919091825273ffffffffffffffffffffffffffffffffffffffff16602082015260400190565b604080517fffffffffffffffffffffffffffffffffffffffffffffffffffffffffffffffe081840301815291905280516020909101206106b286806119c3565b6040518563ffffffff1660e01b81526004016106d19493929190611a27565b5f604051808303815f875af11580156106ec573d5f803e3d5ffd5b505050506040513d5f823e601f3d9081017fffffffffffffffffffffffffffffffffffffffffffffffffffffffffffffffe01682016040526107319190810190611be7565b9392505050565b5f8060607f000000000000000000000000000000000000000000000000000000000000000073ffffffffffffffffffffffffffffffffffffffff1663ea38480b3089897f00000000000000000000000000000000000000000000000000000000000000006107a4610a41565b6040805173ffffffffffffffffffffffffffffffffffffffff909216602083015281018c9052606001604051602081830303815290604052805190602001206040518663ffffffff1660e01b8152600401610803959493929190612318565b60408051808303815f875af115801561081e573d5f803e3d5ffd5b505050506040513d601f19601f8201168201806040525081019061084291906124c7565b909350915060208401351561098d577f000000000000000000000000000000000000000000000000000000000000000073ffffffffffffffffffffffffffffffffffffffff16632f3f50e084866020013561089b610a41565b6040516020016108cb92919091825273ffffffffffffffffffffffffffffffffffffffff16602082015260400190565b604080517fffffffffffffffffffffffffffffffffffffffffffffffffffffffffffffffe0818403018152919052805160209091012061090b88806119c3565b6040518563ffffffff1660e01b815260040161092a9493929190611a27565b5f604051808303815f875af1158015610945573d5f803e3d5ffd5b505050506040513d5f823e601f3d9081017fffffffffffffffffffffffffffffffffffffffffffffffffffffffffffffffe016820160405261098a9190810190611be7565b90505b6040517f23b872dd00000000000000000000000000000000000000000000000000000000815230600482015273ffffffffffffffffffffffffffffffffffffffff8981166024830152604482018590527f000000000000000000000000000000000000000000000000000000000000000016906323b872dd906064015f604051808303815f87803b158015610a20575f80fd5b505af1158015610a32573d5f803e3d5ffd5b50505050955095509592505050565b5f610a4a610bd4565b905090565b5f610a58610a41565b90508373ffffffffffffffffffffffffffffffffffffffff168173ffffffffffffffffffffffffffffffffffffffff1614158015610b6557506040517f348b684e00000000000000000000000000000000000000000000000000000000815273ffffffffffffffffffffffffffffffffffffffff82811660048301528581166024830152604482018590526064820184905260016084830181905260a48301527f0000000000000000000000000000000000000000000000000000000000000000169063348b684e9060c401602060405180830381865afa158015610b3f573d5f803e3d5ffd5b505050506040513d601f19601f82011682018060405250810190610b6391906124f5565b155b15610bce576040517f264deeaa00000000000000000000000000000000000000000000000000000000815273ffffffffffffffffffffffffffffffffffffffff808616600483015282166024820152604481018490526064810183905260840160405180910390fd5b50505050565b5f3660143373ffffffffffffffffffffffffffffffffffffffff7f000000000000000000000000000000000000000000000000000000000000000016148015610c1d5750808210155b15610c4c575f36610c2e8385612510565b610c3992829061254e565b610c4291612575565b60601c9250505090565b339250505090565b73ffffffffffffffffffffffffffffffffffffffff81168114610c75575f80fd5b50565b8035610c8381610c54565b919050565b5f60208284031215610c98575f80fd5b813561073181610c54565b5f8083601f840112610cb3575f80fd5b50813567ffffffffffffffff811115610cca575f80fd5b602083019150836020828501011115610ce1575f80fd5b9250929050565b5f8083601f840112610cf8575f80fd5b50813567ffffffffffffffff811115610d0f575f80fd5b6020830191508360208260051b8501011115610ce1575f80fd5b5f60408284031215610d39575f80fd5b50919050565b5f805f805f805f805f8060c08b8d031215610d58575f80fd5b610d618b610c78565b995060208b013567ffffffffffffffff80821115610d7d575f80fd5b610d898e838f01610ca3565b909b50995060408d0135915080821115610da1575f80fd5b610dad8e838f01610ce8565b909950975060608d0135915080821115610dc5575f80fd5b610dd18e838f01610ce8565b909750955060808d0135915080821115610de9575f80fd5b610df58e838f01610ca3565b909550935060a08d0135915080821115610e0d575f80fd5b50610e1a8d828e01610d29565b9150509295989b9194979a5092959850565b5f815180845260208085019450602084015f5b83811015610e7157815173ffffffffffffffffffffffffffffffffffffffff1687529582019590820190600101610e3f565b509495945050505050565b828152604060208201525f610e946040830184610e2c565b949350505050565b5f8060408385031215610ead575f80fd5b82359150602083013567ffffffffffffffff811115610eca575f80fd5b610ed685828601610d29565b9150509250929050565b602081525f6107316020830184610e2c565b5f805f805f60a08688031215610f06575f80fd5b8535610f1181610c54565b9450602086013567ffffffffffffffff80821115610f2d575f80fd5b90870190610160828a031215610f41575f80fd5b90945060408701359080821115610f56575f80fd5b908701906080828a031215610f69575f80fd5b9093506060870135925060808701359080821115610f85575f80fd5b50610f9288828901610d29565b9150509295509295909350565b83815273ffffffffffffffffffffffffffffffffffffffff83166020820152606060408201525f610fd36060830184610e2c565b95945050505050565b81835281816020850137505f602082840101525f60207fffffffffffffffffffffffffffffffffffffffffffffffffffffffffffffffe0601f840116840101905092915050565b803565ffffffffffff81168114610c83575f80fd5b803563ffffffff81168114610c83575f80fd5b80356dffffffffffffffffffffffffffff81168114610c83575f80fd5b803561ffff81168114610c83575f80fd5b8015158114610c75575f80fd5b8035610c8381611079565b6110a68261109e83611068565b61ffff169052565b6110b260208201611068565b61ffff1660208301526110c760408201611038565b63ffffffff1660408301526110de60608201611086565b151560608301526110f160808201611086565b1515608083015261110460a08201611086565b151560a083015261111760c08201611086565b151560c083015261112a60e08201611086565b151560e083015261010061113f828201611086565b151590830152610120611153828201611086565b151590830152610140611167828201611086565b15159083015261016061117b828201611086565b15159083015261018061118f828201611086565b1515908301526101a06111a3828201611086565b1515908301526101c06111b7828201611086565b1515908301526101e06111cb828201611086565b1515908301526102006111df828201611086565b1515908301526102206111f3828201610c78565b73ffffffffffffffffffffffffffffffffffffffff169083015261024061121b828201611068565b61ffff811684830152610bce565b5f8083357fffffffffffffffffffffffffffffffffffffffffffffffffffffffffffffffe184360301811261125c575f80fd5b830160208101925035905067ffffffffffffffff81111561127b575f80fd5b8060051b3603821315610ce1575f80fd5b5f82357fffffffffffffffffffffffffffffffffffffffffffffffffffffffffffffffc18336030181126112be575f80fd5b90910192915050565b5f8383855260208086019550808560051b830101845f5b8781101561146a577fffffffffffffffffffffffffffffffffffffffffffffffffffffffffffffffe0858403018952611317828861128c565b604080850182358652868301357fffffffffffffffffffffffffffffffffffffffffffffffffffffffffffffffe1843603018112611353575f80fd5b90920186810192903567ffffffffffffffff80821115611371575f80fd5b60c08083023603861315611383575f80fd5b888a01859052928290526060928389015f5b8481101561144d5763ffffffff6113ab89611038565b1682528b8801358481168082146113c0575f80fd5b838e015250878701356113d281610c54565b73ffffffffffffffffffffffffffffffffffffffff16828801526113f7888701611086565b151586830152608061140a898201611023565b65ffffffffffff169083015260a0611423898201610c78565b73ffffffffffffffffffffffffffffffffffffffff16908301529682019690820190600101611395565b509e8a019e985050509487019450505060019190910190506112de565b5090979650505050505050565b5f8083357fffffffffffffffffffffffffffffffffffffffffffffffffffffffffffffffe18436030181126114aa575f80fd5b830160208101925035905067ffffffffffffffff8111156114c9575f80fd5b8060061b3603821315610ce1575f80fd5b8183525f60208085019450825f5b85811015610e715781357bffffffffffffffffffffffffffffffffffffffffffffffffffffffff811680821461151c575f80fd5b88525063ffffffff61152f838501611038565b168784015260409687019691909101906001016114e8565b5f82357fffffffffffffffffffffffffffffffffffffffffffffffffffffffffffffff818336030181126112be575f80fd5b5f8383855260208086019550808560051b830101845f5b8781101561146a577fffffffffffffffffffffffffffffffffffffffffffffffffffffffffffffffe08584030189526115c98288611547565b608081356115d681610c54565b73ffffffffffffffffffffffffffffffffffffffff908116865282870135906115fe82610c54565b1685870152604061161183820184611477565b838389015261162384890182846114da565b9350505050606061163681840184611477565b93508683038288015261164a8385836114da565b9c88019c96505050928501925050600101611590565b803560ff81168114610c83575f80fd5b5f8383855260208086019550808560051b830101845f5b8781101561146a577fffffffffffffffffffffffffffffffffffffffffffffffffffffffffffffffe08584030189526116c0828861128c565b604080850182356116d081610c54565b73ffffffffffffffffffffffffffffffffffffffff80821688528885013591507fffffffffffffffffffffffffffffffffffffffffffffffffffffffffffffffe185360301821261171f575f80fd5b93018781019390359067ffffffffffffffff82111561173c575f80fd5b6060808302360386131561174e575f80fd5b888a01859052928290525f928089015b838510156117ae57863561177181610c54565b8316815260ff611782888d01611660565b168b82015263ffffffff611797878901611038565b16818701529581019560019490940193810161175e565b9e8a019e98505050948701945050506001919091019050611687565b73ffffffffffffffffffffffffffffffffffffffff8a1681525f602060a0818401526117fa60a084018b8d610fdc565b838103604085015288815281810160058a901b820183018b5f5b8c81101561196f577fffffffffffffffffffffffffffffffffffffffffffffffffffffffffffffffe085840301845281357ffffffffffffffffffffffffffffffffffffffffffffffffffffffffffffffcc18f3603018112611874575f80fd5b8e0161034065ffffffffffff61188983611023565b168552611897888301611038565b63ffffffff16888601526118ad6040830161104b565b6dffffffffffffffffffffffffffff16604086015260606118cf838201611038565b63ffffffff169086015260806118e6838201610c78565b73ffffffffffffffffffffffffffffffffffffffff169086015261191060a0808701908401611091565b61030061191f81840184611229565b838389015261193184890182846112c7565b935050505061032061194581840184611229565b935086830382880152611959838583611579565b978a019796505050928701925050600101611814565b50508581036060870152611984818a8c611670565b9350505050828103608084015261199c818587610fdc565b9c9b505050505050505050505050565b5f602082840312156119bc575f80fd5b5051919050565b5f8083357fffffffffffffffffffffffffffffffffffffffffffffffffffffffffffffffe18436030181126119f6575f80fd5b83018035915067ffffffffffffffff821115611a10575f80fd5b6020019150600581901b3603821315610ce1575f80fd5b5f606080830187845260208781860152604060606040870152828784526080935060808701905060808860051b880101895f5b8a811015611b9d577fffffffffffffffffffffffffffffffffffffffffffffffffffffffffffffff808a8403018452611a93828d61128c565b8584018135611aa181610c54565b73ffffffffffffffffffffffffffffffffffffffff80821687528984013591507fffffffffffffffffffffffffffffffffffffffffffffffffffffffffffffffe1843603018212611af0575f80fd5b92018881019290359067ffffffffffffffff821115611b0d575f80fd5b8160071b3603841315611b1e575f80fd5b868a01899052918190525f918b87015b82841015611b87578435611b4181610c54565b8216815263ffffffff611b55868d01611038565b168b82015289850135611b6781610c54565b8216818b0152848d01358d820152938b0193600193909301928b01611b2e565b978a019796505050928701925050600101611a5a565b50909c9b505050505050505050505050565b7f4e487b71000000000000000000000000000000000000000000000000000000005f52604160045260245ffd5b8051610c8381610c54565b5f6020808385031215611bf8575f80fd5b825167ffffffffffffffff80821115611c0f575f80fd5b818501915085601f830112611c22575f80fd5b815181811115611c3457611c34611baf565b8060051b6040517fffffffffffffffffffffffffffffffffffffffffffffffffffffffffffffffe0603f83011681018181108582111715611c7757611c77611baf565b604052918252848201925083810185019188831115611c94575f80fd5b938501935b82851015611cb957611caa85611bdc565b84529385019392850192611c99565b98975050505050505050565b5f60208284031215611cd5575f80fd5b815161073181610c54565b5f8083357fffffffffffffffffffffffffffffffffffffffffffffffffffffffffffffffe1843603018112611d13575f80fd5b830160208101925035905067ffffffffffffffff811115611d32575f80fd5b803603821315610ce1575f80fd5b80356cffffffffffffffffffffffffff81168114610c83575f80fd5b803562ffffff81168114610c83575f80fd5b5f608080840183357fffffffffffffffffffffffffffffffffffffffffffffffffffffffffffffffe1853603018112611da5575f80fd5b8401602081810191359067ffffffffffffffff821115611dc3575f80fd5b6101c08083023603841315611dd6575f80fd5b608089529382905260a0938489015f5b84811015611f2e57611e0e82611dfb88611d40565b6cffffffffffffffffffffffffff169052565b611e19848701611038565b63ffffffff16848301526040611e30878201611038565b63ffffffff16908301526060611e47878201611068565b61ffff1690830152611e5a868901610c78565b73ffffffffffffffffffffffffffffffffffffffff1688830152858701358783015260c0611e89818801611d5c565b62ffffff169083015260e0611e9f878201611660565b60ff1690830152610100611eb4878201611086565b151590830152610120611ec8878201611086565b151590830152610140611edc878201611086565b151590830152610160611ef0878201611086565b151590830152610180611f04878201611086565b1515908301526101a0611f18878201611086565b1515908301529482019490820190600101611de6565b50611f3b60208a01611038565b63ffffffff811660208c01529650611f5560408a01611660565b60ff811660408c01529650611f6c60608a01610c78565b73ffffffffffffffffffffffffffffffffffffffff811660608c015296509998505050505050505050565b8035611fa281611079565b151582526020810135611fb481611079565b151560208301526040810135611fc981611079565b151560408301526060810135611fde81611079565b8015156060840152505050565b611ff88261109e83611068565b61200460208201611068565b61ffff16602083015261201960408201611038565b63ffffffff16604083015261203060608201611086565b1515606083015261204360808201611086565b1515608083015261205660a08201611086565b151560a083015261206960c08201611086565b151560c083015261207c60e08201611086565b151560e0830152610100612091828201611086565b1515908301526101206120a5828201611086565b1515908301526101406120b9828201611086565b1515908301526101606120cd828201611086565b1515908301526101806120e1828201611086565b1515908301526101a06120f5828201611086565b1515908301526101c0612109828201611086565b1515908301526101e061121b828201611068565b5f608061212a8384611ce0565b6080865261213c608087018284610fdc565b915050602061214d81860186611229565b87840383890152808452828401600582901b85018401835f5b848110156122c0577fffffffffffffffffffffffffffffffffffffffffffffffffffffffffffffffe088840301845281357ffffffffffffffffffffffffffffffffffffffffffffffffffffffffffffffd218736030181126121c6575f80fd5b86016102e065ffffffffffff6121db83611023565b1685526121e9898301611038565b63ffffffff1689860152604061220083820161104b565b6dffffffffffffffffffffffffffff16908601526060612221838201611038565b63ffffffff1690860152612236828c01610c78565b73ffffffffffffffffffffffffffffffffffffffff168b86015260a0612260818701848301611feb565b506102a061227081840184611229565b838389015261228284890182846112c7565b93505050506102c061229681840184611229565b9350868303828801526122aa838583611579565b978b019796505050928801925050600101612166565b50506122cf60408a018a611229565b9750955089810360408b01526122e6818888611670565b96505050505050506122fb6060840184611ce0565b858303606087015261230e838284610fdc565b9695505050505050565b73ffffffffffffffffffffffffffffffffffffffff8616815260a060208201525f6123438687611ce0565b6101608060a086015261235b61020086018385610fdc565b925061236a60208a018a611ce0565b92507fffffffffffffffffffffffffffffffffffffffffffffffffffffffffffffff60808786030160c08801526123a2858584610fdc565b94506123b160408c018c611ce0565b94509150808786030160e08801526123ca858584610fdc565b94506123d860608c01610c78565b73ffffffffffffffffffffffffffffffffffffffff8116610100890152935061240460808c018c611ce0565b94509150808786030161012088015261241e858584610fdc565b945061242d60a08c018c611547565b9350808786030161014088015250506124468383611d6e565b925061245460c08a01610c78565b73ffffffffffffffffffffffffffffffffffffffff169085015250612480610180840160e08901611f97565b8281036040840152612492818761211d565b9150506124b7606083018573ffffffffffffffffffffffffffffffffffffffff169052565b8260808301529695505050505050565b5f80604083850312156124d8575f80fd5b8251915060208301516124ea81610c54565b809150509250929050565b5f60208284031215612505575f80fd5b815161073181611079565b81810381811115612548577f4e487b71000000000000000000000000000000000000000000000000000000005f52601160045260245ffd5b92915050565b5f808585111561255c575f80fd5b83861115612568575f80fd5b5050820193919092039150565b7fffffffffffffffffffffffffffffffffffffffff00000000000000000000000081358181169160148510156125b55780818660140360031b1b83161692505b50509291505056fea26469706673582212206238b96ea7c76a88cd3151f4a0a907da278fec8fdcc3e4c669ed649658dda49664736f6c63430008170033",
	"deployedBytecode": "0x608060405234801561000f575f80fd5b50600436106100b9575f3560e01c8063b5d2553311610072578063beecbcbb11610058578063beecbcbb14610220578063ee0fc12114610242578063f434c91414610269575f80fd5b8063b5d25533146101d9578063b78edb6614610200575f80fd5b8063572b6c05116100a2578063572b6c051461013557806365f4aad0146101925780637da0a877146101b3575f80fd5b8063293c4999146100bd57806336f8937e1461010e575b5f80fd5b6100e47f0000000000000000000000000b538a02610d7d3cc91ce2870f423e0a34d646ad81565b60405173ffffffffffffffffffffffffffffffffffffffff90911681526020015b60405180910390f35b6100e47f000000000000000000000000edb83eb473b008a2246488df1f85174d26d86af281565b610182610143366004610c88565b7f0000000000000000000000008a5ba591ed2bed5691a378c65611ed492500f88773ffffffffffffffffffffffffffffffffffffffff90811691161490565b6040519015158152602001610105565b6101a56101a0366004610d3f565b610290565b604051610105929190610e7c565b7f0000000000000000000000008a5ba591ed2bed5691a378c65611ed492500f8876100e4565b6100e47f000000000000000000000000696c7e9b37d28edbefa3fce06e26041b7197c1a581565b61021361020e366004610e9c565b61053c565b6040516101059190610ee0565b61023361022e366004610ef2565b610738565b60405161010593929190610f9f565b6100e47f000000000000000000000000b291844f213047eb9e1621ae555b1eae6700d55381565b6100e47f000000000000000000000000f5ca295dc286a176e35ebb7833031fd95550eb1481565b5f60607f000000000000000000000000b291844f213047eb9e1621ae555b1eae6700d55373ffffffffffffffffffffffffffffffffffffffff16635c7465e5308d8d8d8d8d8d8d8d6040518a63ffffffff1660e01b81526004016102fc999897969594939291906117ca565b6020604051808303815f875af1158015610318573d5f803e3d5ffd5b505050506040513d601f19601f8201168201806040525081019061033c91906119ac565b9150602083013515610484577f000000000000000000000000696c7e9b37d28edbefa3fce06e26041b7197c1a573ffffffffffffffffffffffffffffffffffffffff16632f3f50e0838560200135610392610a41565b6040516020016103c292919091825273ffffffffffffffffffffffffffffffffffffffff16602082015260400190565b604080517fffffffffffffffffffffffffffffffffffffffffffffffffffffffffffffffe0818403018152919052805160209091012061040287806119c3565b6040518563ffffffff1660e01b81526004016104219493929190611a27565b5f604051808303815f875af115801561043c573d5f803e3d5ffd5b505050506040513d5f823e601f3d9081017fffffffffffffffffffffffffffffffffffffffffffffffffffffffffffffffe01682016040526104819190810190611be7565b90505b6040517f23b872dd00000000000000000000000000000000000000000000000000000000815230600482015273ffffffffffffffffffffffffffffffffffffffff8d81166024830152604482018490527f0000000000000000000000000b538a02610d7d3cc91ce2870f423e0a34d646ad16906323b872dd906064015f604051808303815f87803b158015610517575f80fd5b505af1158015610529573d5f803e3d5ffd5b505050509a509a98505050505050505050565b6040517f6352211e000000000000000000000000000000000000000000000000000000008152600481018390526060906105f89073ffffffffffffffffffffffffffffffffffffffff7f0000000000000000000000000b538a02610d7d3cc91ce2870f423e0a34d646ad1690636352211e90602401602060405180830381865afa1580156105cc573d5f803e3d5ffd5b505050506040513d601f19601f820116820180604052508101906105f09190611cc5565b84601d610a4f565b7f000000000000000000000000696c7e9b37d28edbefa3fce06e26041b7197c1a573ffffffffffffffffffffffffffffffffffffffff16632f3f50e0848460200135610642610a41565b60405160200161067292919091825273ffffffffffffffffffffffffffffffffffffffff16602082015260400190565b604080517fffffffffffffffffffffffffffffffffffffffffffffffffffffffffffffffe081840301815291905280516020909101206106b286806119c3565b6040518563ffffffff1660e01b81526004016106d19493929190611a27565b5f604051808303815f875af11580156106ec573d5f803e3d5ffd5b505050506040513d5f823e601f3d9081017fffffffffffffffffffffffffffffffffffffffffffffffffffffffffffffffe01682016040526107319190810190611be7565b9392505050565b5f8060607f000000000000000000000000edb83eb473b008a2246488df1f85174d26d86af273ffffffffffffffffffffffffffffffffffffffff1663ea38480b3089897f000000000000000000000000b291844f213047eb9e1621ae555b1eae6700d5536107a4610a41565b6040805173ffffffffffffffffffffffffffffffffffffffff909216602083015281018c9052606001604051602081830303815290604052805190602001206040518663ffffffff1660e01b8152600401610803959493929190612318565b60408051808303815f875af115801561081e573d5f803e3d5ffd5b505050506040513d601f19601f8201168201806040525081019061084291906124c7565b909350915060208401351561098d577f000000000000000000000000696c7e9b37d28edbefa3fce06e26041b7197c1a573ffffffffffffffffffffffffffffffffffffffff16632f3f50e084866020013561089b610a41565b6040516020016108cb92919091825273ffffffffffffffffffffffffffffffffffffffff16602082015260400190565b604080517fffffffffffffffffffffffffffffffffffffffffffffffffffffffffffffffe0818403018152919052805160209091012061090b88806119c3565b6040518563ffffffff1660e01b815260040161092a9493929190611a27565b5f604051808303815f875af1158015610945573d5f803e3d5ffd5b505050506040513d5f823e601f3d9081017fffffffffffffffffffffffffffffffffffffffffffffffffffffffffffffffe016820160405261098a9190810190611be7565b90505b6040517f23b872dd00000000000000000000000000000000000000000000000000000000815230600482015273ffffffffffffffffffffffffffffffffffffffff8981166024830152604482018590527f0000000000000000000000000b538a02610d7d3cc91ce2870f423e0a34d646ad16906323b872dd906064015f604051808303815f87803b158015610a20575f80fd5b505af1158015610a32573d5f803e3d5ffd5b50505050955095509592505050565b5f610a4a610bd4565b905090565b5f610a58610a41565b90508373ffffffffffffffffffffffffffffffffffffffff168173ffffffffffffffffffffffffffffffffffffffff1614158015610b6557506040517f348b684e00000000000000000000000000000000000000000000000000000000815273ffffffffffffffffffffffffffffffffffffffff82811660048301528581166024830152604482018590526064820184905260016084830181905260a48301527f000000000000000000000000f5ca295dc286a176e35ebb7833031fd95550eb14169063348b684e9060c401602060405180830381865afa158015610b3f573d5f803e3d5ffd5b505050506040513d601f19601f82011682018060405250810190610b6391906124f5565b155b15610bce576040517f264deeaa00000000000000000000000000000000000000000000000000000000815273ffffffffffffffffffffffffffffffffffffffff808616600483015282166024820152604481018490526064810183905260840160405180910390fd5b50505050565b5f3660143373ffffffffffffffffffffffffffffffffffffffff7f0000000000000000000000008a5ba591ed2bed5691a378c65611ed492500f88716148015610c1d5750808210155b15610c4c575f36610c2e8385612510565b610c3992829061254e565b610c4291612575565b60601c9250505090565b339250505090565b73ffffffffffffffffffffffffffffffffffffffff81168114610c75575f80fd5b50565b8035610c8381610c54565b919050565b5f60208284031215610c98575f80fd5b813561073181610c54565b5f8083601f840112610cb3575f80fd5b50813567ffffffffffffffff811115610cca575f80fd5b602083019150836020828501011115610ce1575f80fd5b9250929050565b5f8083601f840112610cf8575f80fd5b50813567ffffffffffffffff811115610d0f575f80fd5b6020830191508360208260051b8501011115610ce1575f80fd5b5f60408284031215610d39575f80fd5b50919050565b5f805f805f805f805f8060c08b8d031215610d58575f80fd5b610d618b610c78565b995060208b013567ffffffffffffffff80821115610d7d575f80fd5b610d898e838f01610ca3565b909b50995060408d0135915080821115610da1575f80fd5b610dad8e838f01610ce8565b909950975060608d0135915080821115610dc5575f80fd5b610dd18e838f01610ce8565b909750955060808d0135915080821115610de9575f80fd5b610df58e838f01610ca3565b909550935060a08d0135915080821115610e0d575f80fd5b50610e1a8d828e01610d29565b9150509295989b9194979a5092959850565b5f815180845260208085019450602084015f5b83811015610e7157815173ffffffffffffffffffffffffffffffffffffffff1687529582019590820190600101610e3f565b509495945050505050565b828152604060208201525f610e946040830184610e2c565b949350505050565b5f8060408385031215610ead575f80fd5b82359150602083013567ffffffffffffffff811115610eca575f80fd5b610ed685828601610d29565b9150509250929050565b602081525f6107316020830184610e2c565b5f805f805f60a08688031215610f06575f80fd5b8535610f1181610c54565b9450602086013567ffffffffffffffff80821115610f2d575f80fd5b90870190610160828a031215610f41575f80fd5b90945060408701359080821115610f56575f80fd5b908701906080828a031215610f69575f80fd5b9093506060870135925060808701359080821115610f85575f80fd5b50610f9288828901610d29565b9150509295509295909350565b83815273ffffffffffffffffffffffffffffffffffffffff83166020820152606060408201525f610fd36060830184610e2c565b95945050505050565b81835281816020850137505f602082840101525f60207fffffffffffffffffffffffffffffffffffffffffffffffffffffffffffffffe0601f840116840101905092915050565b803565ffffffffffff81168114610c83575f80fd5b803563ffffffff81168114610c83575f80fd5b80356dffffffffffffffffffffffffffff81168114610c83575f80fd5b803561ffff81168114610c83575f80fd5b8015158114610c75575f80fd5b8035610c8381611079565b6110a68261109e83611068565b61ffff169052565b6110b260208201611068565b61ffff1660208301526110c760408201611038565b63ffffffff1660408301526110de60608201611086565b151560608301526110f160808201611086565b1515608083015261110460a08201611086565b151560a083015261111760c08201611086565b151560c083015261112a60e08201611086565b151560e083015261010061113f828201611086565b151590830152610120611153828201611086565b151590830152610140611167828201611086565b15159083015261016061117b828201611086565b15159083015261018061118f828201611086565b1515908301526101a06111a3828201611086565b1515908301526101c06111b7828201611086565b1515908301526101e06111cb828201611086565b1515908301526102006111df828201611086565b1515908301526102206111f3828201610c78565b73ffffffffffffffffffffffffffffffffffffffff169083015261024061121b828201611068565b61ffff811684830152610bce565b5f8083357fffffffffffffffffffffffffffffffffffffffffffffffffffffffffffffffe184360301811261125c575f80fd5b830160208101925035905067ffffffffffffffff81111561127b575f80fd5b8060051b3603821315610ce1575f80fd5b5f82357fffffffffffffffffffffffffffffffffffffffffffffffffffffffffffffffc18336030181126112be575f80fd5b90910192915050565b5f8383855260208086019550808560051b830101845f5b8781101561146a577fffffffffffffffffffffffffffffffffffffffffffffffffffffffffffffffe0858403018952611317828861128c565b604080850182358652868301357fffffffffffffffffffffffffffffffffffffffffffffffffffffffffffffffe1843603018112611353575f80fd5b90920186810192903567ffffffffffffffff80821115611371575f80fd5b60c08083023603861315611383575f80fd5b888a01859052928290526060928389015f5b8481101561144d5763ffffffff6113ab89611038565b1682528b8801358481168082146113c0575f80fd5b838e015250878701356113d281610c54565b73ffffffffffffffffffffffffffffffffffffffff16828801526113f7888701611086565b151586830152608061140a898201611023565b65ffffffffffff169083015260a0611423898201610c78565b73ffffffffffffffffffffffffffffffffffffffff16908301529682019690820190600101611395565b509e8a019e985050509487019450505060019190910190506112de565b5090979650505050505050565b5f8083357fffffffffffffffffffffffffffffffffffffffffffffffffffffffffffffffe18436030181126114aa575f80fd5b830160208101925035905067ffffffffffffffff8111156114c9575f80fd5b8060061b3603821315610ce1575f80fd5b8183525f60208085019450825f5b85811015610e715781357bffffffffffffffffffffffffffffffffffffffffffffffffffffffff811680821461151c575f80fd5b88525063ffffffff61152f838501611038565b168784015260409687019691909101906001016114e8565b5f82357fffffffffffffffffffffffffffffffffffffffffffffffffffffffffffffff818336030181126112be575f80fd5b5f8383855260208086019550808560051b830101845f5b8781101561146a577fffffffffffffffffffffffffffffffffffffffffffffffffffffffffffffffe08584030189526115c98288611547565b608081356115d681610c54565b73ffffffffffffffffffffffffffffffffffffffff908116865282870135906115fe82610c54565b1685870152604061161183820184611477565b838389015261162384890182846114da565b9350505050606061163681840184611477565b93508683038288015261164a8385836114da565b9c88019c96505050928501925050600101611590565b803560ff81168114610c83575f80fd5b5f8383855260208086019550808560051b830101845f5b8781101561146a577fffffffffffffffffffffffffffffffffffffffffffffffffffffffffffffffe08584030189526116c0828861128c565b604080850182356116d081610c54565b73ffffffffffffffffffffffffffffffffffffffff80821688528885013591507fffffffffffffffffffffffffffffffffffffffffffffffffffffffffffffffe185360301821261171f575f80fd5b93018781019390359067ffffffffffffffff82111561173c575f80fd5b6060808302360386131561174e575f80fd5b888a01859052928290525f928089015b838510156117ae57863561177181610c54565b8316815260ff611782888d01611660565b168b82015263ffffffff611797878901611038565b16818701529581019560019490940193810161175e565b9e8a019e98505050948701945050506001919091019050611687565b73ffffffffffffffffffffffffffffffffffffffff8a1681525f602060a0818401526117fa60a084018b8d610fdc565b838103604085015288815281810160058a901b820183018b5f5b8c81101561196f577fffffffffffffffffffffffffffffffffffffffffffffffffffffffffffffffe085840301845281357ffffffffffffffffffffffffffffffffffffffffffffffffffffffffffffffcc18f3603018112611874575f80fd5b8e0161034065ffffffffffff61188983611023565b168552611897888301611038565b63ffffffff16888601526118ad6040830161104b565b6dffffffffffffffffffffffffffff16604086015260606118cf838201611038565b63ffffffff169086015260806118e6838201610c78565b73ffffffffffffffffffffffffffffffffffffffff169086015261191060a0808701908401611091565b61030061191f81840184611229565b838389015261193184890182846112c7565b935050505061032061194581840184611229565b935086830382880152611959838583611579565b978a019796505050928701925050600101611814565b50508581036060870152611984818a8c611670565b9350505050828103608084015261199c818587610fdc565b9c9b505050505050505050505050565b5f602082840312156119bc575f80fd5b5051919050565b5f8083357fffffffffffffffffffffffffffffffffffffffffffffffffffffffffffffffe18436030181126119f6575f80fd5b83018035915067ffffffffffffffff821115611a10575f80fd5b6020019150600581901b3603821315610ce1575f80fd5b5f606080830187845260208781860152604060606040870152828784526080935060808701905060808860051b880101895f5b8a811015611b9d577fffffffffffffffffffffffffffffffffffffffffffffffffffffffffffffff808a8403018452611a93828d61128c565b8584018135611aa181610c54565b73ffffffffffffffffffffffffffffffffffffffff80821687528984013591507fffffffffffffffffffffffffffffffffffffffffffffffffffffffffffffffe1843603018212611af0575f80fd5b92018881019290359067ffffffffffffffff821115611b0d575f80fd5b8160071b3603841315611b1e575f80fd5b868a01899052918190525f918b87015b82841015611b87578435611b4181610c54565b8216815263ffffffff611b55868d01611038565b168b82015289850135611b6781610c54565b8216818b0152848d01358d820152938b0193600193909301928b01611b2e565b978a019796505050928701925050600101611a5a565b50909c9b505050505050505050505050565b7f4e487b71000000000000000000000000000000000000000000000000000000005f52604160045260245ffd5b8051610c8381610c54565b5f6020808385031215611bf8575f80fd5b825167ffffffffffffffff80821115611c0f575f80fd5b818501915085601f830112611c22575f80fd5b815181811115611c3457611c34611baf565b8060051b6040517fffffffffffffffffffffffffffffffffffffffffffffffffffffffffffffffe0603f83011681018181108582111715611c7757611c77611baf565b604052918252848201925083810185019188831115611c94575f80fd5b938501935b82851015611cb957611caa85611bdc565b84529385019392850192611c99565b98975050505050505050565b5f60208284031215611cd5575f80fd5b815161073181610c54565b5f8083357fffffffffffffffffffffffffffffffffffffffffffffffffffffffffffffffe1843603018112611d13575f80fd5b830160208101925035905067ffffffffffffffff811115611d32575f80fd5b803603821315610ce1575f80fd5b80356cffffffffffffffffffffffffff81168114610c83575f80fd5b803562ffffff81168114610c83575f80fd5b5f608080840183357fffffffffffffffffffffffffffffffffffffffffffffffffffffffffffffffe1853603018112611da5575f80fd5b8401602081810191359067ffffffffffffffff821115611dc3575f80fd5b6101c08083023603841315611dd6575f80fd5b608089529382905260a0938489015f5b84811015611f2e57611e0e82611dfb88611d40565b6cffffffffffffffffffffffffff169052565b611e19848701611038565b63ffffffff16848301526040611e30878201611038565b63ffffffff16908301526060611e47878201611068565b61ffff1690830152611e5a868901610c78565b73ffffffffffffffffffffffffffffffffffffffff1688830152858701358783015260c0611e89818801611d5c565b62ffffff169083015260e0611e9f878201611660565b60ff1690830152610100611eb4878201611086565b151590830152610120611ec8878201611086565b151590830152610140611edc878201611086565b151590830152610160611ef0878201611086565b151590830152610180611f04878201611086565b1515908301526101a0611f18878201611086565b1515908301529482019490820190600101611de6565b50611f3b60208a01611038565b63ffffffff811660208c01529650611f5560408a01611660565b60ff811660408c01529650611f6c60608a01610c78565b73ffffffffffffffffffffffffffffffffffffffff811660608c015296509998505050505050505050565b8035611fa281611079565b151582526020810135611fb481611079565b151560208301526040810135611fc981611079565b151560408301526060810135611fde81611079565b8015156060840152505050565b611ff88261109e83611068565b61200460208201611068565b61ffff16602083015261201960408201611038565b63ffffffff16604083015261203060608201611086565b1515606083015261204360808201611086565b1515608083015261205660a08201611086565b151560a083015261206960c08201611086565b151560c083015261207c60e08201611086565b151560e0830152610100612091828201611086565b1515908301526101206120a5828201611086565b1515908301526101406120b9828201611086565b1515908301526101606120cd828201611086565b1515908301526101806120e1828201611086565b1515908301526101a06120f5828201611086565b1515908301526101c0612109828201611086565b1515908301526101e061121b828201611068565b5f608061212a8384611ce0565b6080865261213c608087018284610fdc565b915050602061214d81860186611229565b87840383890152808452828401600582901b85018401835f5b848110156122c0577fffffffffffffffffffffffffffffffffffffffffffffffffffffffffffffffe088840301845281357ffffffffffffffffffffffffffffffffffffffffffffffffffffffffffffffd218736030181126121c6575f80fd5b86016102e065ffffffffffff6121db83611023565b1685526121e9898301611038565b63ffffffff1689860152604061220083820161104b565b6dffffffffffffffffffffffffffff16908601526060612221838201611038565b63ffffffff1690860152612236828c01610c78565b73ffffffffffffffffffffffffffffffffffffffff168b86015260a0612260818701848301611feb565b506102a061227081840184611229565b838389015261228284890182846112c7565b93505050506102c061229681840184611229565b9350868303828801526122aa838583611579565b978b019796505050928801925050600101612166565b50506122cf60408a018a611229565b9750955089810360408b01526122e6818888611670565b96505050505050506122fb6060840184611ce0565b858303606087015261230e838284610fdc565b9695505050505050565b73ffffffffffffffffffffffffffffffffffffffff8616815260a060208201525f6123438687611ce0565b6101608060a086015261235b61020086018385610fdc565b925061236a60208a018a611ce0565b92507fffffffffffffffffffffffffffffffffffffffffffffffffffffffffffffff60808786030160c08801526123a2858584610fdc565b94506123b160408c018c611ce0565b94509150808786030160e08801526123ca858584610fdc565b94506123d860608c01610c78565b73ffffffffffffffffffffffffffffffffffffffff8116610100890152935061240460808c018c611ce0565b94509150808786030161012088015261241e858584610fdc565b945061242d60a08c018c611547565b9350808786030161014088015250506124468383611d6e565b925061245460c08a01610c78565b73ffffffffffffffffffffffffffffffffffffffff169085015250612480610180840160e08901611f97565b8281036040840152612492818761211d565b9150506124b7606083018573ffffffffffffffffffffffffffffffffffffffff169052565b8260808301529695505050505050565b5f80604083850312156124d8575f80fd5b8251915060208301516124ea81610c54565b809150509250929050565b5f60208284031215612505575f80fd5b815161073181611079565b81810381811115612548577f4e487b71000000000000000000000000000000000000000000000000000000005f52601160045260245ffd5b92915050565b5f808585111561255c575f80fd5b83861115612568575f80fd5b5050820193919092039150565b7fffffffffffffffffffffffffffffffffffffffff00000000000000000000000081358181169160148510156125b55780818660140360031b1b83161692505b50509291505056fea26469706673582212206238b96ea7c76a88cd3151f4a0a907da278fec8fdcc3e4c669ed649658dda49664736f6c63430008170033",
	"gitCommit": "c3d0af6be058e6ef690fb8dca201eaababf72464"
}